:4000000000800020110000002D1400002D14000008B5044B1A6803F53F5302331A6001F025FA00BFFA46004010B5054C237833B9044B13B10448AFF300800123237010BDD5
:40004000E082FF1F0000000038360000084B10B51BB108490848AFF300800848036803B910BD074B002BFBD0BDE81040184700BF00000000E482FF1F38360000C880FF1FF4
:400080000000000008B562B645F6BF52054B1A60054A136843F002031360002002F036F8FBE700BF14E000E010E000E008B500F0DBFB01F089FA00F091FDFF2000F0B2FC29
:4000C00002F0AAFA02F0EAFA02F02AFB02F06AFB02F0AAFB02F0EAFB00F074F802F016F90D4A136843F00503136001221146002001F048FB01220221104601F043FB03201F
:4001000001F0CCFA042001F0C9FA012001F0C6FA02F042F808BD00BF10E000E000BFFDE708B5002001F0ACFC08BD00BF684620F007018D4619B572B6EFF311841E4B1B684F
:40014000DBB20F2B10D9103B23F0030202F1604202F564421168DB0003F01803E0229A400A4022FA03F306E00F2B03D1134B1B681B0E00E0002383F31188114A1368013386
:400180001360012B01D102F0EDFB62B6FFF7C8FF72B684F3118801F077FE094A1368013B13601BB902F0E7FB02F0ABFB62B6BDE819408546704700BF04ED00E020ED00E0AF
:4001C000B484FF1F10B50024084B1C60084AD36843F08073D360074B5C601A6842F001021A6000F061FB204610BD00BFFC82FF1FF0ED00E0001000E020B370B4044623B32E
:40020000012903D0032901D0042900D102B3187808B3052922D809B1022900D10AB314480579092D20D86E1C067100EB8500846000206060217160712360A060E060206147
:40024000626113E06FF0010070476FF001000DE06FF001000AE06FF0130007E06FF0130004E06FF0130001E06FF0070070BC7047FC82FF1F08B310B504464379012B1FD092
:400280000379032B03D0012B01D0042B03D16369CBB1012098472279931EDBB2012B03D80A4B1B68A36004E0012A02D8084B5B68A36001236371002010BD6FF001007047C0
:4002C0006FF0090010BD6FF0010010BDFC82FF1F001000E0C3688268934204D301699B1A0B44036103E001699B1A0B4403610020704700BF40B338B503464279013AD2B28F
:40030000012A24D801798A1ED2B2012A03D8134A1268C26004E0012902D8114A5268C2601C461846FFF7D6FF05462379032B03D0012B01D0042B03D163695BB10020984788
:4003400003236371284638BD6FF0010070476FF0160038BD6FF0010038BD00BFFC82FF1F001000E003690248A0FB0330400A7047F119760570B596B000211591694B0A46BF
:400380006948FFF739FF694801F038F90F2001F09DFC15A9032001F0F9FB159801F0C8FB634B1B78DBB2022B1FD0032B37D0012BECD1159B13F0030FE8D0002001F06EFDAA
:4003C00002F0A2FC5B4B83FB0032C317C3EBE2134FF4FA6202FB130303F57A739BB2524A1383002001F000FFD0E7159B13F0080FCCD000F005FA4E4CE3680133E3600120EB
:4004000001F04CFD484D4FF47A736B83012001F0EBFE032323702846FFF72CFFB6E7159B13F0010F1ED04048FFF764FF01F0B4FF5B2814D1404801F0E1F83B48FFF792FFF5
:4004400003463E4A3C2103A802F098FC03A801F0D5F80136364A93680133936002E0384801F0CCF8159B13F0020F1ED02E48FFF741FF01F091FF062814D12F4801F0BEF8B4
:400480002948FFF76FFF03462C4A3C2103A802F075FC03A801F0B2F80136254A93680133936002E0264801F0A9F8159B13F0040F05D01D48FFF71EFF224801F09FF81A4DE1
:4004C0002846FFF74FFF1A4C63681844606000232B6100F0D3F9012323701B4801F08EF8E3680A2B7FF452AF0023E3606368751CB3FBF6F6A368626801960092134A4621EF
:4005000003A802F03BFC03A801F078F80E4801F075F8A368DBB2044A1377042001F0BEF82E4633E73C3600002C83FF1F4C360000CC80FF1FD34D6210B8360000DC360000A1
:40054000F836000018370000283700006437000010B5314BDB8BDCB2FF2B03D8204602F03BF819E0B3F5007F07D2E043C0B202F033F8204602F072F80EE0B3F5407F07D2A4
:40058000E043C0B202F06AF8204602F0A9F803E0E043C0B202F0A4F81F4AD38B01339BB2D383B3F5806F02D300221B4BDA831A4B1B8B9BB2ABB1002001F070FC164C238B23
:4005C0009BB2013B9BB22383002001F00DFE238B9BB233B90222114B1A700821032001F0F5FA0D4B5B8B9BB293B1012001F056FC094C638B9BB2013B9BB26383012001F002
:40060000F3FD638B9BB21BB90421032001F0DEFA01F0C2FD10BD00BF2C83FF1FCC80FF1F00B587B0274B9B68CBB900F049FB3C21112000F05FFA022000F070FA1F2000F09C
:4006400061FA214800F0A2FD5021282000F052FA4FF4784000F056FA1C4800F097FD194B9B684BB300F02CFB4621122000F042FA022000F053FA40F2FF7000F043FA4FF65C
:40068000FF7300931823692241210C2000F0AAFB0F4B1A7F0F4902A802F0A2FB02A800F075FD042301930023009340F2FF7302221E21372000F0BAFB01F06EFD07B05DF8E0
:4006C00004FB00BFCC80FF1F94370000A03700002C83FF1FA837000008B501F043FE012804D10121032001F071FA08BD01F032FE012803D10221032001F068FA08BD00BFF6
:40070000684620F007018D4619B572B6EFF311841E4B1B68DBB20F2B10D9103B23F0030202F1604202F564421168DB0003F01803E0229A400A4022FA03F306E00F2B03D1F4
:40074000134B1B681B0E00E0002383F31188114A136801331360012B01D102F003F962B6FFF7BAFF72B684F3118801F08DFB094A1368013B13601BB902F0FDF802F0C1F899
:4007800062B6BDE819408546704700BF04ED00E020ED00E0B484FF1FF8B5002412E00C4E65002A195300F718F05C01F0DBFF787802F01AF8B87802F059F8B88800F040FFBA
:4007C0000134E4B2082CEAD901F0E6FCF8BD00BFB437000010B50446013000F00FFF064800F00CFF04F1110000F008FF034800F005FF002010BD00BFFC370000D836000055
:4008000010B502F081FA104B184003D5013860F0010001300130C0B2012803D0022803D0802402E0062400E05B24002001F0A2FD204601F0ABFD012001F09CFD204601F0E4
:40084000A5FD002010BD00BF0100008008B5FF22044B1A5401F08EFD002001F097FD002008BD00BFDC80FF1F08B50020FFF7EEFF0120FFF7EBFF002008BD00BF08B5094B59
:40088000FF221A705A70002001F074FD002001F07DFD012001F06EFD002001F077FD002008BD00BFDC80FF1F08B5002000F038FE002000F041FE002000F04AFE08BD00BF68
:4008C00038B5134B988908B319461C89631C9BB2104AA2FB03525209642505FB12330B810138888101EB44018B7B13B1012B04D006E0002001F0C8FD02E0012001F0C4FD52
:40090000034B03EB4404E07B01F072FD38BD00BF5083FF1F1F85EB5130B5ABB01B4B9B89632B17D92AAD032305F8A83D184B1868CDF80100174C0FCCCDF81100CDF8151025
:40094000CDF81920CDF81D302846FFF743FF6FF0070019E00D4D6C89621C92B205EB4404A073E1730C49A1FB02014909642000FB11226A8101339BB2AB81012B03D1FFF72C
:400980009FFF002000E000202BB030BD5083FF1F583D00005C3D00001F85EB512DE9F04180460E4617461D462A210020FFF7B4FF00210120FFF7B0FF194C94F8D61041443A
:4009C000C9B20120FFF7A8FF00210120FFF7A4FF94F8D6103944C9B20120FFF79DFF2B210020FFF799FF00210120FFF795FF94F8D7103144C9B20120FFF78EFF00210120B7
:400A0000FFF78AFF94F8D7102944C9B20120FFF783FF2C210020FFF77FFFBDE8F08100BF5083FF1F08B5642800D9642001F05EFD08BD00BF10B5044636210020FFF76CFF3F
:400A400004F003002A4B83F8D80003284ED8DFE800F00215283BC2210120FFF75DFF244BA022A3F8DA208022DA8093F8DC2083F8D62093F8DD2083F8D72010BDA22101207A
:400A8000FFF74AFF1A4BA022DA808022A3F8DA2093F8DC2083F8D72093F8DD2083F8D62010BD08210120FFF737FF114BA022A3F8DA208022DA8093F8DC2083F8D62093F8D8
:400AC000DD2083F8D72010BD62210120FFF724FF074BA022DA808022A3F8DA2093F8DC2083F8D72093F8DD2083F8D62010BD00BF5083FF1F024BA3F8DE00A3F8E0107047E1
:400B00005083FF1F014BA3F8E20070475083FF1F014BB3F8E40070475083FF1F08B90120FFE7014B187170475083FF1F2DE9F0411F46BDF818501F4BB3F90630834236DD9E
:400B400090461C4AB2F8DA20914230DA00EB0804013C9C4202DB1B1A0FFA83F87B18013B9A4201DC571A3FB2C0B2C9B2CB19013B00EB0802013ADBB2D2B2FFF70FFF2E0A9C
:400B8000EDB2012001F080FC0FE031460220FFF7C3FE29460220FFF7BFFE013C24B200E04446002CF1DC013F3FB2002FF8DCBDE8F08100BF5083FF1F00B583B0064AB2F932
:400BC000DA30B2F90620009000210846FFF7AEFF03B05DF804FB00BF5083FF1FF8B5364B8022DA80A022A3F8DA20002483F8D840A3F8DE40A3F8E04001251D714FF6FF72AB
:400C0000A3F8E220A3F8E4405D711C6083F8DD4083F8DC4083F8D64083F8D7401C815C819C8101F023FC284601F03AFC642000F007FD204601F034FC642000F001FD2846A1
:400C400001F02EFC142000F0FBFC29462046FFF763FE322000F0F4FC11212046FFF75CFE782000F0EDFC0F22144D14E02C4614F8021B0020FFF750FE6A78254606E06E1C45
:400C800029780120FFF748FE22463546531EDCB2002AF4D13A46531EDFB2002AE6D10220FFF7C8FE0020FFF787FF01F065FC642001F01CFCF8BD00BF5083FF1F013800000B
:400CC00008B5FFF725FFFFF777FF08BD002821DB114BB3F9063098421CDA00291ADB0E4BB3F8DA30994215DA10B51446C0B2C9B24B1C421CDBB2D2B2FFF750FE012001F08C
:400D0000C3FB210A0220FFF707FEE1B20220FFF703FE10BD704700BF5083FF1FF8B51E46164BB3F90630834226DD1546134BB3F8DA30994220DA0A44013A934201DC5D1ABC
:400D40002DB2C0B2C9B24B19013BDBB20246FFF725FE370AF6B2012001F096FB08E039460220FFF7D9FD31460220FFF7D5FD25466A1E14B2002DF2D1F8BD00BF5083FF1FC9
:400D8000F8B51E46164BB3F90630834226DD1546134AB2F8DA20914220DA4219013A9A4201DB1D1A2DB2C0B2C9B24219013A0B46D2B2FFF7F3FD370AF6B2012001F064FBF2
:400DC00008E039460220FFF7A7FD31460220FFF7A3FD25466A1E14B2002DF2D1F8BD00BF5083FF1F2DE9F04180460E4614461F46BDF818502B46FFF7C3FFF11901392B4678
:400E0000224609B24046FFF7BBFF2B463A4631464046FFF783FF08EB040001382B463A46314600B2FFF77AFFBDE8F0812DE9F04F8BB00290039115460493BDF850709DF872
:400E400054A07F4B1A68002A40F09080B3F906300146834240F3F180794BB3F8DA300398984280F2EA800AEB4A0253000B44012B00F1E38000EBCA03012B00F1DE804FF097
:400E80000008894683460595049E4EE0059B03EB830343446B4A134493F8585000243EE015F0010F1BD0BAF1010F09D104EB0B0108EB0900324609B200B2FFF707FF2BE094
:400EC0001FFA8AF00FFA8AF204FB00B108FB00900096134609B200B2FFF728FE1CE0BE421AD0BAF1010F09D104EB0B0108EB09003A4609B200B2FFF7E9FE0DE01FFA8AF063
:400F00000FFA8AF204FB00B108FB00900097134609B200B2FFF70AFE013464B26D08072CBEDD08F101084FFA88F8B8F1040FADDD049BBB4200F08180BAF1010F08D1029834
:400F400005303B460822039900B2FFF7E7FE74E01FFA8AF303EB8300029A10440097DB005246039900B2FFF7E1FD66E0137AEB1ADBB2506800EBC301D2F800B030F83370E0
:400F800091F80280CB78079391F90530089391F906200992BAF1010F04D91BB2059313B2069302E000230693059300231C46994640E05E1CF6B213F0070F03D17B1C1BF8D6
:400FC00007409FB214F0800F27D0BAF1010F0DD1099B039A99184944089B029A98182844049A09B200B2FFF771FE16E0059B58191FFA8AF3069A02EB09010FFA8AFE039A8A
:4010000001FB0321029A00FB0320049B00937246734609B200B2FFF789FD6400E4B20135EDB2334600E000254545C2D309F101095FFA89F9079A9145F5D30BB0BDE8F08FE1
:401040005083FF1F0038000070B582B04E4B1B68002B43D10A280BD14B4B0022A3F8DE201979B3F8E02002EBC102A3F8E02088E00D2800F08680444B5B79ABB1424A117946
:4010800001EB41046300B2F8DE402344B2F90620934209DD3C4B0022A3F8DE20B3F8E02002EBC101A3F8E010374CB4F8E230B4F9E010B4F9DE5022790192B4F8E420009291
:4010C00002462846FFF7B2FE237903EB43035A00B4F8DE301344A4F8DE3052E00A280CD1294A0021A2F8DE10997A1079B2F8E03000FB0133A2F8E03043E00D2841D01A7A26
:4011000090423ED3597A88423BD8821A5C6804EBC204A278E1785AB351B394F905501A494979A9B118490E792A44B1F8DE5002FB0652B1F906108A420ADD134A0021A2F815
:40114000DE109B7AB2F8E01006FB0316A2F8E0600D4AB2F8E230B2F9E010B2F9DE5016790196B2F8E420009202462846FFF75EFE2179054B1879B3F8DE2000FB0122A3F80C
:40118000DE2002B070BD00BF5083FF1F10B5044602E00134FFF758FF20780028F9D110BDFEE700BFF0B40022174611E050F82760F3B226F0FF0608E001EB420511F812401B
:4011C0006D78A5550132013BDBB2002BF4D10137222FEBD9F0BC7047064B1B78DBB203F00701054A11701B09013213704422034B1A707047CF0100496E580040765800403C
:4012000008B50A46002101F076FD08BD38B500242C4B1C80582202331A70022202331A80182329490B7002310A8002310B70192502310D8002310B7041F2BF2002310880FB
:4012400002310B70214B1A7008224FF040231A70032103F5007319701D4B1B78DBB21D490B701D4B1A8041F25122023B1A800CE01A4B1B7803F0010343EA440404F0030429
:401280004FF4F07001F020FB013D0DB1032CEFD115B90320FFF784FF114B4FF480721A8007221A7000220F490A704820023108701A700222033B1A700B4A137843F01F039A
:4012C000137038BD80400040864000400043004008010049A146004022420040254200400440004006400040A243004008B501F0F7FC08BD38B572B600240CE0374D630088
:4013000019194A0011462A44084691882858FFF777FF0134E4B2072CF0D900240BE02F48A20011194B0003441A8F596B186BFFF7DDFF0134E4B2012CF1D929494FF0904069
:40134000FFF730FF274A137843F0020313701032137843F002031370234C237843F040032370A2F58632513A137843F01003137008221E491E48FFF7B9FF0A221D491E482B
:40138000FFF7B4FF08221D491D48FFF7AFFF08221C491D48FFF7AAFF08221C491C48FFF7A5FF08221B491C48FFF7A0FF1B4A137843F0080313701A4D61232B70FFF726FFF2
:4013C00081232B700122174B1A70FFF705FF0E2221461548FFF78AFF38BD00BF6C3D00008C00004803500140A0430040E409004802510040EC090048C0510040F8090048AB
:40140000F2510040000A004812510040080A004822510040100A004832510040224300400048004004000840B043004008B501F02BFC03680C2B00D1FEE7FEE708B5094B33
:401440001A681044084BC31A802B02DC054B186005E001F019FC0C2303604FF0FF32104608BD00BFE080FF1F008FFF1F08B5104E104D16E029686B68AC68002204E051F8EE
:40148000040B43F8040B0432A242F8D1E868002203E0002143F8041B04328242F9D11035013E002EE6D101F0F5FBFEF7EBFDFEE7010000002041000008B5104A104B1A6002
:4014C000104A136843F40073136000230AE0032B03D80D4A52F8231000E00C490C4A42F8231001332F2BF2D90A4B1A780A4B1A70074A0A4B1A60FFF7FDFE08BD0004FA0520
:401500000CED00E014ED00E0000000002D1400000080FF1FBC760040C080FF1F08ED00E0044A137803F0BF03800100F0400018431070704700510040044A137803F0FE033E
:4015400000F0010018431070704700BF20510040044A137803F07F03C001C0B218431070704700BF005100407222084B1A702022A3F580731A700622673B1A70472210334D
:401580001A70002250331A70704700BF8865004010B501F0A1F904460A4A137843F020031370A2F58072137843F010031370073A137843F01003137000F032F8204601F09A
:4015C0008FF910BD9865004008B5054B1B7823B9FFF7CAFF0122024B1A70FFF7D9FF08BD3684FF1F034B1B7813F0040FFAD1024B18707047616400404064004038B5074B43
:401600001B782BB938BDFFF7EDFF0134A4B201E005460024285D0028F5D138BD3684FF1F054A137843F0080313701032137843F008031370704700BFA243004001BE704707
:4016400010B5044605E0084B186801F03DF9A4F50044B4F5004FF6D8034B586800FB04F001F032F910BD00BFE480FF1F38B504460D46072902D90020FFF7E0FF1F2C02D902
:401680000020FFF7DBFF04F01F0000F1604000F564406D01EDB2057038BD00BF38B5EFF3108572B605284ED82D4B53F82030002B4BD02B4A013B42F820302A4B53F8203044
:4016C000032B07D10222274B43F820200022264B43F8202000F09CFC244B1B68002B36D1234B1C6800F072FCB0F1FF3F31D0214B53F82020204B1B689A422CD9B4F1FF3F40
:4017000003D00221174A42F824101C4A52F820201343194A13600022124B43F8202000F011FC174B53F820304BB10024144B43F8204040F0004001F027F920460CE001F0F6
:4017400023F9002008E0032006E0042004E0002002E0002000E0002085F3108838BD00BF7081FF1F2482FF1F7084FF1FB484FF1F0882FF1FA83F00009084FF1F783F00009B
:401780004084FF1FF8B5EFF3108472B6022825D800EB4005AB00184DEB5803EB4306B500164E75598D421BD34AB103EB43039E00124B1E44B3689A4214D3954214D3A9B1F5
:4017C00003010F4DEB589BB90301EE180127EF507260013900F086F800200AE0032008E0082006E0082004E0082002E0082000E0072084F31088F8BDF83E0000343F000032
:40180000EC84FF1F18B108B5C368984708BD704708B508B1406800E00020052816D80C4B53F8203093B10A4A013B42F82030094B53F82030032B07D10222064B43F82020A0
:401840000022054B43F8202000F0E2FB08BD00BF7081FF1F2482FF1F7084FF1F18B1034640689B6801E00023184605281DD80F4A52F82020CAB10E4A52F82010032914D0C4
:4018800010B50C4C54F820201A4344F820200A4A52F82020134207D0012905D10222044B43F8202000F0B4FB10BD7047483F00002482FF1F7084FF1F5884FF1F80B108B546
:4018C0000378012B06D013B1032B06D008BDFFF79FFF08BDFFF7C2FF08BDFFF793FF08BD704700BF30B400EB40029300214AD258214B03EBC2035C68B4F1FF3F04D11E4B09
:4019000003EBC20250602DE01C4B03EB04139B6899420AD2184D05EBC2025060174A02EB04125B1A93601DE01C46144B03EB04139A68891ADB68B3F1FF3F05D00F4A02EBD5
:40194000031292689142EFD2B3F1FF3F05D00B4A02EB031295686D1A9560084A02EB0414E0601C46054B03EB00108160C46030BC704700BFF83E00000081FF1FEC84FF1F2C
:4019800038B5394A02EBC0035C6852F83030013342F8303000EB40018A0034498A58934203D90022304B43F83020B4F1FF3F59D02F4B03EB04139B68002B4ED1214600E0BE
:4019C00019462B4B03EB0113DB68B3F1FF3F05D0274A02EB03129268002AF1D0244A02EB01114FF0FF32CA601F4A02EBC0004360B3F1FF3F07D01E4A02EB03139A68013A9D
:401A00009A6000E02C4604EB44029300194A13441B7A7BB904EB44029300164A13445A68154B53F8223003EB83039A0013481044FFF744FF0E4B03EB0413DD68596821B1A5
:401A400001392046FFF74EFF03E024010022084B1A51B5F1FF3FD5D138BD054A02EB0414013BA36038BD00BF0081FF1F343F0000EC84FF1FF83E0000283F0000BC3E00009E
:401A800038B5EFF3108572B6002838D1FFF778FF204B1B68002B34D11F4B1C6800F096FAB0F1FF3F2FD01D4B53F820201C4B1B689A422AD9B4F1FF3F03D00221194A42F860
:401AC0002410194A52F820201343154A13600022144B43F8202000F035FA144B53F820304BB10024114B43F8204040F0004000F04BFF20460AE000F047FF002006E0032018
:401B000004E0002002E0002000E0002085F3108838BD00BFB484FF1F0882FF1FA83F00009084FF1F2482FF1F783F00004084FF1FEFF3108372B6114A1168114A126882B9E6
:401B4000B1F1FF3F0FD00F4A52F821206AB110B40D4C54F8212022EA000044F82100002007E0022002E0022000E0012083F31088704783F3108810BC704700BF0882FF1FA9
:401B8000B484FF1F483F00007084FF1F05280FD80B4B53F820306BB10A4B53F82030032B0AD059B1084B53F820300B60002070470320704701207047072070470E2070476E
:401BC000483F00002482FF1F7084FF1F38B5EFF3108472B6052853D8324B53F82030002B50D0314B53F82030032B4DD02F4D55F820200A4345F820202D4A52F820201142B9
:401C000044D0012B44D10222274B43F8202000F0FFF9284B1B68002B3CD1274B1D6800F0D5F9B0F1FF3F37D0244B53F82020244B1B689A4232D9B5F1FF3F03D002211A4A7C
:401C400042F825101F4A52F8202013431C4A13600022154B43F8202000F074F91A4B53F820304BB10025184B43F8205040F0004000F08AFE284612E000F086FE00200EE080
:401C800003200CE001200AE0072008E0002006E0002004E0002002E0002000E0002084F3108838BD483F00002482FF1F7084FF1F5884FF1FB484FF1F0882FF1FA83F00008F
:401CC0009084FF1F783F00004084FF1F38B5EFF3108472B63A4B1D683A4B1B68002B63D1B5F1FF3F62D0384B53F82530B3F1FF3F5ED1364B53F82530002B5BD0344B53F892
:401D00002530034258D1334B43F825000122324B43F82520314B53F8250031490B6823EA00030B602F4B43F825202F4B53F82520234B1A6000F04AF9B0F1FF3F06D02B4B44
:401D400053F82020264B1B689A420DD81C4B1868B0F1FF3F03D000221F4B43F8202040F0004000F011FE1AE000211B4A42F820101A4A52F820201343194A136000F0E2F846
:401D8000184B53F8203043B10022164B43F8202040F0004000F0F8FD01E000F0F5FD00200C4B43F8250008E0022006E0022004E0062002E0012000E0002084F3108838BD21
:401DC0000882FF1FB484FF1F1081FF1F483F00007084FF1F5884FF1F2482FF1F783F00009084FF1F4084FF1F0C82FF1FA83F000008B500F0A7F8084B53F8203043B1002231
:401E0000054B43F8202040F00040044B186008BD024B186008BD00BF4084FF1FB884FF1F10B500F0D3F8124B1B68B0F1FF3F1AD0104A52F82010104A1268914213D9B3F122
:401E4000FF3F03D002240D4941F8234000210B4B43F820100A4B53F820301A43064B1A60FFF7C6FF10BD43F00043064A136010BD0882FF1FA83F00009084FF1F2482FF1F2C
:401E8000783F0000B884FF1F034B1B6813B10022014B1A60704700BFA884FF1F204B1A68204B1968EFF3108372B6012829D830B41D4C54F8204044BB51B9B2F1FF3F26D05B
:401EC0001A4C54F822501A4C54F82040A54220D809BB184951F82250174C44F8205041F822000121104A42F8201014490C68144A42F820400E4A52F8202022430A60002003
:401F00000AE0032083F310887047012004E0012002E0012000E0012083F3108830BC70470882FF1FB484FF1F3884FF1FA83F0000403F00001081FF1F0881FF1F9084FF1F2E
:401F40001C85FF1FF0B4184B19880B0A174AD356B3F1FF3F01D1535601E008335BB2144D55F82320134850F82200134E56F8224045F82340114D2F6846F822702A60B4F17A
:401F8000FF3F09D10E4A42F82340012202FA03F321EA0301044B19800A4B19680A4A42F820101860F0BC70478C84FF1FB03D0000C881FF1FBC84FF1F4081FF1F8884FF1FB0
:401FC0008881FF1F0882FF1F0C82FF1F0C4B1A88130A0C49CB56B3F1FF3F01D18B5601E008335BB2B3F1FF3F06D0074A52F82320064B53F8220070474FF0FF30704700BF2D
:402000008C84FF1FB03D0000C881FF1FBC84FF1F30B4144B53F82020134C2368134951F823502560124C44F823004FF0FF3441F82340104951F82210A1420AD10E4951F86E
:4020400020400E480188214301800D4941F8223002E0064840F82130064941F8223030BC704700BF5881FF1F8884FF1F4081FF1FBC84FF1F8881FF1FA83F00008C84FF1FCC
:40208000C881FF1F10B150F8210070474FF0FF30704700BF0122014B1A60FEE7B084FF1F70B50546124B53F8306000241CE0104B03EBC50321465868FFF7E4FF0D4A52F85A
:4020C0002030013B42F820300B4B53F82030032B07D10222084B43F820200022074B43F82020FFF795FF0134B442E0D370BD00BFB03E00007081FF1F2482FF1F7084FF1FCB
:4021000018B908B5FFF7CCFF08BD7047194B1A4ADA621A4A9A631A4ADA63EFF3108272B6184B1B6813BB10B5044600F0EFF8164B1C600122134B1A602046FFF7E1FFFFF78E
:4021400045FFB0F1FF3F0ED0104B53F82030104A11680B43136000220E4B43F82020FFF7F1FE00F011FC62B6FFF794FF82F31088072070470080FF1F492900000D2900002A
:402180002D010000B084FF1F2485FF1F783F00009084FF1F2482FF1F08B5EFF3108272B60D4B19680D4B1B6863B90D4B53F82130B3F1FF3F08D14FF0FF300A4B43F8210034
:4021C000002002E0022000E0062010B9084600F034FC82F3108808BD0882FF1FB484FF1F1081FF1F2881FF1F70B53C4B1A683C4B1B68EFF3108572B601285BD8394951F83A
:402200002010002958D0384951F82210884255D153B9B2F1FF3F53D0344C54F82260344C54F82040A6424DD8002B4DD1314C54F821402D4941F8224000212A4A42F8201017
:402240002D4A52F820102D4A1160002B3ED1234B1C68FFF7BBFEB0F1FF3F39D0234B53F82030264A1268934234D9B4F1FF3F03D00221234B43F82410224B53F820301343D9
:402280001E4A136000221E4B43F82020FFF75AFE1D4B53F820304BB100241B4B43F8204040F0004000F070FB204614E000F06CFB002010E003200EE005200CE005200AE00E
:4022C000012008E0012006E0012004E0002002E0002000E0002085F3108870BD0882FF1FB484FF1F3884FF1F1081FF1FA83F0000403F00000881FF1F1C85FF1F9084FF1FE5
:402300002482FF1F783F00004084FF1F38B50D4B1D68EFF3108472B600F0E6FA0A4A136843F07F431360094B2B6407210020FFF79DF9074A136843F00103136084F3108895
:4023400038BD00BF08ED00E020ED00E00107000000E100E0024B1878C0F30010704700BF01510040024B1878C0F3C000704700BF01510040044A137803F0DF03400100F03F
:40238000200018431070704730510040014B1870704700BF79650040014B1878704700BF7965004008B500F097FA0A4A137843F0200313700B32137843F010031370043A0D
:4023C000137843F01003137000F08AFA00F0E2F808BD00BF94640040014B1878704700BF6F640040014B1878704700BF6B640040034B1B7813F0040FFAD0024B187070477C
:402400006F6400404F64004008B501E00A4B1B780A4B1B7813F0200FF8D100F05DFA084B1A7842F001021A701A7802F0FE021A7000F056FA08BD00BF5F6400406B6400405E
:402440009F64004008B50F22064B1A70FFF7DCFFFFF7C2FFFFF7C6FF0023034A1370043A137008BD846400408F64004008B5054B1B7823B9FFF7E6FF0122024B1A70FFF7F2
:4024800091FF08BD9884FF1F044A137803F0F703C00000F00800184310707047C0510040044A137803F0EF03000100F0100018431070704730510040084A137843F0010306
:4024C00013701032137843F00103137002F64D32137843F001031370704700BFA3430040014B1880704700BF044F0040014B1880704700BF064F0040014B1870704700BF54
:40250000034F004008B5194A137843F0020313700232137803F08F0343F010031370144B1A7802F0CF021A701A7842F030021A701A7802F0F0021A701A7842F00F021A7079
:402540006420FFF7CDFF0020FFF7D0FF0020FFF7D3FF084A137843F00103137002F65E32137843F00103137008BD00BF004F00400B4F0040A343004008B5054B1B7823B995
:40258000FFF7C0FF0122024B1A70FFF795FF08BD9984FF1F054A137843F0010313701032137843F001031370704700BFA2430040024A137843F0800313707047736400404E
:4025C000014B1870704700BF03640040014B1870704700BF43640040014B1870704700BF2364004008B50B4A137803F0C00343F0090313702032137843F001031370FF20DD
:40260000FFF7DEFFFF20FFF7E1FF0020FFF7E4FF08BD00BF7364004008B5054B1B7823B9FFF7E0FF0122024B1A70FFF7C1FF08BD9A84FF1F024A137843F080031370704775
:4026400072640040014B1870704700BF02640040014B1870704700BF42640040014B1870704700BF2264004008B50B4A137803F0C00343F0090313702032137843F00103EB
:402680001370FF20FFF7DEFFFF20FFF7E1FF0020FFF7E4FF08BD00BF7264004008B5054B1B7823B9FFF7E0FF0122024B1A70FFF7C1FF08BD9B84FF1F024A137843F080038D
:4026C0001370704770640040014B1870704700BF0E640040014B1870704700BF4E640040014B1870704700BF2E64004008B50B4A137803F0C00343F0090313702E32137838
:4027000043F001031370FF20FFF7DEFFFF20FFF7E1FF0020FFF7E4FF08BD00BF7064004008B5054B1B7823B9FFF7E0FF0122024B1A70FFF7C1FF08BD9C84FF1F024A13788C
:4027400043F08003137070477A640040014B1870704700BF0A640040014B1870704700BF4A640040014B1870704700BF2A64004008B50B4A137803F0C00343F009031370EE
:402780002032137843F001031370FF20FFF7DEFFFF20FFF7E1FF0020FFF7E4FF08BD00BF7A64004008B5054B1B7823B9FFF7E0FF0122024B1A70FFF7C1FF08BD9D84FF1FFB
:4027C000024A137843F080031370704779640040014B1870704700BF0B640040014B1870704700BF4B640040014B1870704700BF2B64004008B50B4A137803F0C00343F024
:40280000090313702232137843F001031370FF20FFF7DEFFFF20FFF7E1FF0020FFF7E4FF08BD00BF7964004008B5054B1B7823B9FFF7E0FF0122024B1A70FFF7C1FF08BD29
:402840009E84FF1F024A137843F080031370704775640040014B1870704700BF05640040014B1870704700BF45640040014B1870704700BF2564004008B50B4A137803F06F
:40288000C00343F0090313702032137843F001031370FF20FFF7DEFFFF20FFF7E1FF0020FFF7E4FF08BD00BF7564004008B5054B1B7823B9FFF7E0FF0122024B1A70FFF73E
:4028C000C1FF08BD9F84FF1F0230800803D000BF01380046FCD17047EFF3108072B6704780F31088704700BF18484FF47F0102680A43026016486FF07F4102680A40026022
:40290000704714484FF080510160704772B611484FF000610160FFF783FA0F48006800F0F3F858B10C4800684FF080730B4A0C490FB40FB46FF00600004700BF6FF00600D6
:4029400062B6004762B600DF08B0704720ED00E01CED00E004ED00E0B884FF1F8929000045290000EFF30880054908600548006880F3088870470248006880F30888704776
:402980007882FF1F6C82FF1F411C8900154A11440968154A136899421AD0F0B444464D4656465F46F0B400B5104C9B002344EFF308851D60116089002144096881F30888D0
:4029C00002BC8E46F0BCA046A946B246BB46F0BC002806DB00B500F08BF802BC8E46FFF7D3BF7047F03F00009484FF1F7082FF1FF0B444464D4656465F46F0B400B5EFF36B
:402A0000038308B48000174901440968164A0244EFF30883136088471448804704BC4FF08070024382F3038801BC8646F0BCA046A946B246BB46F0BC704780000A49014494
:402A40000A6882F3088804BC4FF08070024382F3038808BC9E46F0BCA046A946B246BB46F0BC7047C03F0000D484FF1F712A000010B572B6034B1C68204600F00DF8204696
:402A8000FFF7DBFF0882FF1F08B5024B1868FFF7AFFF08BD0882FF1F10B4104B53F820304FF0FF310BE00E4A52F823200B4941F8202000240B4941F8234019461346B3F1CD
:402AC000FF3FF0D1B1F1FF3F04D0074B53F82120064B1A60084610BC704700BF1081FF1F0881FF1F3884FF1F1C85FF1F9084FF1F08B562B6FFF7C8FF72B600F041F8014B9A
:402B0000186808BDB884FF1F00280BDA20F000400130054B53F82000044B1B68181A18BF0120704701207047F03F00009484FF1F054B53F82020054B53F820309A4201D149
:402B400001207047002070477081FF1F603F000008B5FFF7F7F9084B53F8203043B10022054B43F8202040F00040044B186008BD024B186008BD00BF4084FF1FB884FF1F05
:402B800038B5364B1C680022354B1A60354A52F82430013342F82430334B53F824502046FFF7C6FF012801D0A54204D103222F4B43F8242003E002222C4B43F824202C4B82
:402BC00053F824102B4A136823EA010313602A4B53F82440214B1C60B5F1FF3F0FD0234B53F82530032B07D10222204B43F825200022224B43F825202846FFF709FAFFF784
:402C0000E5F9B0F1FF3F0BD1B4F1FF3F03D00022164B43F8242044F00044194B1C6038BD184B53F82020134B1B689A4208D800220E4B43F8242044F00044114B1C6038BD2C
:402C400000210A4A42F82010094A52F820201343084A1360FFF77CFF38BD00BF0882FF1FA884FF1F7081FF1F2881FF1F2482FF1F783F00009084FF1F0C82FF1F7084FF1F25
:402C8000B884FF1FA83F0000014B1868704700BFDC82FF1F0E4B70B51E460E4C0025E41AA410A54204D056F8253098470135F8E701F024FA084B094C1E46E41AA4100025BE
:402CC000A54204D056F8253098470135F8E770BD0841000008410000084100001041000010B5431E0A44914204D011F8014B03F8014FF8E710BD03460244934202D003F891
:402D0000011BFAE770470000194B10B51C68A36BD3B9182000F088F843F20E33A06303804AF6CD33438041F2342383804EF26D63C3804DF6EC630381052343810B238381DD
:402D400001220023C0E90423A16B0A4C0B6948695C43094A02FB0040A3FB02230132034443F10003C1E9042323F0004010BD00BFDC82FF1F2DF451582D7F954C0CB430B5EB
:402D8000164B0C1E9DB01D6804DA8B232B604FF0FF301EE04FF40273ADF814300CBF234604F1FF33049307934FF6FF7302900690ADF81630209A21AB02A92846019300F019
:402DC0003FF9431CBCBF8B232B6014B1029B00221A701DB0BDE8304002B07047DC82FF1F0EB400B54FF402719CB0ADF814106FF00041049107914FF6FF711DAB02900690FF
:402E0000084853F8042BADF81610006802A9019300F016F9029B00221A701CB05DF804EB03B07047DC82FF1F024B0146186800F04FB800BFDC82FF1F38B50546002944D05D
:402E400051F8043C0C1F002BB8BFE41800F0C1FB1E4A1368114613B96360146030E0A3420DD92268A018834201BF18685B681218226063600C6023E0A24203D813465A687A
:402E8000002AF9D118681918A1420BD12168014458188242196013D110685268014419605A600DE002D90C232B6009E021686018824201BF106852680918216062605C6063
:402EC0002846BDE8384000F085BB38BDA484FF1F70B5CD1C25F0030508350C2D38BF0C25002D064601DBA94202D90C23336046E000F06FFB234B1C681A462146A1B10B6838
:402F00005B1B0ED40B2B03D90B60CC18CD501EE08C420BBF63684B681360636018BF0C4615E00C464968E9E7174C23681BB9304600F016FB20602946304600F011FB431C87
:402F400018D0C41C24F00304A0420DD12560304600F040FB04F10B00231D20F00700C31A0ED05A42E25070BD211A304600F0F8FA0130EBD10C233360304600F02BFB00208D
:402F800070BD00BFA484FF1FA084FF1F2DE9F0478E6882469E420C46914698463ED88A8912F4906F3AD02568096902236F1A656905EB450595FBF3F57B1C43449D4238BF52
:402FC0001D4653050FD52946FFF782FF064698B13A462169FFF784FEA38923F4906343F08003A38113E02A4600F0F5FA064670B921695046FFF720FF0C23CAF80030A389EC
:403000004FF0FF3043F04003A381BDE8F08726613E44266046466561ED1BA560464528BF464649463246206800F0B8FAA36800209B1BA36023681E442660BDE8F0870000DC
:403040002DE9F04F9DB003938B8980461C060D4616460DD50B695BB94021FFF739FF2860286118B90C23C8F80030CDE040236B610023099320238DF82930DFF89CB1302340
:403080008DF82A3037463C4614F8013B1BB9B7EB060910D003E0252BF9D02746F3E74B46324629464046FFF771FF013000F0A780099B4B4409933B78002B00F0A0800023B6
:4030C0004FF0FF3204930793059206938DF853301A930126052221784E4800F051FA671C049B38B14B4A3C46801A06FA00F018430490EFE7D90644BF20228DF853201A07E4
:4031000044BF2B228DF8532022782A2A03D0079A00210A200BE0039A111D12680391002A10DA524243F00200079204900BE027463B780134303B092B03D800FB02320121C1
:40314000F5E701B107923B782E2B1ED17B782A2B0AD1039B02371A1D1B680392002BB8BF4FF0FF33059310E0002319460593781C0A2407463A780130303A092A03D804FBC6
:4031800001210123F5E703B1059103223978224800F0F6F940B14023CBEB000003FA00F0049B013718430490397806221B487E1C8DF8281000F0E4F988B1194B33B9039B40
:4031C000073323F007030833039314E003AB00932A46144B04A94046AFF3008007E003AB00932A460F4B04A9404600F093F8B0F1FF3F824603D0099B5344099342E7AB8900
:403200005B0601D4099801E04FF0FF301DB0BDE8F08F00BFC6400000CC400000D0400000000000008D2F00002DE9F04791461F460A698B6806469342B8BF1346C9F8003009
:4032400091F843200C46DDF8208012B10133C9F800302368990642BFD9F800300233C9F80030256815F0060510D104F1190A07E00123524639463046C04701301AD00135DB
:40328000E368D9F800209B1A9D42F1DB94F843302268003318BF012392060FD5E118302081F843005A1C94F845102244023382F8431003E04FF0FF30BDE8F08704F14302D4
:4032C00039463046C0470130F4D02268D9F80050E36802F00602042A08BF5D1B2269A3680CBF25EAE57500259342C4BF9B1AED184FF000091A344D4509D001232246394673
:403300003046C0470130D5D009F10109F3E70020BDE8F0872DE9F04317460A7E85B06E2A984606460C460C9B01F1430E00F0AE8011D8632A22D009D8002A00F0BB80582A81
:4033400040F0CA8081F84520834955E0642A1ED0692A1CD0C0E0732A00F0B08009D86F2A2ED0702A40F0B8800A6842F020020A603EE0752A24D0782A3AD0ADE01A6801F194
:403380004205111D1960136884F84230A8E021681A6811F0800F02D0111D196008E011F0400F02F10401196002D0B2F9003000E01368002B3CDA2D225B4284F8432037E046
:4033C00021681A6811F0800F02D0111D196007E011F0400F02F10401196001D0138800E01368227E5C496F2A14BF0A2208221BE078225A4984F845202268186812F0800F8F
:4034000000F104051D6003D1550601D5038800E00368D00744BF42F0200222601BB9226822F0200222601022002084F8430001E049490A226568002DA56008DB206820F04C
:40344000040020602BB9002D7DD175460CE0002B79D07546B3FBF2F002FB1033CB5C05F8013D03460028F5D1082A0BD12368DA0708D5236962689A42DEBF302305F8013C77
:4034800005F1FF35C5EB0E0323612EE008681A6810F0800F496903D0101D1860136808E010F0400F02F104001860136801D0198000E0196000232361754616E01A68111D7D
:4034C0001960156800216268284600F059F808B1401B6060636804E004F1420584F8422001232361002384F84330CDF800803B4603AA21463046FFF797FE013002D14FF0C7
:40350000FF3026E023692A4639463046C0470130F5D023689B0710D5002504F1190907E001234A4639463046C0470130E7D00135E368039A9B1A9D42F2DBE068039B98425C
:40354000B8BF184605E00B7804F1420584F842308AE705B0BDE8F083D7400000E840000038B5064C0023054608462360FDF766FF431C02D1236803B12B6038BDF88EFF1FFB
:4035800010B5C9B202449042034605D01C7801308C42F8D1184610BD002010BD884210B501EB020301D8421E0BE09842FBD28118D21AD34204D013F8014D01F8014DF8E7E9
:4035C00010BD994204D011F8014B02F8014FF8E710BD70477047F8B5074615460E4621B91146BDE8F840FFF773BC1AB9FFF724FC2846F8BD00F015F885420ED92946384616
:40360000FFF766FC044650B131462A46FFF768FB31463846FFF710FC01E03046F8BD2046F8BD51F8040C0028BEBF091851F8043CC0180438704700000000000047616D659C
:4036400020416E616C797A65720000000D0A0D0A3D3D3D3D3D3D3D3D3D3D3D3D2057656C636F6D6520746F20746865205265616374696F6E2047616D65203D3D3D3D3D3D0D
:403680003D3D3D3D3D3D0D0A7072657373206F6E65206F66207468652074776F20627574746F6E7320746F2073746172742E2E2E0D0A0D0A000000004772656174202D208E
:4036C000636F727265637420627574746F6E2070726573736564210D0A0000005265616374696F6E2074696D6520696E206D733A2025750D0A0000004F6F7073202D207743
:40370000726F6E6720627574746F6E2070726573736564210D0A00000A546F6F20736C6F77210D0A000000003D3D3D3D3D3D3D3D3D3D3D3D3D3D3D3D3D3D3D3D3D3D3D3DB8
:403740003D3D3D3D3D3D3D3D3D3D3D3D3D3D3D3D3D3D3D3D3D3D3D3D3D3D3D3D3D3D0D0A0000000053636F72653A202575207C20546F74616C2054696D653A2025756D73D9
:40378000207C204176672054696D653A2025756D730D0A005245414354494F4E0A00000047414D450A00000053434F52453A256400000000FF000000F40100FF0000F401EB
:4037C0000000FF00F401000000006400FFFFFF006400000000006400FFFFFF006400000000006400FFFFFF006400000055415254207374617274656400000000203A2000B9
:403800000FB103053C3CB203053C3CB306053C3C053C3CB40103C003280804C101C0C2020D00C3028D2AC4028DEEC5011A3601C0E0100422070A2E30252A28262E3A000142
:403840000313E10F16060D2D26232727252D3B000104133A0105290000000000003E5B4F5B3E3E6B4F6B3E1C3E7C3E1C183C7E3C181C577D571C1C5E7F5E1C00183C18008D
:40388000FFE7C3E7FF0018241800FFE7DBE7FF30483A060E2629792926407F050507407F05253F5A3CE73C5A7F3E1C1C08081C1C3E7F14227F22145F5F005F5F06097F01A6
:4038C0007F006689956A606060606094A2FFA29408047E040810207E201008082A1C08081C2A08081E101010100C1E0C1E0C30383E3830060E3E0E06000000000000005F4F
:4039000000000007000700147F147F14242A7F2A12231308646236495620500008070300001C2241000041221C002A1C7F1C2A08083E08080080703000080808080800002C
:4039400060600020100804023E5149453E00427F400072494949462141494D331814127F1027454545393C4A49493141211109073649494936464949291E000014000000ED
:403980004034000000081422411414141414004122140802015909063E415D594E7C1211127C7F494949363E414141227F4141413E7F494949417F090909013E4141517329
:4039C0007F0808087F00417F41002040413F017F081422417F404040407F021C027F7F0408107F3E4141413E7F090909063E4151215E7F09192946264949493203017F0125
:403A0000033F4040403F1F2040201F3F4038403F631408146303047804036159494D43007F4141410204081020004141417F04020102044040404040000307080020545459
:403A400078407F284444383844444428384444287F385454541800087E090218A4A49C787F0804047800447D40002040403D007F1028440000417F40007C047804787C086B
:403A80000404783844444438FC1824241818242418FC7C08040408485454542404043F44243C4040207C1C2040201C3C4030403C44281028444C9090907C4464544C440093
:403AC000083641000000770000004136080002010204023C2623263C1EA1A161123A4040207A385454555921555579412254547842215554784020545579400C1E5272129D
:403B00003955555559395454545939555454580000457C410002457D420001457C407D1211127DF0282528F07C545545002054547C547C0A097F4932494949323A444444AC
:403B40003A324A4848303A4141217A3A42402078009DA0A07D3D4242423D3D4040403D3C24FF2424487E4943662B2FFC2F2BFF0929F620C0887E0903205454794100004462
:403B80007D413048484A32384040227A007A0A0A727D0D19317D2629292F28262929292630484D4020380808080808080808382F10C8ACBA2F102834FA00007B0000081462
:403BC0002A142222142A14085500550055AA55AA55AAFF55FF55FF000000FF00101010FF00141414FF001010FF00FF1010F010F0141414FC001414F700FF0000FF00FF149C
:403C000014F404FC141417101F10101F101F1414141F00101010F0000000001F101010101F10101010F010000000FF101010101010101010FF10000000FF140000FF00FFB8
:403C400000001F10170000FC04F414141710171414F404F40000FF00F714141414141414F700F7141414171410101F101F141414F4141010F010F000001F101F0000001F8A
:403C800014000000FC140000F010F01010FF10FF141414FF141010101F00000000F010FFFFFFFFFFF0F0F0F0F0FFFFFF0000000000FFFF0F0F0F0F0F3844443844FC4A4A67
:403CC0004A347E02020606027E027E0263554941633844443C04407E201E2006027E020299A5E7A5991C2A492A1C4C7201724C304A4D4D303048784830BC625A463D3E4988
:403D00004949007E0101017E2A2A2A2A2A44445F444440514A444040444A51400000FF0103E080FF000008086B6B083612362436060F090F06000018180000001010003018
:403D400040FF0101001F01011E00191D1712003C3C3C3C000000000054465400427566666572206F766572666C6F7700004F00400C0040510040300000000140800E000F1E
:403D80000140000100140140000800400140000A004C01400002005001402000605200405C0900480600800E0140640900488000FF000101020202020303030303030303CF
:403DC0000404040404040404040404040404040405050505050505050505050505050505050505050505050505050505050505050606060606060606060606060606060683
:403E000006060606060606060606060606060606060606060606060606060606060606060606060606060606060606060606060607070707070707070707070707070707F2
:403E40000707070707070707070707070707070707070707070707070707070707070707070707070707070707070707070707070707070707070707070707070707070782
:403E800007070707070707070707070707070707070707070707070707070707070707070707070707070707070707070707070701000000B83E00000000000000000000BB
:403EC000020000000000000000000000FFFFFFFF00000000050000000000000000000000FFFFFFFF00000000040000000000000000000000FFFFFFFF0000000000000000C3
:403F000000000000000000000100000000000000000000000200000000000000000000000100000002000000000000000100000002000000A0860100010000000000000050
:403F40004000000040000000000000000000000000000000010000000000000000000000010000000100000001000000010000000100000001000000800000000100000039
:403F8000200000004000000004000000040000000100000002000000040000000800000000000000010000000100000001000000200000004000000004000000040000001F
:403FC000AD0000001D01000051050000750300002106000099070000892A0000892A0000892A0000892A0000892A0000892A0000000000000000000000000000000000002F
:40400000010000000000000000000000616C726D5F5469636B316D00616C726D5F676C6F77657200616C726D5F7466740000000065765F627574746F6E4C656674000000F6
:4040400065765F627574746F6E5269676874000065765F74696D656F7574000065765F72616E646F6D446F6E650000007265735F726E64007265735F6F75740074736B5F4B
:40408000696E69740000000074736B5F6261636B67726F756E64000074736B5F74696D657200000074736B5F67616D650000000074736B5F7466740074736B5F676C6F77F5
:4040C000657200004300232D302B2000686C4C006566674546470030313233343536373839414243444546003031323334353637383961626364656600000000F8B500BF47
:40410000F8BC08BC9E4670474D000000B9140000F8B500BFF8BC08BC9E4670472900000030410000C880FF1F18020000200C0000000000000100000000000000000000008C
:4041400000000000FFFF0000008FFF1F0000E02EC05D00001800000000366E010C400000184000002440000000000000FFFFFFFFFFFFFFFFFFFFFFFFFFFFFFFFFFFFFFFFB8
:40418000FFFFFFFFFFFFFFFFFFFFFFFFFFFFFFFFFFFFFFFFFFFFFFFFFFFFFFFFFFFFFFFFFFFFFFFFFFFFFFFF0100000002000000030000000400000005000000FFFFFFFF1C
:4041C000000000000000000005000000060000000200000002000000010000000100000001000000010000000100000001000000FFFFFFFFFFFFFFFFFFFFFFFFFFFFFFFFBA
:40420000FFFFFFFFFFFFFFFFFFFFFFFFFFFFFFFFFFFFFFFFFFFFFFFFFFFFFFFFFFFFFFFFFFFFFFFFFFFFFFFFFFFFFFFFFFFFFFFFFFFFFFFFFFFFFFFFFFFFFFFFFFFFFFFFBE
:40424000FFFFFFFFFFFFFFFFFFFFFFFFFFFFFFFFFFFFFFFFFFFFFFFFFFFFFFFFFFFFFFFFFFFFFFFFFFFFFFFFFFFFFFFFFFFFFFFFFFFFFFFFFFFFFFFFFFFFFFFFFFFFFFFF7E
:40428000FFFFFFFFFFFFFFFFFFFFFFFF0300000003000000030000000300000003000000030000003040000040400000504000005C4000006C400000744000007C400000C0
:4042C0008840000098400000A4400000B0400000B8400000F88EFF1F00000000D08CFF1F000000000000000000000000000000000000000000000000000000000000000034
:4043000000000000C4400000000000000000000000000000000000000000000000000000000000000000000000000000000000000000000000000000000000000000000079
:40434000000000007C82FF1F000000000000000000000000000000000000000000000000000000000000000000000000000000000000000000000000000000000000000021
:4043800000000000000000000000000000000000000000000000000000000000000000000000000000000000000000000000000000000000000000000000000000000000FD
:4043C00000000000000000000000000000000000000000000000000000000000000000000000000000000000000000000000000000000000000000000000000000000000BD
:40440000000000000000000000000000000000000000000000000000000000000000000000000000000000000000000000000000000000000000000000000000000000007C
:40444000000000000000000000000000000000000000000000000000000000000000000000000000000000000000000000000000000000000000000000000000000000003C
:020000040003F7
:0200000480007A
:40000000024F00400652004003640040016500405600014032010140670201404E0301405504014048050140040601400D0701404B08014040090140630A0140490B0140DA
:40004000160D0140220E01402F0F014002170140311801403C1901400C1B0140024001400E4101400642014009430140044401400845014004460140034801400F4C014057
:400080000F4D0140075001400151014001400A2700400140083909AC10111131810F840F88388872000608070C020E04140215011702180219041A051C041D0420062106F1
:4000C00023012402260428042A022C012E02320735073B2040614103450C46E047B0482949FF4AFF4BFF4EF04F44500C5280580459045A045B045D235F0166C06A406B02D6
:4001000084068601870289028A069202960399019E01A302A605A702A902B207B301B702BA08BF44C002C640C9FFCA07CBFFCC40CD20CEF0CF05D008D401D804D904DA041B
:40014000DB04DC03DD33DF01E040E1A8E240E320001003410518084009200A200D020E100F0210201110120113011620181019041E10212026442A012D082E123040312488
:4001800036203E203F144212471049204A104B1452225510560257015C025EA873408440C06BC2B7C42FCAE1CC2ECE60D02AD204D6F0E608030107040903140119032202A9
:4001C000240125022B043202330334013504382039083E103F044030410645014620480949FF4AFF4BFF4DA04F0450185280580459045A045B045C225D225F01604062C0E4
:400200006440654066C068C06AC06CC06EC0820C840C86038702881089018C108F04920393019401960E981099019D01A302A401A606A708AA08AD01B010B101B20FB308ED
:40024000B504B702BA08BE01BF01C030C106C510C702C812C9FFCAFFCBFFCDA0CF04D018D280D804D904DA04DB04DC23DD22DF01E040E2C0E440E540E6C0E8C0EAC0ECC0C4
:40028000EEC000100108028109210A100F101010112016A019081A401D081F242080211523022610271029412A042D082F043020334134103520372039183B403D023E1032
:4002C0003F0A4104450849014A084F2852085710710276808102820485108610870290109210934495109620970199049A039D389F51A130A202A301A420A912AA01B00229
:40030000B120B220B410C00FC22EC436CA6BCC2DCEEED042D224E002E408EA04EE02041C05020622070D09D00DD00E03104011D0142C1520161117D0180919291A101B86F3
:400340001DD02125234A24302513260C272C28102C142DD0301F33F03460350F38203B2856025724580459045B045C035F018503870489038B0492019503970C9A019B086E
:40038000A202A305A50AA704B002B30FB401BB08C040C106C501C620C809C9FFCAFFCBFFCDA0CF04D018D280D804D904DA04DB04DC31DD11DF01E040E2C0E440E540E6C090
:4003C000E8C0EAC0ECC0EEC0004001080A140B800D020F08112812021680184019101A041D021F102004210825042604272029442A012D082E022F403128334135103604CA
:40040000380439903E103F0445024F2857106004682069106B417140730176808E1092109304951096209701990C9A039D509F61A130A202A420A910AAC0AF30B040B101FF
:40044000B220C005C25EC417CACBCC6FCE6ED080D220D804E804EC8039083F0459045F0127208320871090409320AD40AF01B110B420B540B740E802EC0800060209041002
:4004800008100B800F801144120113311406156718071A081C0F1D011F0E20102402280929672A062C042D222F51301031603208338034073518370738083F1440644103CC
:4004C0004205440246CE480C49FF4AFF4BFF4C624DA04EF04F41500C5418580459045A045B045C335D335F016640670269106A306B106D106E106F1283018C01B301B60171
:40050000BE40D280D804D904DB04DC10DD10DF01014004280525080109020C080D420E0815101602170918011C101D1223102510268A2DA0300432083480350436823842B3
:400540003B403C103F80451247044D104E044F4057505E0264046540700181408304971099409D10A710AA04AB01AC41AF04B020B108B530B688B702C071C2F0C4F0CA3074
:40058000CCD0CE31D0E0D230D680D830E890EC100405060A0702080E0B020F011C031E041F012304240426093102320F3301370438084010410346014702481449FF4AFFB4
:4005C0004BFF4DA04F0450185280580459045A045B045C105D115F01604062C06440654066C068C06AC06CC06EC08004840485048A028C048D018F06920495079602990172
:400600009A049B069C049F03A104A201A601A704A801A904AD04B001B404B602B707BB80BE51C060C105C612C80CC9FFCAFFCBFFCDA0CF04D018D440D804D904DA04DB04D0
:40064000DD01DF01E040E2C0E440E540E6C0E8C0EAC0ECC0EEC00010031005180680070208800C410E080F2813081480171818101C401D401F10202121812540268027016A
:4006800029012C402D282E8031803480371838883A103D803F04400141044C044F905040510456105740662067227101841085018E80944098809A209B189C619D089E8882
:4006C0009F01A304A510A980B002B380C0F6C2F1C474CAF1CC78CE5ED00AD230D870E008E240E402E820EC208508944098809A209B189C639D889E889F81A304A518A81090
:40070000AA04AB10AD80B104B308B480B520E408E810EC85060307010A0217011C012603320337014030410246204701481849FF4AFF4BFF4DA04F045018580459045A0412
:400740005C205D025F01604062C06440654066C068C06AC06CC06EC0001003100520071108800C410D040E0813081420168A18101E08218027102C012D282F803108344012
:40078000371938083D203E084118448047984D0450045110562257845C425D045E20658086108780C0E6C2F1C4F4CAF0CCF2CE62D0F6D6F0D810A840EC04001F011002205B
:4007C000040205080833097F0A0C0C080D1C0F6112231363143F151C1762181C19401A231C011D601E402003230424042518280C29672B182D24302C3160320F331F34102B
:4008000036403A0A3B283E1056025712580459045B045C335D305F01DB04DF0104100501061207100C010E29148017281C101D011E441F442510261527042D882F44348152
:40084000360437103D203E4A5E04680169056A106C146F01700171107220730174087508760A77287C107E0483019428960898819A109D819E029F0DA408A605A940B21242
:40088000B441B510C0F0C2F0C470CAF0CCF0CEF0D640E00189808A0196019D80A910AA10AD05B001B220B401E809EC063380CC1007080B105A02641084109202A780AE01AE
:4008C000C080C210D640D880E640EE405308AF88B310D420E810EE101B086B8083808620A708C610DC20E280E64070047D40DC01DE045602620867408602A804A940D604D5
:40090000D803860887409740A6085220A220D4205001512057205E015F806008630166088380A008B408D407D607D803EC08110174088901A008A801AB01AE09B008B120E6
:40094000B720C408DE04E601E803EC01000F080D0A0B0C0B0E0510081C080003A084000040000000000000000A0A1000070838020400000004080000560C09030101000838
:40098000040A0000040200000002040804030004600800020000000F7F000000200000080000000023041000000EFCBD3DFFFFFF2200F0080400000009000000040404047B
:4009C000000000010000C00040011011C0010011400140010000000000000000000000000000000018C0C000C0000000800040BCBC00B40000000000000404000400000030
:400A000000FFFF00FF0000000031310031000000003838000800000000000000000000000000000000000000000000000000000000000000000000000000000000000000AE
:400A40000000000000000000000000000000000000000000000000000000000000000000000000000000000000000000000000000000000000000000000000000000000076
:400A80000000000000000000000000000000000000000000000000000000000000000000000000000000000000000000000000000000000000000000000000000000000036
:400AC00000000000000000000000000000000000000000000000000000000000000000000000000000000000000000000000000000000000000000000000000000000000F6
:400B000000000000000000000000000000000000000000000000000000000000000000000000000000000000000000000000000000000000000000000000000000000000B5
:0200000490006A
:0400000000004007B5
:0200000490105A
:04000000BC90ACAF55
:0200000490303A
:0200000066DBBD
:0200000490402A
:4000000000000000000000000000000000000000000000000000000000000000000000000000000000000000000000000000000000000000000000000000000000000000C0
:400040000000000000000000000000000000000000000000000000000000000000000000000000000000000000000000000000000000000000000000000000000000000080
:400080000000000000000000000000000000000000000000000000000000000000000000000000000000000000000000000000000000000000000000000000000000000040
:4000C0000000000000000000000000000000000000000000000000000000000000000000000000000000000000000000000000000000000000000000000000000000000000
:0200000490501A
:0C00000000012E16106900012E3177441B
:00000001FF