:400000000080002011000000551000005510000008B5044B1A6803F53F5302331A6001F039F800BFFA46004010B5054C237833B9044B13B10448AFF300800123237010BD7B
:40004000C082FF1F00000000C0300000084B10B51BB108490848AFF300800848036803B910BD074B002BFBD0BDE81040184700BF00000000C482FF1FC0300000C880FF1F30
:400080000000000008B562B645F6BF52054B1A60054A136843F002031360002001F008FEFBE700BF14E000E010E000E008B500F0F9FB01F09DF800F015FE00F067FC00F017
:4000C000F3F801F063FE094A136843F00503136001220221104601F069F9022001F0F2F8012001F0EFF801F029FE08BD10E000E000B583B000230193084801F093F80F201B
:4001000001F0F8FB01A9022001F054FB019801F023FB019800F07AFAF1E700BFC430000008B50121084600F0D3FA0121084600F013FB01F003FE08BD08B501F0FFFD08BD21
:4001400000BFFDE708B5002001F0AEFA08BD00BF684620F007018D4619B572B6EFF311841E4B1B68DBB20F2B10D9103B23F0030202F1604202F564421168DB0003F0180349
:40018000E0229A400A4022FA03F306E00F2B03D1134B1B681B0E00E0002383F31188114A136801331360012B01D102F01BF962B6FFF7C8FF72B684F3118801F08BFC094A9E
:4001C0001368013B13601BB902F015F902F0D9F862B6BDE819408546704700BF04ED00E020ED00E0A484FF1F08B5002000F086FB20B10121022001F0FDFA08BD012000F0C2
:400200007DFB18B10221084601F0F4FA08BD00BF684620F007018D4619B572B6EFF311841E4B1B68DBB20F2B10D9103B23F0030202F1604202F564421168DB0003F0180310
:40024000E0229A400A4022FA03F306E00F2B03D1134B1B681B0E00E0002383F31188114A136801331360012B01D102F0BBF862B6FFF7BAFF72B684F3118801F02BFC094AAC
:400280001368013B13601BB902F0B5F802F079F862B6BDE819408546704700BF04ED00E020ED00E0A484FF1F10B50024084B1C60084AD36843F08073D360074B5C601A68B5
:4002C00042F001021A6000F00DFB204610BD00BFDC82FF1FF0ED00E0001000E020B370B4044623B3012903D0032901D0042900D102B3187808B3052922D809B1022900D14F
:400300000AB314480579092D20D86E1C067100EB8500846000206060217160712360A060E0602061626113E06FF0010070476FF001000DE06FF001000AE06FF0130007E05F
:400340006FF0130004E06FF0130001E06FF0070070BC7047DC82FF1F08B310B504464379012B1FD00379032B03D0012B01D0042B03D16369CBB1012098472279931EDBB2D0
:40038000012B03D80A4B1B68A36004E0012A02D8084B5B68A36001236371002010BD6FF0010070476FF0090010BD6FF0010010BDDC82FF1F001000E0C3688268934204D3CE
:4003C00001699B1A0B44036103E001699B1A0B4403610020704700BF40B338B503464279013AD2B2012A24D801798A1ED2B2012A03D8134A1268C26004E0012902D8114A2E
:400400005268C2601C461846FFF7D6FF05462379032B03D0012B01D0042B03D163695BB10020984703236371284638BD6FF0010070476FF0160038BD6FF0010038BD00BFA4
:40044000DC82FF1F001000E003690248A0FB0330400A7047F119760500B583B001A9002001F0DAFA019802F08FF902F0B5F90A4981FB0031C317C3EBE1114FF4FA6303FBC4
:40048000110101F57A71002289B2032000F08EFF002003B05DF804FBD34D621010B586B000F0CCF90C4C63899BB201339BB2638100224FF47A71042000F078FF63899BB2D9
:4004C000064A142101A802F0C1F901A800F0AAFE002006B010BD00BF0C83FF1F3031000030B591B001F098FC5B2820D1134800F099FE134D2846FFF7A7FF0346114A3C2105
:4005000001A802F0A3F901A800F08CFE0E4C237B0133DBB2237323899BB201339BB223812846FFF791FF63681844606002E0074800F078FE002011B030BD00BF3C31000088
:400540008084FF1F603100000C83FF1F7C31000030B591B001F060FC062820D1134800F061FE134D2846FFF76FFF0346114A3C2101A802F06BF901A800F054FE0E4C237B1D
:400580000133DBB2237323899BB201339BB223812846FFF759FF63681844606002E0074800F040FE002011B030BD00BF3C3100008084FF1F603100000C83FF1F7C310000BD
:4005C00030B595B00E4C002565816368227BD2B2B3FBF2F223896168019200919BB2094A462102A802F032F902A800F01BFE064800F018FE2389DBB26373284615B030BD51
:400600000C83FF1F9C310000CC31000010B504462A4B5B899BB22BB9294B002211462948FFF75CFE254B1B78DBB2012B0CD013B1022B15D03FE014F0030F3CD0FFF70CFF4C
:4006400001221E4B1A7036E014F0080F33D0FFF725FF0222194B1A701A48FFF77DFE2AE014F0010F04D01748FFF7B6FEFFF738FF14F0020F04D01348FFF7AEFEFFF768FFC6
:4006800014F0040F05D00F48FFF7A6FE0E4800F0C9FD00220B4B1A6100F00EF90B4800F0C1FD064B5B899BB20A2B01D1FFF788FF0022024B1A70002010BD00BF0C83FF1F0E
:4006C000083200008084FF1F18320000CC31000008B5034608B9002935D0B1FBF3F101B901211C4A136801331360B3FBF1F201FB123159BB174B5B68D8B21B0A012B03D0B7
:400700008BB1022B05D009E0C3430146D8B200220BE0C143C9B20246002006E0C043C2B20020014601E00022114692B289B200F061F9084A536801335360B3F5806F07D37B
:400740000020506008BD6FF0130008BD002008BD002008BD1C83FF1F70B5044608B9002949D0284B1B7AA3B9264BDB6803EB43035A00254B1A4493882344013B93FBF4F30D
:40078000224A136013B90122204B1A6001221D4B1A721C4A1369013313611C4A1168B3FBF1F201FB12334BBB164DEB68164E5A00D0184100084631448A784978305C00F08F
:4007C00005F9EB680133EB60082B01D90022EA600C4BDB6803EB43035A000B4B1A4493882344013B93FBF4F4084B1C6044B901221A60002070BD6FF0130070BD002070BDFE
:40080000002070BD1C83FF1F24320000CC80FF1F10B50446013000F005FD064800F002FD04F1110000F0FEFC034800F0FBFC002010BD00BF6C3200005C31000010B501F0D0
:40084000CBFF104B184003D5013860F0010001300130C0B2012803D0022803D0802402E0062400E05B24002001F0C4FA204601F0CDFA012001F0BEFA204601F0C7FA0020CE
:4008800010BD00BF0100008008B5FF22044B1A5401F0B0FA002001F0B9FA002008BD00BFD080FF1F08B50020FFF7EEFF0120FFF7EBFF002008BD00BF08B5094BFF221A70FE
:4008C0005A70002001F096FA002001F09FFA012001F090FA002001F099FA002008BD00BFD080FF1F08B5002000F02EFC002000F037FC002000F040FC08BD00BF08B510B109
:40090000012806D00BE001F06DFA012809D0002008BD01F05FFA012805D0002008BD002008BD012008BD012008BD00BF38B504460D46032824D8DFE800F00209101E084602
:4009400000F002FC104B1D55002038BD084600F007FC0D4B1D55002038BD084600F00CFC094B1D55002038BD29462046FFF7DEFF0134E4B200E00024022CF5D9002038BDDE
:400980006FF0130038BD00BF3083FF1F38B50024254609E000210C4B19552046FFF7C6FF00B105460134E4B2022CF3D901F074FB01F0B4FB01F0F4FB01F0B8FC01F074FC2D
:4009C00001F030FC284638BD3083FF1F70B50E461546074C14F8100001F004FC14F8160001F042FC14F8150001F080FC002070BD7032000038B50D461446C0B201F02CFB80
:400A0000E8B201F06BFBE0B201F0AAFB002038BD38B5134B988908B319461C89631C9BB2104AA2FB03525209642505FB12330B810138888101EB44018B7B13B1012B04D053
:400A400006E0002001F060FA02E0012001F05CFA034B03EB4404E07B01F00AFA38BD00BF3483FF1F1F85EB5130B5ABB01B4B9B89632B17D92AAD032305F8A83D184B186894
:400A8000CDF80100174C0FCCCDF81100CDF81510CDF81920CDF81D302846FFF7B9FE6FF0070019E00D4D6C89621C92B205EB4404A073E1730C49A1FB02014909642000FB73
:400AC00011226A8101339BB2AB81012B03D1FFF79FFF002000E000202BB030BD3483FF1FC8390000CC3900001F85EB512DE9F04180460E4617461D462A210020FFF7B4FFBF
:400B000000210120FFF7B0FF194C94F8D6104144C9B20120FFF7A8FF00210120FFF7A4FF94F8D6103944C9B20120FFF79DFF2B210020FFF799FF00210120FFF795FF94F8EF
:400B4000D7103144C9B20120FFF78EFF00210120FFF78AFF94F8D7102944C9B20120FFF783FF2C210020FFF77FFFBDE8F08100BF3483FF1F10B5044636210020FFF774FFCB
:400B800004F003002A4B83F8D80003284ED8DFE800F00215283BC2210120FFF765FF244BA022A3F8DA208022DA8093F8DC2083F8D62093F8DD2083F8D72010BDA221012031
:400BC000FFF752FF1A4BA022DA808022A3F8DA2093F8DC2083F8D72093F8DD2083F8D62010BD08210120FFF73FFF114BA022A3F8DA208022DA8093F8DC2083F8D62093F887
:400C0000DD2083F8D72010BD62210120FFF72CFF074BA022DA808022A3F8DA2093F8DC2083F8D72093F8DD2083F8D62010BD00BF3483FF1F2DE9F0411F46BDF818501F4B88
:400C4000B3F90630834236DD90461C4AB2F8DA20914230DA00EB0804013C9C4202DB1B1A0FFA83F87B18013B9A4201DC571A3FB2C0B2C9B2CB19013B00EB0802013ADBB2A1
:400C8000D2B2FFF733FF2E0AEDB2012001F03CF90FE031460220FFF7E7FE29460220FFF7E3FE013C24B200E04446002CF1DC013F3FB2002FF8DCBDE8F08100BF3483FF1F4B
:400CC00000B583B0064AB2F9DA30B2F90620009000210846FFF7AEFF03B05DF804FB00BF3483FF1FF8B5364B8022DA80A022A3F8DA20002483F8D840A3F8DE40A3F8E0404D
:400D000001251D714FF6FF72A3F8E220A3F8E4405D711C6083F8DD4083F8DC4083F8D64083F8D7401C815C819C8101F0DFF8284601F0F6F8642000F097FA204601F0F0F861
:400D4000642000F091FA284601F0EAF8142000F08BFA29462046FFF787FE322000F084FA11212046FFF780FE782000F07DFA0F22144D14E02C4614F8021B0020FFF774FEC6
:400D80006A78254606E06E1C29780120FFF76CFE22463546531EDCB2002AF4D13A46531EDFB2002AE6D10220FFF7E4FE0020FFF787FF01F021F9642001F0D8F8F8BD00BFC6
:400DC0003483FF1F71340000FEE700BFF0B40022174611E050F82760F3B226F0FF0608E001EB420511F812406D78A5550132013BDBB2002BF4D10137222FEBD9F0BC704741
:400E0000064B1B78DBB203F00701054A11701B09013213704422034B1A707047CF0100496E5800407658004008B50A46002101F0A2FC08BD38B500242C4B1C805822023325
:400E40001A70022202331A80182329490B7002310A8002310B70192502310D8002310B7041F2BF200231088002310B70214B1A7008224FF040231A70032103F500731970D7
:400E80001D4B1B78DBB21D490B701D4B1A8041F25122023B1A800CE01A4B1B7803F0010343EA440404F003044FF4F07001F04CFA013D0DB1032CEFD115B90320FFF784FFD0
:400EC000114B4FF480721A8007221A7000220F490A704820023108701A700222033B1A700B4A137843F01F03137038BD80400040864000400043004008010049A1460040E8
:400F000022420040254200400440004006400040A243004008B501F023FC08BD38B572B600240CE0374D630019194A0011462A44084691882858FFF777FF0134E4B2072C07
:400F4000F0D900240BE02F48A20011194B0003441A8F596B186BFFF7DDFF0134E4B2012CF1D929494FF09040FFF730FF274A137843F0020313701032137843F0020313705B
:400F8000234C237843F040032370A2F58632513A137843F01003137008221E491E48FFF7B9FF0A221D491E48FFF7B4FF08221D491D48FFF7AFFF08221C491D48FFF7AAFF7E
:400FC00008221C491C48FFF7A5FF08221B491C48FFF7A0FF1B4A137843F0080313701A4D61232B70FFF726FF81232B700122174B1A70FFF705FF0E2221461548FFF78AFFD0
:4010000038BD00BFDC3900008C00004803500140A0430040E409004802510040EC090048C0510040F8090048F2510040000A004812510040080A004822510040100A0048D6
:4010400032510040224300400048004004000840B043004008B501F057FB03680C2B00D1FEE7FEE708B5094B1A681044084BC31A802B02DC054B186005E001F045FB0C2317
:4010800003604FF0FF32104608BD00BFD480FF1F088FFF1F08B5104E104D16E029686B68AC68002204E051F8040B43F8040B0432A242F8D1E868002203E0002143F8041B1B
:4010C00004328242F9D11035013E002EE6D101F021FBFEF7D7FFFEE701000000DC3D000008B5104A104B1A60104A136843F40073136000230AE0032B03D80D4A52F8231024
:4011000000E00C490C4A42F8231001332F2BF2D90A4B1A780A4B1A70074A0A4B1A60FFF7FDFE08BD0004FA050CED00E014ED00E000000000551000000080FF1FBC76004090
:40114000C080FF1F08ED00E0044A137803F0BF03800100F0400018431070704700510040044A137803F0FE0300F0010018431070704700BF20510040044A137803F07F03CC
:40118000C001C0B218431070704700BF005100407222084B1A702022A3F580731A700622673B1A70472210331A70002250331A70704700BF8865004010B501F0CDF8044631
:4011C0000A4A137843F020031370A2F58072137843F010031370073A137843F01003137000F032F8204601F0BBF810BD9865004008B5054B1B7823B9FFF7CAFF0122024BEC
:401200001A70FFF7D9FF08BD1A84FF1F034B1B7813F0040FFAD1024B18707047616400404064004038B5074B1B782BB938BDFFF7EDFF0134A4B201E005460024285D002889
:40124000F5D138BD1A84FF1F054A137843F0080313701032137843F008031370704700BFA243004001BE704710B5044605E0084B186801F069F8A4F50044B4F5004FF6D801
:40128000034B586800FB04F001F05EF810BD00BFD880FF1F38B504460D46072902D90020FFF7E0FF1F2C02D90020FFF7DBFF04F01F0000F1604000F564406D01EDB2057089
:4012C00038BD00BF38B5EFF3108572B604284ED82D4B53F82030002B4BD02B4A013B42F820302A4B53F82030032B07D10222274B43F820200022264B43F8202000F05AFC4D
:40130000244B1B68002B36D1234B1C6800F030FCB0F1FF3F31D0214B53F82020204B1B689A422CD9B4F1FF3F03D00221174A42F824101C4A52F820201343194A13600022EF
:40134000124B43F8202000F0CFFB174B53F820304BB10024144B43F8204040F0004001F053F820460CE001F04FF8002008E0032006E0042004E0002002E0002000E0002053
:4013800085F3108838BD00BF5C81FF1F0882FF1F4C84FF1FA484FF1FF081FF1F5C3C00006884FF1F303C00002484FF1FF8B5EFF3108472B6042825D800EB4005AB00184D7B
:4013C000EB5803EB4306B500164E75598D421BD34AB103EB43039E00124B1E44B3689A4214D3954214D3A9B103010F4DEB589BB90301EE180127EF507260013900F086F86B
:4014000000200AE0032008E0082006E0082004E0082002E0082000E0072084F31088F8BD903B0000F43B0000A48CFF1F18B108B5C368984708BD704708B508B1406800E02E
:401440000020042816D80C4B53F8203093B10A4A013B42F82030094B53F82030032B07D10222064B43F820200022054B43F8202000F0A0FB08BD00BF5C81FF1F0882FF1F5E
:401480004C84FF1F18B1034640689B6801E00023184604281DD80F4A52F82020CAB10E4A52F82010032914D010B50C4C54F820201A4344F820200A4A52F82020134207D032
:4014C000012905D10222044B43F8202000F072FB10BD7047083C00000882FF1F4C84FF1F3884FF1F80B108B50378012B06D013B1032B06D008BDFFF79FFF08BDFFF7C2FF61
:4015000008BDFFF793FF08BD704700BF30B400EB40029300214AD258214B03EBC2035C68B4F1FF3F04D11E4B03EBC20250602DE01C4B03EB04139B6899420AD2184D05EBFC
:40154000C2025060174A02EB04125B1A93601DE01C46144B03EB04139A68891ADB68B3F1FF3F05D00F4A02EB031292689142EFD2B3F1FF3F05D00B4A02EB031295686D1A4E
:401580009560084A02EB0414E0601C46054B03EB00108160C46030BC704700BF903B0000FC80FF1FA48CFF1F38B5394A02EBC0035C6852F83030013342F8303000EB40014D
:4015C0008A0034498A58934203D90022304B43F83020B4F1FF3F59D02F4B03EB04139B68002B4ED1214600E019462B4B03EB0113DB68B3F1FF3F05D0274A02EB03129268CC
:40160000002AF1D0244A02EB01114FF0FF32CA601F4A02EBC0004360B3F1FF3F07D01E4A02EB03139A68013A9A6000E02C4604EB44029300194A13441B7A7BB904EB4402D2
:401640009300164A13445A68154B53F8223003EB83039A0013481044FFF744FF0E4B03EB0413DD68596821B101392046FFF74EFF03E024010022084B1A51B5F1FF3FD5D1E0
:4016800038BD054A02EB0414013BA36038BD00BFFC80FF1FF43B0000A48CFF1F903B0000E03B00002C3B000038B5EFF3108572B6002838D1FFF778FF204B1B68002B34D142
:4016C0001F4B1C6800F054FAB0F1FF3F2FD01D4B53F820201C4B1B689A422AD9B4F1FF3F03D00221194A42F82410194A52F820201343154A13600022144B43F8202000F079
:40170000F3F9144B53F820304BB10024114B43F8204040F0004000F077FE20460AE000F073FE002006E0032004E0002002E0002000E0002085F3108838BD00BFA484FF1FED
:40174000F081FF1F5C3C00006884FF1F0882FF1F303C00002484FF1FEFF3108372B6114A1168114A126882B9B1F1FF3F0FD00F4A52F821206AB110B40D4C54F8212022EA69
:40178000000044F82100002007E0022002E0022000E0012083F31088704783F3108810BC704700BFF081FF1FA484FF1F083C00004C84FF1F04280FD80B4B53F820306BB162
:4017C0000A4B53F82030032B0AD059B1084B53F820300B60002070470320704701207047072070470E207047083C00000882FF1F4C84FF1F38B5EFF3108472B6042853D886
:40180000324B53F82030002B50D0314B53F82030032B4DD02F4D55F820200A4345F820202D4A52F82020114244D0012B44D10222274B43F8202000F0BDF9284B1B68002B8F
:401840003CD1274B1D6800F093F9B0F1FF3F37D0244B53F82020244B1B689A4232D9B5F1FF3F03D002211A4A42F825101F4A52F8202013431C4A13600022154B43F8202063
:4018800000F032F91A4B53F820304BB10025184B43F8205040F0004000F0B6FD284612E000F0B2FD00200EE003200CE001200AE0072008E0002006E0002004E0002002E089
:4018C000002000E0002084F3108838BD083C00000882FF1F4C84FF1F3884FF1FA484FF1FF081FF1F5C3C00006884FF1F303C00002484FF1F38B5EFF3108472B63A4B1D68D2
:401900003A4B1B68002B63D1B5F1FF3F62D0384B53F82530B3F1FF3F5ED1364B53F82530002B5BD0344B53F82530034258D1334B43F825000122324B43F82520314B53F82D
:40194000250031490B6823EA00030B602F4B43F825202F4B53F82520234B1A6000F008F9B0F1FF3F06D02B4B53F82020264B1B689A420DD81C4B1868B0F1FF3F03D00022D7
:401980001F4B43F8202040F0004000F03DFD1AE000211B4A42F820101A4A52F820201343194A136000F0A0F8184B53F8203043B10022164B43F8202040F0004000F024FDAB
:4019C00001E000F021FD00200C4B43F8250008E0022006E0022004E0062002E0012000E0002084F3108838BDF081FF1FA484FF1F0C81FF1F083C00004C84FF1F3884FF1F72
:401A00000882FF1F303C00006884FF1F2484FF1FF481FF1F5C3C0000EFF3108372B629B130B9054A52F830200A6002E00E2000E0032083F310887047FC80FF1F08B500F0C5
:401A400053F8084B53F8203043B10022054B43F8202040F00040044B186008BD024B186008BD00BF2484FF1FA884FF1F10B500F07FF8124B1B68B0F1FF3F1AD0104A52F87E
:401A80002010104A1268914213D9B3F1FF3F03D002240D4941F8234000210B4B43F820100A4B53F820301A43064B1A60FFF7C6FF10BD43F00043064A136010BDF081FF1F7F
:401AC0005C3C00006884FF1F0882FF1F303C0000A884FF1F034B1B6813B10022014B1A60704700BF9884FF1FF0B4184B19880B0A174AD356B3F1FF3F01D1535601E00833F9
:401B00005BB2144D55F82320134850F82200134E56F8224045F82340114D2F6846F822702A60B4F1FF3F09D10E4A42F82340012202FA03F321EA0301044B19800A4B19684E
:401B40000A4A42F820101860F0BC70476484FF1F203A0000B081FF1F7C8CFF1F3481FF1F6084FF1F7081FF1FF081FF1FF481FF1F0C4B1A88130A0C49CB56B3F1FF3F01D1B1
:401B80008B5601E008335BB2B3F1FF3F06D0074A52F82320064B53F8220070474FF0FF30704700BF6484FF1F203A0000B081FF1F7C8CFF1F30B4144B53F82020134C23689F
:401BC000134951F823502560124C44F823004FF0FF3441F82340104951F82210A1420AD10E4951F820400E480188214301800D4941F8223002E0064840F82130064941F805
:401C0000223030BC704700BF4881FF1F6084FF1F3481FF1F7C8CFF1F7081FF1F5C3C00006484FF1FB081FF1F10B150F8210070474FF0FF30704700BF0122014B1A60FEE77F
:401C4000A084FF1F70B50546124B53F8306000241CE0104B03EBC50321465868FFF7E4FF0D4A52F82030013B42F820300B4B53F82030032B07D10222084B43F82020002287
:401C8000074B43F82020FFF795FF0134B442E0D370BD00BF203B00005C81FF1F0882FF1F4C84FF1F18B908B5FFF7CCFF08BD7047194B1A4ADA621A4A9A631A4ADA63EFF364
:401CC000108272B6184B1B6813BB10B5044600F05DF8164B1C600122134B1A602046FFF7E1FFFFF745FFB0F1FF3F0ED0104B53F82030104A11680B43136000220E4B43F8D7
:401D00002020FFF7F1FE00F07FFB62B6FFF794FF82F31088072070470080FF1FC92300008D23000051010000A084FF1FFC8CFF1F303C00006884FF1F0882FF1F08B5EFF357
:401D4000108272B60D4B19680D4B1B6863B90D4B53F82130B3F1FF3F08D14FF0FF300A4B43F82100002002E0022000E0062010B9084600F0A2FB82F3108808BDF081FF1FDC
:401D8000A484FF1F0C81FF1F2081FF1F38B50D4B1D68EFF3108472B600F0E6FA0A4A136843F07F431360094B2B6407210020FFF771FA074A136843F00103136084F31088F3
:401DC00038BD00BF08ED00E020ED00E01102000000E100E0024B1878C0F30010704700BF01510040024B1878C0F3C000704700BF01510040044A137803F0DF03400100F0BA
:401E0000200018431070704730510040014B1870704700BF79650040014B1878704700BF7965004008B500F097FA0A4A137843F0200313700B32137843F010031370043A92
:401E4000137843F01003137000F08AFA00F0E2F808BD00BF94640040014B1878704700BF6F640040014B1878704700BF6B640040034B1B7813F0040FFAD0024B1870704701
:401E80006F6400404F64004008B501E00A4B1B780A4B1B7813F0200FF8D100F05DFA084B1A7842F001021A701A7802F0FE021A7000F056FA08BD00BF5F6400406B640040E4
:401EC0009F64004008B50F22064B1A70FFF7DCFFFFF7C2FFFFF7C6FF0023034A1370043A137008BD846400408F64004008B5054B1B7823B9FFF7E6FF0122024B1A70FFF778
:401F000091FF08BD7084FF1F044A137803F0F703C00000F00800184310707047C0510040044A137803F0EF03000100F0100018431070704730510040084A137843F00103B3
:401F400013701032137843F00103137002F64D32137843F001031370704700BFA3430040014B1880704700BF044F0040014B1880704700BF064F0040014B1870704700BFD9
:401F8000034F004008B5194A137843F0020313700232137803F08F0343F010031370144B1A7802F0CF021A701A7842F030021A701A7802F0F0021A701A7842F00F021A70FF
:401FC0006420FFF7CDFF0020FFF7D0FF0020FFF7D3FF084A137843F00103137002F65E32137843F00103137008BD00BF004F00400B4F0040A343004008B5054B1B7823B91B
:40200000FFF7C0FF0122024B1A70FFF795FF08BD7184FF1F054A137843F0010313701032137843F001031370704700BFA2430040024A137843F080031370704773640040FB
:40204000014B1870704700BF03640040014B1870704700BF43640040014B1870704700BF2364004008B50B4A137803F0C00343F0090313702032137843F001031370FF2062
:40208000FFF7DEFFFF20FFF7E1FF0020FFF7E4FF08BD00BF7364004008B5054B1B7823B9FFF7E0FF0122024B1A70FFF7C1FF08BD7284FF1F024A137843F080031370704723
:4020C00072640040014B1870704700BF02640040014B1870704700BF42640040014B1870704700BF2264004008B50B4A137803F0C00343F0090313702032137843F0010371
:402100001370FF20FFF7DEFFFF20FFF7E1FF0020FFF7E4FF08BD00BF7264004008B5054B1B7823B9FFF7E0FF0122024B1A70FFF7C1FF08BD7384FF1F024A137843F080033A
:402140001370704770640040014B1870704700BF0E640040014B1870704700BF4E640040014B1870704700BF2E64004008B50B4A137803F0C00343F0090313702E321378BD
:4021800043F001031370FF20FFF7DEFFFF20FFF7E1FF0020FFF7E4FF08BD00BF7064004008B5054B1B7823B9FFF7E0FF0122024B1A70FFF7C1FF08BD7484FF1F024A13783A
:4021C00043F08003137070477A640040014B1870704700BF0A640040014B1870704700BF4A640040014B1870704700BF2A64004008B50B4A137803F0C00343F00903137074
:402200002032137843F001031370FF20FFF7DEFFFF20FFF7E1FF0020FFF7E4FF08BD00BF7A64004008B5054B1B7823B9FFF7E0FF0122024B1A70FFF7C1FF08BD7584FF1FA8
:40224000024A137843F080031370704779640040014B1870704700BF0B640040014B1870704700BF4B640040014B1870704700BF2B64004008B50B4A137803F0C00343F0A9
:40228000090313702232137843F001031370FF20FFF7DEFFFF20FFF7E1FF0020FFF7E4FF08BD00BF7964004008B5054B1B7823B9FFF7E0FF0122024B1A70FFF7C1FF08BDAF
:4022C0007684FF1F024A137843F080031370704775640040014B1870704700BF05640040014B1870704700BF45640040014B1870704700BF2564004008B50B4A137803F01D
:40230000C00343F0090313702032137843F001031370FF20FFF7DEFFFF20FFF7E1FF0020FFF7E4FF08BD00BF7564004008B5054B1B7823B9FFF7E0FF0122024B1A70FFF7C3
:40234000C1FF08BD7784FF1F0230800803D000BF01380046FCD17047EFF3108072B6704780F31088704700BF18484FF47F0102680A43026016486FF07F4102680A400260CF
:40238000704714484FF080510160704772B611484FF000610160FFF769FB0F48006800F0F3F858B10C4800684FF080730B4A0C490FB40FB46FF00600004700BF6FF0060075
:4023C00062B6004762B600DF08B0704720ED00E01CED00E004ED00E0A884FF1F09240000C5230000EFF30880054908600548006880F3088870470248006880F30888704717
:402400005482FF1F4882FF1F411C8900154A11440968154A136899421AD0F0B444464D4656465F46F0B400B5104C9B002344EFF308851D60116089002144096881F308889D
:4024400002BC8E46F0BCA046A946B246BB46F0BC002806DB00B500F08BF802BC8E46FFF7D3BF7047983C00006C84FF1F4C82FF1FF0B444464D4656465F46F0B400B5EFF397
:40248000038308B48000174901440968164A0244EFF30883136088471448804704BC4FF08070024382F3038801BC8646F0BCA046A946B246BB46F0BC704780000A4901441A
:4024C0000A6882F3088804BC4FF08070024382F3038808BC9E46F0BCA046A946B246BB46F0BC7047703C0000908CFF1FF124000010B572B6034B1C68204600F00DF8204631
:40250000FFF7DBFFF081FF1F08B5024B1868FFF7AFFF08BDF081FF1F10B4104B53F820304FF0FF310BE00E4A52F823200B4941F8202000240B4941F8234019461346B3F184
:40254000FF3FF0D1B1F1FF3F04D0074B53F82120064B1A60084610BC704700BF0C81FF1F0481FF1F1C84FF1FF48CFF1F6884FF1F08B562B6FFF7C8FF72B600F041F8014B8C
:40258000186808BDA884FF1F00280BDA20F000400130054B53F82000044B1B68181A18BF0120704701207047983C00006C84FF1F054B53F82020054B53F820309A4201D162
:4025C00001207047002070475C81FF1F1C3C000008B5FFF789FA084B53F8203043B10022054B43F8202040F00040044B186008BD024B186008BD00BF2484FF1FA884FF1F7F
:4026000038B5364B1C680022354B1A60354A52F82430013342F82430334B53F824502046FFF7C6FF012801D0A54204D103222F4B43F8242003E002222C4B43F824202C4B07
:4026400053F824102B4A136823EA010313602A4B53F82440214B1C60B5F1FF3F0FD0234B53F82530032B07D10222204B43F825200022224B43F825202846FFF79BFAFFF777
:4026800077FAB0F1FF3F0BD1B4F1FF3F03D00022164B43F8242044F00044194B1C6038BD184B53F82020134B1B689A4208D800220E4B43F8242044F00044114B1C6038BD1F
:4026C00000210A4A42F82010094A52F820201343084A1360FFF77CFF38BD00BFF081FF1F9884FF1F5C81FF1F2081FF1F0882FF1F303C00006884FF1FF481FF1F4C84FF1FBC
:40270000A884FF1F5C3C0000014B1868704700BFB882FF1F0E4B70B51E460E4C0025E41AA410A54204D056F8253098470135F8E701F042FB084B094C1E46E41AA4100025A7
:40274000A54204D056F8253098470135F8E770BDC43D0000C43D0000C43D0000CC3D000010B5431E0A44914204D011F8014B03F8014FF8E710BD03460244934202D003F836
:40278000011BFAE77047000038B5124B05461C68A36BD3B9182000F08BF843F20E33A06303804AF6CD33438041F2342383804EF26D63C3804DF6EC630381052343810B23F8
:4027C000838101220023C0E90423A36B00221D615A6138BDB882FF1F194B10B51C68A36BD3B9182000F064F843F20E33A06303804AF6CD33438041F2342383804EF26D63A2
:40280000C3804DF6EC630381052343810B23838101220023C0E90423A16B0A4C0B6948695C43094A02FB0040A3FB02230132034443F10003C1E9042323F0004010BD00BF31
:40284000B882FF1F2DF451582D7F954C0CB430B5164B0C1E9DB01D6804DA8B232B604FF0FF301EE04FF40273ADF814300CBF234604F1FF33049307934FF6FF730290069018
:40288000ADF81630209A21AB02A92846019300F01BF9431CBCBF8B232B6014B1029B00221A701DB0BDE8304002B07047B882FF1F024B0146186800F04FB800BFB882FF1F10
:4028C00038B50546002944D051F8043C0C1F002BB8BFE41800F0C1FB1E4A1368114613B96360146030E0A3420DD92268A018834201BF18685B681218226063600C6023E065
:40290000A24203D813465A68002AF9D118681918A1420BD12168014458188242196013D110685268014419605A600DE002D90C232B6009E021686018824201BF106852682E
:402940000918216062605C602846BDE8384000F085BB38BD7C84FF1F70B5CD1C25F0030508350C2D38BF0C25002D064601DBA94202D90C23336046E000F06FFB234B1C6851
:402980001A462146A1B10B685B1B0ED40B2B03D90B60CC18CD501EE08C420BBF63684B681360636018BF0C4615E00C464968E9E7174C23681BB9304600F016FB2060294652
:4029C000304600F011FB431C18D0C41C24F00304A0420DD12560304600F040FB04F10B00231D20F00700C31A0ED05A42E25070BD211A304600F0F8FA0130EBD10C233360EE
:402A0000304600F02BFB002070BD00BF7C84FF1F7884FF1F2DE9F0478E6882469E420C46914698463ED88A8912F4906F3AD02568096902236F1A656905EB450595FBF3F56F
:402A40007B1C43449D4238BF1D4653050FD52946FFF782FF064698B13A462169FFF780FEA38923F4906343F08003A38113E02A4600F0F5FA064670B921695046FFF720FFCE
:402A80000C23CAF80030A3894FF0FF3043F04003A381BDE8F08726613E44266046466561ED1BA560464528BF464649463246206800F0B8FAA36800209B1BA36023681E44B7
:402AC0002660BDE8F08700002DE9F04F9DB003938B8980461C060D4616460DD50B695BB94021FFF739FF2860286118B90C23C8F80030CDE040236B610023099320238DF8F4
:402B00002930DFF89CB130238DF82A3037463C4614F8013B1BB9B7EB060910D003E0252BF9D02746F3E74B46324629464046FFF771FF013000F0A780099B4B4409933B78C9
:402B4000002B00F0A08000234FF0FF3204930793059206938DF853301A930126052221784E4800F051FA671C049B38B14B4A3C46801A06FA00F018430490EFE7D90644BF66
:402B800020228DF853201A0744BF2B228DF8532022782A2A03D0079A00210A200BE0039A111D12680391002A10DA524243F00200079204900BE027463B780134303B092B18
:402BC00003D800FB02320121F5E701B107923B782E2B1ED17B782A2B0AD1039B02371A1D1B680392002BB8BF4FF0FF33059310E0002319460593781C0A2407463A78013097
:402C0000303A092A03D804FB01210123F5E703B1059103223978224800F0F6F940B14023CBEB000003FA00F0049B013718430490397806221B487E1C8DF8281000F0E4F975
:402C400088B1194B33B9039B073323F007030833039314E003AB00932A46144B04A94046AFF3008007E003AB00932A460F4B04A9404600F093F8B0F1FF3F824603D0099BEE
:402C80005344099342E7AB895B0601D4099801E04FF0FF301DB0BDE8F08F00BF823D0000883D00008C3D000000000000152A00002DE9F04791461F460A698B680646934212
:402CC000B8BF1346C9F8003091F843200C46DDF8208012B10133C9F800302368990642BFD9F800300233C9F80030256815F0060510D104F1190A07E00123524639463046F8
:402D0000C04701301AD00135E368D9F800209B1A9D42F1DB94F843302268003318BF012392060FD5E118302081F843005A1C94F845102244023382F8431003E04FF0FF3057
:402D4000BDE8F08704F1430239463046C0470130F4D02268D9F80050E36802F00602042A08BF5D1B2269A3680CBF25EAE57500259342C4BF9B1AED184FF000091A344D4586
:402D800009D00123224639463046C0470130D5D009F10109F3E70020BDE8F0872DE9F04317460A7E85B06E2A984606460C460C9B01F1430E00F0AE8011D8632A22D009D8FA
:402DC000002A00F0BB80582A40F0CA8081F84520834955E0642A1ED0692A1CD0C0E0732A00F0B08009D86F2A2ED0702A40F0B8800A6842F020020A603EE0752A24D0782A4E
:402E00003AD0ADE01A6801F14205111D1960136884F84230A8E021681A6811F0800F02D0111D196008E011F0400F02F10401196002D0B2F9003000E01368002B3CDA2D2253
:402E40005B4284F8432037E021681A6811F0800F02D0111D196007E011F0400F02F10401196001D0138800E01368227E5C496F2A14BF0A2208221BE078225A4984F845201C
:402E80002268186812F0800F00F104051D6003D1550601D5038800E00368D00744BF42F0200222601BB9226822F0200222601022002084F8430001E049490A226568002DB7
:402EC000A56008DB206820F0040020602BB9002D7DD175460CE0002B79D07546B3FBF2F002FB1033CB5C05F8013D03460028F5D1082A0BD12368DA0708D5236962689A42A7
:402F0000DEBF302305F8013C05F1FF35C5EB0E0323612EE008681A6810F0800F496903D0101D1860136808E010F0400F02F104001860136801D0198000E019600023236139
:402F4000754616E01A68111D1960156800216268284600F059F808B1401B6060636804E004F1420584F8422001232361002384F84330CDF800803B4603AA21463046FFF7C3
:402F800097FE013002D14FF0FF3026E023692A4639463046C0470130F5D023689B0710D5002504F1190907E001234A4639463046C0470130E7D00135E368039A9B1A9D4297
:402FC000F2DBE068039B9842B8BF184605E00B7804F1420584F842308AE705B0BDE8F083933D0000A43D000038B5064C0023054608462360FEF736F8431C02D1236803B1DC
:403000002B6038BD008FFF1F10B5C9B202449042034605D01C7801308C42F8D1184610BD002010BD884210B501EB020301D8421E0BE09842FBD28118D21AD34204D013F8B5
:40304000014D01F8014DF8E710BD994204D011F8014B02F8014FF8E710BD70477047F8B5074615460E4621B91146BDE8F840FFF773BC1AB9FFF724FC2846F8BD00F015F8C2
:4030800085420ED929463846FFF766FC044650B131462A46FFF764FB31463846FFF710FC01E03046F8BD2046F8BD51F8040C0028BEBF091851F8043CC01804387047000005
:4030C000000000000D0A0D0A3D3D3D3D3D3D3D3D3D3D3D3D2057656C636F6D6520746F20746865205265616374696F6E2047616D65203D3D3D3D3D3D3D3D3D3D3D3D0D0A74
:403100007072657373206F6E65206F66207468652074776F20627574746F6E7320746F2073746172742E2E2E0D0A0D0A00000000526F756E643A2025750D0A004772656166
:4031400074202D20636F727265637420627574746F6E2070726573736564210D0A0000005265616374696F6E2074696D6520696E206D733A2025750D0A0000004F6F7073CB
:40318000202D2077726F6E6720627574746F6E2070726573736564210D0A000053636F72653A202575207C20546F74616C2054696D653A2025756D73207C204176672054EA
:4031C000696D653A2025756D730D0A003D3D3D3D3D3D3D3D3D3D3D3D3D3D3D3D3D3D3D3D3D3D3D3D3D3D3D3D3D3D3D3D3D3D3D3D3D3D3D3D3D3D3D3D3D3D3D3D3D3D3D3D45
:403200003D3D0D0A0000000047616D6520416E616C797A6572000000546F6F20736C6F77210D0A00FF000000F40100FF0000F4010000FF00F401000000006400FFFFFF0091
:403240006400000000006400FFFFFF006400000000006400FFFFFF006400000055415254207374617274656400000000203A2000000001000100010001000100010001008C
:4032800001000200020002000200020002000200020002000200020002000300030003000300030003000300040004000400040004000400050005000500050005000600A9
:4032C000060006000600070007000700080008000800090009000A000A000A000B000B000C000C000D000D000E000F000F001000110011001200130014001500160017003E
:40330000180019001A001B001C001D001F0020002100230024002600280029002B002D002F0031003400360038003B003D0040004300460049004C004F00530057005B004C
:403340005F00630067006C00700075007B00800086008C00920098009F00A600AD00B500BD00C500CE00D700E100EB00F50000010B011701240130013E014C015B016A013F
:403380007A018B019C01AF01C201D601EA01000217022E02470261027C029802B502D402F402160339035D038303AB03D50300042D045D048E04C204F80430056B05A805A5
:4033C000E8052B067106BA0606075607A90700085B08B9081C098309EF09600AD50A500BD10B560CE20C740D0D0EAC0E520F0010B510731138120713DF13C014AB15A11608
:40340000A117AD18C419E91A1A1C581DA51E00206B21E52271240E26BD278029562B412D422F5A318933D1353338B03A493D0040D542CB45E2481C4C7A4FFF52AC56825A3F
:40344000845EB3621267A26B66706075927A0080AA85958BC3913798F59EFEA558AD04B508BD66C524CE44D7CCE0C0EA25F5FFFF0FB103053C3CB203053C3CB306053C3C1F
:40348000053C3CB40103C003280804C101C0C2020D00C3028D2AC4028DEEC5011A3601C0E0100422070A2E30252A28262E3A00010313E10F16060D2D26232727252D3B00EE
:4034C0000104133A0105290000000000003E5B4F5B3E3E6B4F6B3E1C3E7C3E1C183C7E3C181C577D571C1C5E7F5E1C00183C1800FFE7C3E7FF0018241800FFE7DBE7FF30D7
:40350000483A060E2629792926407F050507407F05253F5A3CE73C5A7F3E1C1C08081C1C3E7F14227F22145F5F005F5F06097F017F006689956A606060606094A2FFA2942B
:4035400008047E040810207E201008082A1C08081C2A08081E101010100C1E0C1E0C30383E3830060E3E0E06000000000000005F00000007000700147F147F14242A7F2A4B
:4035800012231308646236495620500008070300001C2241000041221C002A1C7F1C2A08083E080800807030000808080808000060600020100804023E5149453E00427FD5
:4035C000400072494949462141494D331814127F1027454545393C4A49493141211109073649494936464949291E00001400000040340000000814224114141414140041F3
:4036000022140802015909063E415D594E7C1211127C7F494949363E414141227F4141413E7F494949417F090909013E414151737F0808087F00417F41002040413F017FCD
:40364000081422417F404040407F021C027F7F0408107F3E4141413E7F090909063E4151215E7F09192946264949493203017F01033F4040403F1F2040201F3F4038403FEA
:40368000631408146303047804036159494D43007F4141410204081020004141417F04020102044040404040000307080020545478407F28444438384444442838444428DF
:4036C0007F385454541800087E090218A4A49C787F0804047800447D40002040403D007F1028440000417F40007C047804787C080404783844444438FC1824241818242492
:4037000018FC7C08040408485454542404043F44243C4040207C1C2040201C3C4030403C44281028444C9090907C4464544C4400083641000000770000004136080002012E
:403740000204023C2623263C1EA1A161123A4040207A385454555921555579412254547842215554784020545579400C1E52721239555555593954545459395554545800EB
:4037800000457C410002457D420001457C407D1211127DF0282528F07C545545002054547C547C0A097F4932494949323A4444443A324A4848303A4141217A3A42402078BC
:4037C000009DA0A07D3D4242423D3D4040403D3C24FF2424487E4943662B2FFC2F2BFF0929F620C0887E090320545479410000447D413048484A32384040227A007A0A0A2B
:40380000727D0D19317D2629292F28262929292630484D4020380808080808080808382F10C8ACBA2F102834FA00007B000008142A142222142A14085500550055AA55AA3D
:4038400055AAFF55FF55FF000000FF00101010FF00141414FF001010FF00FF1010F010F0141414FC001414F700FF0000FF00FF1414F404FC141417101F10101F101F141497
:40388000141F00101010F0000000001F101010101F10101010F010000000FF101010101010101010FF10000000FF140000FF00FF00001F10170000FC04F414141710171494
:4038C00014F404F40000FF00F714141414141414F700F7141414171410101F101F141414F4141010F010F000001F101F0000001F14000000FC140000F010F01010FF10FF80
:40390000141414FF141010101F00000000F010FFFFFFFFFFF0F0F0F0F0FFFFFF0000000000FFFF0F0F0F0F0F3844443844FC4A4A4A347E02020606027E027E0263554941DC
:40394000633844443C04407E201E2006027E020299A5E7A5991C2A492A1C4C7201724C304A4D4D303048784830BC625A463D3E494949007E0101017E2A2A2A2A2A44445F11
:40398000444440514A444040444A51400000FF0103E080FF000008086B6B083612362436060F090F06000018180000001010003040FF0101001F01011E00191D1712003CCB
:4039C0003C3C3C000000000054465400427566666572206F766572666C6F7700004F00400C0040510040300000000140800E000F0140000100140140000800400140000A93
:403A0000004C01400002005001402000605200405C0900480600800E0140640900488000FF000101020202020303030303030303040404040404040404040404040404043C
:403A400005050505050505050505050505050505050505050505050505050505050505050606060606060606060606060606060606060606060606060606060606060606E6
:403A80000606060606060606060606060606060606060606060606060606060606060606070707070707070707070707070707070707070707070707070707070707070766
:403AC0000707070707070707070707070707070707070707070707070707070707070707070707070707070707070707070707070707070707070707070707070707070706
:403B0000070707070707070707070707070707070707070707070707070707070707070701000000283B00000000000000000000020000000000000000000000FFFFFFFF43
:403B400000000000040000000000000000000000FFFFFFFF00000000040000000000000000000000FFFFFFFF01000000020000000800000000000000FFFFFFFF010000003D
:403B8000020000000400000000000000FFFFFFFF000000000000000000000000000000000100000000000000000000000200000000000000000000000300000000000000FD
:403BC00000000000040000000000000000000000010000000200000003000000040000000000000001000000020000000300000004000000A0860100010000000000000085
:403C000000000000000000000000000000000000010000000000000000000000010000000100000001000000010000000100000080000000010000002000000002000000DB
:403C4000100000000100000002000000040000000800000000000000010000000200000001000000200000000200000010000000AD00000041010000F100000039010000D5
:403C8000210100000925000009250000092500000925000009250000000000000000000000000000010000000000000000000000616C726D5F5469636B316D00616C726D1B
:403CC0005F617263616469616E000000616C726D5F74667400000000616C726D5F72616E646F6D00616C726D5F74696D656F75740000000065765F627574746F6E4C65664E
:403D00007400000065765F627574746F6E5269676874000065765F74696D656F7574000065765F72616E646F6D446F6E650000007265735F726E64007265735F6F757400CB
:403D400074736B5F696E69740000000074736B5F6261636B67726F756E64000074736B5F67616D650000000074736B5F7466740074736B5F617263616469616E00000000DF
:403D80004300232D302B2000686C4C006566674546470030313233343536373839414243444546003031323334353637383961626364656600000000F8B500BFF8BC08BCE9
:403DC0009E4670474D000000E1100000F8B500BFF8BC08BC9E46704729000000F03D0000C880FF1FF8010000480C0000000000000000000001000000FFFF0000088FFF1FAE
:403E00000000E02EC05D00001800000000366E01B03C0000BC3C0000CC3C0000D83C0000E43C000000000000FFFFFFFFFFFFFFFFFFFFFFFFFFFFFFFFFFFFFFFFFFFFFFFF92
:403E4000FFFFFFFFFFFFFFFFFFFFFFFFFFFFFFFFFFFFFFFFFFFFFFFFFFFFFFFF01000000020000000300000004000000FFFFFFFF0100000000000000050000000100000051
:403E8000040000000100000001000000010000000100000001000000FFFFFFFFFFFFFFFFFFFFFFFFFFFFFFFFFFFFFFFFFFFFFFFFFFFFFFFFFFFFFFFFFFFFFFFFFFFFFFFF21
:403EC000FFFFFFFFFFFFFFFFFFFFFFFFFFFFFFFFFFFFFFFFFFFFFFFFFFFFFFFFFFFFFFFFFFFFFFFFFFFFFFFFFFFFFFFFFFFFFFFFFFFFFFFFFFFFFFFFFFFFFFFFFFFFFFFF02
:403F0000FFFFFFFFFFFFFFFFFFFFFFFFFFFFFFFFFFFFFFFFFFFFFFFFFFFFFFFFFFFFFFFFFFFFFFFFFFFFFFFFFFFFFFFFFFFFFFFF03000000030000000300000003000000A5
:403F400003000000F43C0000043D0000143D0000203D0000303D0000383D0000403D00004C3D00005C3D0000683D0000703D0000008FFF1F00000000548CFF1F00000000A1
:403F80000000000000000000000000000000000000000000000000000000000000000000803D00000000000000000000000000000000000000000000000000000000000044
:403FC00000000000000000000000000000000000000000000000000000000000000000005882FF1F00000000000000000000000000000000000000000000000000000000C9
:404000000000000000000000000000000000000000000000000000000000000000000000000000000000000000000000000000000000000000000000000000000000000080
:404040000000000000000000000000000000000000000000000000000000000000000000000000000000000000000000000000000000000000000000000000000000000040
:404080000000000000000000000000000000000000000000000000000000000000000000000000000000000000000000000000000000000000000000000000000000000000
:4040C00000000000000000000000000000000000000000000000000000000000000000000000000000000000000000000000000000000000000000000000000000000000C0
:020000040003F7
:0200000480007A
:40000000024F00400652004003640040016500405600014032010140670201404E0301405504014048050140040601400D0701404B08014040090140630A0140490B0140DA
:40004000160D0140220E01402F0F014002170140311801403C1901400C1B0140024001400E4101400642014009430140044401400845014004460140034801400F4C014057
:400080000F4D0140075001400151014001400A2700400140083909AC10111131810F840F88388872000608070C020E04140215011702180219041A051C041D0420062106F1
:4000C00023012402260428042A022C012E02320735073B2040614103450C46E047B0482949FF4AFF4BFF4EF04F44500C5280580459045A045B045D235F0166C06A406B02D6
:4001000084068601870289028A069202960399019E01A302A605A702A902B207B301B702BA08BF44C002C640C9FFCA07CBFFCC40CD20CEF0CF05D008D401D804D904DA041B
:40014000DB04DC03DD33DF01E040E1A8E240E320001003410518084009200A200D020E100F0210201110120113011620181019041E10212026442A012D082E123040312488
:4001800036203E203F144212471049204A104B1452225510560257015C025EA873408440C06BC2B7C42FCAE1CC2ECE60D02AD204D6F0E608030107040903140119032202A9
:4001C000240125022B043202330334013504382039083E103F044030410645014620480949FF4AFF4BFF4DA04F0450185280580459045A045B045C225D225F01604062C0E4
:400200006440654066C068C06AC06CC06EC0820C840C86038702881089018C108F04920393019401960E981099019D01A302A401A606A708AA08AD01B010B101B20FB308ED
:40024000B504B702BA08BE01BF01C030C106C510C702C812C9FFCAFFCBFFCDA0CF04D018D280D804D904DA04DB04DC23DD22DF01E040E2C0E440E540E6C0E8C0EAC0ECC0C4
:40028000EEC000100108028109210A100F101010112016A019081A401D081F242080211523022610271029412A042D082F043020334134103520372039183B403D023E1032
:4002C0003F0A4104450849014A084F2852085710710276808102820485108610870290109210934495109620970199049A039D389F51A130A202A301A420A912AA01B00229
:40030000B120B220B410C00FC22EC436CA6BCC2DCEEED042D224E002E408EA04EE02041C05020622070D09D00DD00E03104011D0142C1520161117D0180919291A101B86F3
:400340001DD02125234A24302513260C272C28102C142DD0301F33F03460350F38203B2856025724580459045B045C035F018503870489038B0492019503970C9A019B086E
:40038000A202A305A50AA704B002B30FB401BB08C040C106C501C620C809C9FFCAFFCBFFCDA0CF04D018D280D804D904DA04DB04DC31DD11DF01E040E2C0E440E540E6C090
:4003C000E8C0EAC0ECC0EEC0004001080A140B800D020F08112812021680184019101A041D021F102004210825042604272029442A012D082E022F403128334135103604CA
:40040000380439903E103F0445024F2857106004682069106B417140730176808E1092109304951096209701990C9A039D509F61A130A202A420A910AAC0AF30B040B101FF
:40044000B220C005C25EC417CACBCC6FCE6ED080D220D804E804EC8039083F0459045F0127208320871090409320AD40AF01B110B420B540B740E802EC0800060209041002
:4004800008100B800F801144120113311406156718071A081C0F1D011F0E20102402280929672A062C042D222F51301031603208338034073518370738083F1440644103CC
:4004C0004205440246CE480C49FF4AFF4BFF4C624DA04EF04F41500C5418580459045A045B045C335D335F016640670269106A306B106D106E106F1283018C01B301B60171
:40050000BE40D280D804D904DB04DC10DD10DF01014004280525080109020C080D420E0815101602170918011C101D1223102510268A2DA0300432083480350436823842B3
:400540003B403C103F80451247044D104E044F4057505E0264046540700181408304971099409D10A710AA04AB01AC41AF04B020B108B530B688B702C071C2F0C4F0CA3074
:40058000CCD0CE31D0E0D230D680D830E890EC100405060A0702080E0B020F011C031E041F012304240426093102320F3301370438084010410346014702481449FF4AFFB4
:4005C0004BFF4DA04F0450185280580459045A045B045C105D115F01604062C06440654066C068C06AC06CC06EC08004840485048A028C048D018F06920495079602990172
:400600009A049B069C049F03A104A201A601A704A801A904AD04B001B404B602B707BB80BE51C060C105C612C80CC9FFCAFFCBFFCDA0CF04D018D440D804D904DA04DB04D0
:40064000DD01DF01E040E2C0E440E540E6C0E8C0EAC0ECC0EEC00010031005180680070208800C410E080F2813081480171818101C401D401F10202121812540268027016A
:4006800029012C402D282E8031803480371838883A103D803F04400141044C044F905040510456105740662067227101841085018E80944098809A209B189C619D089E8882
:4006C0009F01A304A510A980B002B380C0F6C2F1C474CAF1CC78CE5ED00AD230D870E008E240E402E820EC208508944098809A209B189C639D889E889F81A304A518A81090
:40070000AA04AB10AD80B104B308B480B520E408E810EC85060307010A0217011C012603320337014030410246204701481849FF4AFF4BFF4DA04F045018580459045A0412
:400740005C205D025F01604062C06440654066C068C06AC06CC06EC0001003100520071108800C410D040E0813081420168A18101E08218027102C012D282F803108344012
:40078000371938083D203E084118448047984D0450045110562257845C425D045E20658086108780C0E6C2F1C4F4CAF0CCF2CE62D0F6D6F0D810A840EC04001F011002205B
:4007C000040205080833097F0A0C0C080D1C0F6112231363143F151C1762181C19401A231C011D601E402003230424042518280C29672B182D24302C3160320F331F34102B
:4008000036403A0A3B283E1056025712580459045B045C335D305F01DB04DF0104100501061207100C010E29148017281C101D011E441F442510261527042D882F44348152
:40084000360437103D203E4A5E04680169056A106C146F01700171107220730174087508760A77287C107E0483019428960898819A109D819E029F0DA408A605A940B21242
:40088000B441B510C0F0C2F0C470CAF0CCF0CEF0D640E00189808A0196019D80A910AA10AD05B001B220B401E809EC063380CC1007080B105A02641084109202A780AE01AE
:4008C000C080C210D640D880E640EE405308AF88B310D420E810EE101B086B8083808620A708C610DC20E280E64070047D40DC01DE045602620867408602A804A940D604D5
:40090000D803860887409740A6085220A220D4205001512057205E015F806008630166088380A008B408D407D607D803EC08110174088901A008A801AB01AE09B008B120E6
:40094000B720C408DE04E601E803EC01000F080D0A0B0C0B0E0510081C080003A084000040000000000000000A0A1000070838020400000004080000560C09030101000838
:40098000040A0000040200000002040804030004600800020000000F7F000000200000080000000023041000000EFCBD3DFFFFFF2200F0080400000009000000040404047B
:4009C000000000010000C00040011011C0010011400140010000000000000000000000000000000018C0C000C0000000800040BCBC00B40000000000000404000400000030
:400A000000FFFF00FF0000000031310031000000003838000800000000000000000000000000000000000000000000000000000000000000000000000000000000000000AE
:400A40000000000000000000000000000000000000000000000000000000000000000000000000000000000000000000000000000000000000000000000000000000000076
:400A80000000000000000000000000000000000000000000000000000000000000000000000000000000000000000000000000000000000000000000000000000000000036
:400AC00000000000000000000000000000000000000000000000000000000000000000000000000000000000000000000000000000000000000000000000000000000000F6
:400B000000000000000000000000000000000000000000000000000000000000000000000000000000000000000000000000000000000000000000000000000000000000B5
:0200000490006A
:0400000000004007B5
:0200000490105A
:04000000BC90ACAF55
:0200000490303A
:020000003D744D
:0200000490402A
:4000000000000000000000000000000000000000000000000000000000000000000000000000000000000000000000000000000000000000000000000000000000000000C0
:400040000000000000000000000000000000000000000000000000000000000000000000000000000000000000000000000000000000000000000000000000000000000080
:400080000000000000000000000000000000000000000000000000000000000000000000000000000000000000000000000000000000000000000000000000000000000040
:4000C0000000000000000000000000000000000000000000000000000000000000000000000000000000000000000000000000000000000000000000000000000000000000
:0200000490501A
:0C00000000012E16106900012E2F4DDDAE
:00000001FF