:400000000080002011000000F90C0000F90C000008B5044B1A6803F53F5302331A6000F08BFE00BFFA46004010B5054C237833B9044B13B10448AFF300800123237010BDE4
:40004000A882FF1F00000000E8290000084B10B51BB108490848AFF300800848036803B910BD074B002BFBD0BDE81040184700BF00000000AC82FF1FE8290000C880FF1F1E
:400080000000000008B562B645F6BF52054B1A60054A136843F002031360002001F042FCFBE700BF14E000E010E000E008B500F0FBFB00F0EDFE00F09BFC00F0F3F801F07B
:4000C0009FFC094A136843F00503136001220221104600F0A5FF022000F02EFF012000F02BFF01F065FC08BD10E000E000B583B000230193084800F0E5FE0F2001F034FA48
:4001000001A9022001F090F9019801F05FF9019800F082FAF1E700BFEC29000008B50221012000F017FB0321012000F067FB01F03FFC08BD08B501F03BFC08BD00BFFDE70E
:4001400008B5002001F0EAF808BD00BF684620F007018D4619B572B6EFF311841E4B1B68DBB20F2B10D9103B23F0030202F1604202F564421168DB0003F01803E0229A40D6
:400180000A4022FA03F306E00F2B03D1134B1B681B0E00E0002383F31188114A136801331360012B01D101F0B1FD62B6FFF7C8FF72B684F3118801F0C7FA094A1368013BF0
:4001C00013601BB901F0ABFD01F06FFD62B6BDE819408546704700BF04ED00E020ED00E0A483FF1F08B5002000F08AFB20B10121022001F039F908BD012000F081FB18B1C3
:400200000221084601F030F908BD00BF684620F007018D4619B572B6EFF311841E4B1B68DBB20F2B10D9103B23F0030202F1604202F564421168DB0003F01803E0229A403A
:400240000A4022FA03F306E00F2B03D1134B1B681B0E00E0002383F31188114A136801331360012B01D101F051FD62B6FFF7BAFF72B684F3118801F067FA094A1368013BFD
:4002800013601BB901F04BFD01F00FFD62B6BDE819408546704700BF04ED00E020ED00E0A483FF1F10B50024084B1C60084AD36843F08073D360074B5C601A6842F0010204
:4002C0001A6000F011FB204610BD00BFC482FF1FF0ED00E0001000E020B370B4044623B3012903D0032901D0042900D102B3187808B3052922D809B1022900D10AB314487F
:400300000579092D20D86E1C067100EB8500846000206060217160712360A060E0602061626113E06FF0010070476FF001000DE06FF001000AE06FF0130007E06FF0130006
:4003400004E06FF0130001E06FF0070070BC7047C482FF1F08B310B504464379012B1FD00379032B03D0012B01D0042B03D16369CBB1012098472279931EDBB2012B03D853
:400380000A4B1B68A36004E0012A02D8084B5B68A36001236371002010BD6FF0010070476FF0090010BD6FF0010010BDC482FF1F001000E0C3688268934204D301699B1ACE
:4003C0000B44036103E001699B1A0B4403610020704700BF40B338B503464279013AD2B2012A24D801798A1ED2B2012A03D8134A1268C26004E0012902D8114A5268C26071
:400400001C461846FFF7D6FF05462379032B03D0012B01D0042B03D163695BB10020984703236371284638BD6FF0010070476FF0160038BD6FF0010038BD00BFC482FF1F1C
:40044000001000E003690248A0FB0330400A7047F119760500B583B001A9002001F016F9019801F025FE01F04BFE0C4B83FB0032C317C3EBE2134FF4FA6202FB130303F5BB
:400480007A739BB2064A53805188002289B2032000F0C6FD002003B05DF804FBD34D6210F482FF1F10B586B000F0CAF90D4CE3899BB201339BB2E3814FF47A73A380A18865
:4004C000002289B2042000F0ABFDE3899BB2064A142101A801F04EFE01A800F0F3FC002006B010BDF482FF1F582A000030B591B001F0CCFA5B2820D1134800F0E3FC134DA3
:400500002846FFF79FFF0346114A3C2101A801F031FE01A800F0D6FC0E4C237C0133DBB22374A3899BB201339BB2A3812846FFF789FFA3681844A06002E0074800F0C2FCE3
:40054000002011B030BD00BF642A00008083FF1F882A0000F482FF1FA42A000030B591B001F094FA062820D1134800F0ABFC134D2846FFF767FF0346114A3C2101A801F0B0
:40058000F9FD01A800F09EFC0E4C237C0133DBB22374A3899BB201339BB2A3812846FFF751FFA3681844A06002E0074800F08AFC002011B030BD00BF642A00008083FF1FA5
:4005C000882A0000F482FF1FA42A000030B595B00E4C0025E581A368227CD2B2B3FBF2F2A389A168019200919BB2094A462102A801F0C0FD02A800F065FC064800F062FCCA
:40060000A389DBB26374284615B030BDF482FF1FC42A0000F42A000010B50446264BDB899BB22BB9254B002211462548FFF754FE214B1B78DBB2012B0CD013B1022B15D04D
:4006400037E014F0030F34D0FFF704FF01221A4B1A702EE014F0080F2BD0FFF723FF0222154B1A701648FFF775FE22E01448FFF7B1FE14F0010F01D0FFF738FF14F0020F03
:4006800001D0FFF76BFF14F0040F02D00D4800F019FC00230A4A1361074C237000F00EF9094800F00FFCE3899BB20A2B01D1FFF78DFF002010BD00BFF482FF1F302B0000D5
:4006C0008083FF1F402B0000F42A0000024610B119B1012302E0012300E000237BB1B1FBF2F101B90121074B186801301860B0FBF1F301FB1300B0FA80F040097047012065
:40070000704700BF0883FF1F10B4114B5B68DCB21B0A012B05D013B1022B06D009E0047009E0E34303700C7005E0E3430B70147001E0E4431470064A536801335360B3F5B1
:40074000806F02D30022024B5A60002010BC70470883FF1F10B582B0034600B9D9B11846FFF7B4FFD0B100248DF807408DF8064002AA02F8034D0DF106010DF10700FFF784
:40078000C3FF9DF805209DF806109DF8070000F063F9204603E06FF0130000E0002002B010BD00BF30B4124B9C6804EB44056B00104D2B449B8800FB03F00F4BA3FB003044
:4007C000C00AB0FBF1F101B901210948C3680133C360994207D80023C3600134B4FBF2F302FB13448460024B986830BC704700BF0883FF1F4C2B00002D34A9F9C0B138B5C2
:400800000B460146BBB109224FF47A7000FB03F0FFF7C8FF094D420011184B0019462B440C469A785978285D00F008F9002038BD6FF0130070476FF0130038BD4C2B000010
:4008400010B501F05DFC104B184003D5013860F0010001300130C0B2012803D0022803D0802402E0062400E05B24002001F0FCF8204601F005F9012001F0F6F8204601F0C7
:40088000FFF8002010BD00BF0100008008B5FF22044B1A5401F0E8F8002001F0F1F8002008BD00BFCC80FF1F08B50020FFF7EEFF0120FFF7EBFF002008BD00BF08B5094B2A
:4008C000FF221A705A70002001F0CEF8002001F0D7F8012001F0C8F8002001F0D1F8002008BD00BFCC80FF1F08B5002000F07EFA002000F087FA002000F090FA08BD00BF1E
:4009000008B510B1012806D00BE001F0A5F8012809D0002008BD01F097F8012805D0002008BD002008BD012008BD012008BD00BF38B504460D46032824D8DFE800F0020994
:40094000101E084600F052FA104B1D55002038BD084600F057FA0D4B1D55002038BD084600F05CFA094B1D55002038BD29462046FFF7DEFF0134E4B200E00024022CF5D98D
:40098000002038BD6FF0130038BD00BF1883FF1F38B504460D46032824D8DFE800F00209101E084600F022FA104B1D55002038BD084600F027FA0D4B1D55002038BD0846DA
:4009C00000F02CFA094B1D55002038BD29462046FFF7AEFF0134E4B200E00024022CF5D9002038BD6FF0130038BD00BF1883FF1F38B50024254609E000210F4B195520461B
:400A0000FFF796FF00B105460134E4B2022CF3D901F076F801F0B6F801F0F6F8002407E000212046FFF7B4FF00B105460134E4B2022CF5D9284638BD1883FF1F38B50D4633
:400A4000144601F0EFF8284601F0F8F8204601F001F9002038BD00BF38B50D461446C0B201F02EF8E8B201F06DF8E0B201F0ACF8002038BDFEE700BFF0B40022174611E0C9
:400A800050F82760F3B226F0FF0608E001EB420511F812406D78A5550132013BDBB2002BF4D101371F2FEBD9F0BC7047064B1B78DBB203F00701054A11701B0901321370A3
:400AC0004422034B1A707047CF0100496E5800407658004008B50A46002101F0E0FA08BD38B500242A4B1C80582202331A70022202331A80182327490B70192502310D80A4
:400B000002310B7041F2BF200231088002310B70214B1A7008224FF040231A70032103F5007319701D4B1B78DBB21D490B701D4B1A8041F25122023B1A800CE01A4B1B785C
:400B400003F0010343EA440404F003044FF4F07001F08EF8013D0DB1032CEFD115B90320FFF788FF114B4FF480721A8007221A7000220F490A704820023108701A70022208
:400B8000033B1A700B4A137843F00F03137038BD80400040864000400043004008010049A146004022420040254200400440004006400040A243004008B501F065FA08BD82
:400BC00038B572B600240CE0374D630019194A0011462A44084691882858FFF77BFF0134E4B2072CF0D900240BE02F48A20011194B0003441A8F596B186BFFF7DDFF0134AF
:400C0000E4B2012CF1D929494FF09040FFF734FF274A137843F0020313701032137843F002031370234C237843F040032370A2F58632513A137843F01003137008221E496C
:400C40001E48FFF7B9FF0A221D491E48FFF7B4FF08221D491D48FFF7AFFF08221C491D48FFF7AAFF08221C491C48FFF7A5FF08221B491C48FFF7A0FF1B4A137843F0080351
:400C800013701A4D61232B70FFF72AFF81232B700122174B1A70FFF709FF0E2221461548FFF78AFF38BD00BF842B00008000004803500140A0430040B007004802510040D9
:400CC000B8070048C0510040C4070048F2510040CC07004812510040D407004822510040DC07004832510040224300400048004004000840B043004008B501F099F903682D
:400D00000C2B00D1FEE7FEE708B5094B1A681044084BC31A802B02DC054B186005E001F087F90C2303604FF0FF32104608BD00BFD080FF1F088EFF1F08B5104E104D16E0B7
:400D400029686B68AC68002204E051F8040B43F8040B0432A242F8D1E868002203E0002143F8041B04328242F9D11035013E002EE6D101F063F9FFF785F9FEE701000000CC
:400D8000842F000008B5104A104B1A60104A136843F40073136000230AE0032B03D80D4A52F8231000E00C490C4A42F8231001332F2BF2D90A4B1A780A4B1A70074A0A4BFB
:400DC0001A60FFF7FDFE08BD0004FA050CED00E014ED00E000000000F90C00000080FF1FBC760040C080FF1F08ED00E0044A137803F0BF03800100F04000184310707047ED
:400E000000510040044A137803F0FE0300F0010018431070704700BF20510040044A137803F07F03C001C0B218431070704700BF005100407222074B1A702022053B1A7082
:400E40000622A5331A70472210331A700022AF3B1A7070478964004010B500F011FF04460A4A137843F020031370053A137843F0100313700632137843F01003137000F062
:400E800033F8204600F000FF10BD00BF9964004008B5054B1B7823B9FFF7CCFF0122024B1A70FFF7D9FF08BD1B83FF1F034B1B7813F0040FFAD1024B187070476A64004007
:400EC0004864004038B5074B1B782BB938BDFFF7EDFF0134A4B201E005460024285D0028F5D138BD1B83FF1F054A137843F0040313701032137843F004031370704700BFE3
:400F0000A243004001BE704738B504460D46072902D90020FFF7F6FF1F2C02D90020FFF7F1FF04F01F0000F1604000F564406D01EDB2057038BD00BF38B5EFF3108572B64B
:400F400004284ED82D4B53F82030002B4BD02B4A013B42F820302A4B53F82030032B07D10222274B43F820200022264B43F8202000F05AFC244B1B68002B36D1234B1C68FA
:400F800000F030FCB0F1FF3F31D0214B53F82020204B1B689A422CD9B4F1FF3F03D00221174A42F824101C4A52F820201343194A13600022124B43F8202000F0CFFB174B95
:400FC00053F820304BB10024144B43F8204040F0004000F0ADFE20460CE000F0A9FE002008E0032006E0042004E0002002E0002000E0002085F3108838BD00BF4881FF1F62
:40100000F481FF1F5083FF1FA483FF1FDC81FF1F042E00006C83FF1FD82D00002883FF1FF8B5EFF3108472B6042825D800EB4005AB00184DEB5803EB4306B500164E75594A
:401040008D421BD34AB103EB43039E00124B1E44B3689A4214D3954214D3A9B103010F4DEB589BB90301EE180127EF507260013900F086F800200AE0032008E0082006E02C
:40108000082004E0082002E0082000E0072084F31088F8BD382D00009C2D0000A48BFF1F18B108B5C368984708BD704708B508B1406800E00020042816D80C4B53F8203076
:4010C00093B10A4A013B42F82030094B53F82030032B07D10222064B43F820200022054B43F8202000F0A0FB08BD00BF4881FF1FF481FF1F5083FF1F18B1034640689B6889
:4011000001E00023184604281DD80F4A52F82020CAB10E4A52F82010032914D010B50C4C54F820201A4344F820200A4A52F82020134207D0012905D10222044B43F8202072
:4011400000F072FB10BD7047B02D0000F481FF1F5083FF1F3C83FF1F80B108B50378012B06D013B1032B06D008BDFFF79FFF08BDFFF7C2FF08BDFFF793FF08BD704700BFC0
:4011800030B400EB40029300214AD258214B03EBC2035C68B4F1FF3F04D11E4B03EBC20250602DE01C4B03EB04139B6899420AD2184D05EBC2025060174A02EB04125B1ABB
:4011C00093601DE01C46144B03EB04139A68891ADB68B3F1FF3F05D00F4A02EB031292689142EFD2B3F1FF3F05D00B4A02EB031295686D1A9560084A02EB0414E0601C4631
:40120000054B03EB00108160C46030BC704700BF382D0000E880FF1FA48BFF1F38B5394A02EBC0035C6852F83030013342F8303000EB40018A0034498A58934203D900227D
:40124000304B43F83020B4F1FF3F59D02F4B03EB04139B68002B4ED1214600E019462B4B03EB0113DB68B3F1FF3F05D0274A02EB03129268002AF1D0244A02EB01114FF074
:40128000FF32CA601F4A02EBC0004360B3F1FF3F07D01E4A02EB03139A68013A9A6000E02C4604EB44029300194A13441B7A7BB904EB44029300164A13445A68154B53F836
:4012C000223003EB83039A0013481044FFF744FF0E4B03EB0413DD68596821B101392046FFF74EFF03E024010022084B1A51B5F1FF3FD5D138BD054A02EB0414013BA36093
:4013000038BD00BFE880FF1F9C2D0000A48BFF1F382D0000882D0000D42C000038B5EFF3108572B6002838D1FFF778FF204B1B68002B34D11F4B1C6800F054FAB0F1FF3FF0
:401340002FD01D4B53F820201C4B1B689A422AD9B4F1FF3F03D00221194A42F82410194A52F820201343154A13600022144B43F8202000F0F3F9144B53F820304BB1002401
:40138000114B43F8204040F0004000F0D1FC20460AE000F0CDFC002006E0032004E0002002E0002000E0002085F3108838BD00BFA483FF1FDC81FF1F042E00006C83FF1F0E
:4013C000F481FF1FD82D00002883FF1FEFF3108372B6114A1168114A126882B9B1F1FF3F0FD00F4A52F821206AB110B40D4C54F8212022EA000044F82100002007E0022011
:4014000002E0022000E0012083F31088704783F3108810BC704700BFDC81FF1FA483FF1FB02D00005083FF1F04280FD80B4B53F820306BB10A4B53F82030032B0AD059B1E2
:40144000084B53F820300B60002070470320704701207047072070470E207047B02D0000F481FF1F5083FF1F38B5EFF3108472B6042853D8324B53F82030002B50D0314BA5
:4014800053F82030032B4DD02F4D55F820200A4345F820202D4A52F82020114244D0012B44D10222274B43F8202000F0BDF9284B1B68002B3CD1274B1D6800F093F9B0F1D1
:4014C000FF3F37D0244B53F82020244B1B689A4232D9B5F1FF3F03D002211A4A42F825101F4A52F8202013431C4A13600022154B43F8202000F032F91A4B53F820304BB1F1
:401500000025184B43F8205040F0004000F010FC284612E000F00CFC00200EE003200CE001200AE0072008E0002006E0002004E0002002E0002000E0002084F3108838BD4D
:40154000B02D0000F481FF1F5083FF1F3C83FF1FA483FF1FDC81FF1F042E00006C83FF1FD82D00002883FF1F38B5EFF3108472B63A4B1D683A4B1B68002B63D1B5F1FF3F80
:4015800062D0384B53F82530B3F1FF3F5ED1364B53F82530002B5BD0344B53F82530034258D1334B43F825000122324B43F82520314B53F8250031490B6823EA00030B606F
:4015C0002F4B43F825202F4B53F82520234B1A6000F008F9B0F1FF3F06D02B4B53F82020264B1B689A420DD81C4B1868B0F1FF3F03D000221F4B43F8202040F0004000F0A3
:4016000097FB1AE000211B4A42F820101A4A52F820201343194A136000F0A0F8184B53F8203043B10022164B43F8202040F0004000F07EFB01E000F07BFB00200C4B43F8CA
:40164000250008E0022006E0022004E0062002E0012000E0002084F3108838BDDC81FF1FA483FF1FF880FF1FB02D00005083FF1F3C83FF1FF481FF1FD82D00006C83FF1F7C
:401680002883FF1FE081FF1F042E0000EFF3108372B629B130B9054A52F830200A6002E00E2000E0032083F310887047E880FF1F08B500F053F8084B53F8203043B10022A3
:4016C000054B43F8202040F00040044B186008BD024B186008BD00BF2883FF1FA883FF1F10B500F07FF8124B1B68B0F1FF3F1AD0104A52F82010104A1268914213D9B3F1E8
:40170000FF3F03D002240D4941F8234000210B4B43F820100A4B53F820301A43064B1A60FFF7C6FF10BD43F00043064A136010BDDC81FF1F042E00006C83FF1FF481FF1FAB
:40174000D82D0000A883FF1F034B1B6813B10022014B1A60704700BF9883FF1FF0B4184B19880B0A174AD356B3F1FF3F01D1535601E008335BB2144D55F82320134850F88E
:401780002200134E56F8224045F82340114D2F6846F822702A60B4F1FF3F09D10E4A42F82340012202FA03F321EA0301044B19800A4B19680A4A42F820101860F0BC7047DA
:4017C0006883FF1FC82B00009C81FF1F7C8BFF1F2081FF1F6483FF1F5C81FF1FDC81FF1FE081FF1F0C4B1A88130A0C49CB56B3F1FF3F01D18B5601E008335BB2B3F1FF3FA8
:4018000006D0074A52F82320064B53F8220070474FF0FF30704700BF6883FF1FC82B00009C81FF1F7C8BFF1F30B4144B53F82020134C2368134951F823502560124C44F850
:4018400023004FF0FF3441F82340104951F82210A1420AD10E4951F820400E480188214301800D4941F8223002E0064840F82130064941F8223030BC704700BF3481FF1F38
:401880006483FF1F2081FF1F7C8BFF1F5C81FF1F042E00006883FF1F9C81FF1F10B150F8210070474FF0FF30704700BF0122014B1A60FEE7A083FF1F70B50546124B53F8E2
:4018C000306000241CE0104B03EBC50321465868FFF7E4FF0D4A52F82030013B42F820300B4B53F82030032B07D10222084B43F820200022074B43F82020FFF795FF0134D9
:40190000B442E0D370BD00BFC82C00004881FF1FF481FF1F5083FF1F18B908B5FFF7CCFF08BD7047194B1A4ADA621A4A9A631A4ADA63EFF3108272B6184B1B6813BB10B5CD
:40194000044600F05DF8164B1C600122134B1A602046FFF7E1FFFFF745FFB0F1FF3F0ED0104B53F82030104A11680B43136000220E4B43F82020FFF7F1FE00F0D9F962B68E
:40198000FFF794FF82F31088072070470080FF1FF11C0000B51C00004D010000A083FF1FFC8BFF1FD82D00006C83FF1FF481FF1F08B5EFF3108272B60D4B19680D4B1B6851
:4019C00063B90D4B53F82130B3F1FF3F08D14FF0FF300A4B43F82100002002E0022000E0062010B9084600F0FCF982F3108808BDDC81FF1FA483FF1FF880FF1F0C81FF1F04
:401A000038B50D4B1D68EFF3108472B600F040F90A4A136843F07F431360094B2B6407210020FFF771FA074A136843F00103136084F3108838BD00BF08ED00E020ED00E057
:401A40000D02000000E100E0024B1878C0F30010704700BF01510040024B1878C0F3C000704700BF01510040044A137803F0DF03400100F020001843107070473051004044
:401A8000014B1870704700BF79650040014B1878704700BF79650040024A137843F080031370704778640040014B1870704700BF04640040014B1870704700BF4464004047
:401AC000014B1870704700BF2464004008B50B4A137803F0C00343F0090313701C32137843F001031370FF20FFF7DEFFFF20FFF7E1FF0020FFF7E4FF08BD00BF78640040AC
:401B000008B5054B1B7823B9FFF7E0FF0122024B1A70FFF7C1FF08BD7483FF1F024A137843F08003137070477B640040014B1870704700BF0B640040014B1870704700BFA1
:401B40004B640040014B1870704700BF2B64004008B50B4A137803F0C00343F0090313702032137843F001031370FF20FFF7DEFFFF20FFF7E1FF0020FFF7E4FF08BD00BF4D
:401B80007B64004008B5054B1B7823B9FFF7E0FF0122024B1A70FFF7C1FF08BD7583FF1F024A137843F080031370704775640040014B1870704700BF05640040014B187083
:401BC000704700BF45640040014B1870704700BF2564004008B50B4A137803F0C00343F0090313702032137843F001031370FF20FFF7DEFFFF20FFF7E1FF0020FFF7E4FFE7
:401C000008BD00BF7564004008B5054B1B7823B9FFF7E0FF0122024B1A70FFF7C1FF08BD7683FF1F044A137803F0DF03400100F0200018431070704720510040044A13780F
:401C400003F0EF03000100F0100018431070704720510040044A137803F0FB03800000F00400184310707047F0510040000000000230800803D000BF01380046FCD170479B
:401C8000EFF3108072B6704780F31088704700BF18484FF47F0102680A43026016486FF07F4102680A400260704714484FF080510160704772B611484FF000610160FFF7D0
:401CC0000FFD0F48006800F0F3F858B10C4800684FF080730B4A0C490FB40FB46FF00600004700BF6FF0060062B6004762B600DF08B0704720ED00E01CED00E004ED00E0DB
:401D0000A883FF1F311D0000ED1C0000EFF30880054908600548006880F3088870470248006880F3088870474082FF1F3482FF1F411C8900154A11440968154A1368994294
:401D40001AD0F0B444464D4656465F46F0B400B5104C9B002344EFF308851D60116089002144096881F3088802BC8E46F0BCA046A946B246BB46F0BC002806DB00B500F09A
:401D80008BF802BC8E46FFF7D3BF7047402E00007083FF1F3882FF1FF0B444464D4656465F46F0B400B5EFF3038308B48000174901440968164A0244EFF30883136088470E
:401DC0001448804704BC4FF08070024382F3038801BC8646F0BCA046A946B246BB46F0BC704780000A4901440A6882F3088804BC4FF08070024382F3038808BC9E46F0BC0F
:401E0000A046A946B246BB46F0BC7047182E0000908BFF1F191E000010B572B6034B1C68204600F00DF82046FFF7DBFFDC81FF1F08B5024B1868FFF7AFFF08BDDC81FF1F82
:401E400010B4104B53F820304FF0FF310BE00E4A52F823200B4941F8202000240B4941F8234019461346B3F1FF3FF0D1B1F1FF3F04D0074B53F82120064B1A60084610BCB6
:401E8000704700BFF880FF1FF080FF1F2083FF1FF48BFF1F6C83FF1F08B562B6FFF7C8FF72B600F041F8014B186808BDA883FF1F00280BDA20F000400130054B53F8200017
:401EC000044B1B68181A18BF0120704701207047402E00007083FF1F054B53F82020054B53F820309A4201D101207047002070474881FF1FC42D000008B5FFF72FFC084BAC
:401F000053F8203043B10022054B43F8202040F00040044B186008BD024B186008BD00BF2883FF1FA883FF1F38B5364B1C680022354B1A60354A52F82430013342F82430E1
:401F4000334B53F824502046FFF7C6FF012801D0A54204D103222F4B43F8242003E002222C4B43F824202C4B53F824102B4A136823EA010313602A4B53F82440214B1C60BC
:401F8000B5F1FF3F0FD0234B53F82530032B07D10222204B43F825200022224B43F825202846FFF741FCFFF71DFCB0F1FF3F0BD1B4F1FF3F03D00022164B43F8242044F0D5
:401FC0000044194B1C6038BD184B53F82020134B1B689A4208D800220E4B43F8242044F00044114B1C6038BD00210A4A42F82010094A52F820201343084A1360FFF77CFFB6
:4020000038BD00BFDC81FF1F9883FF1F4881FF1F0C81FF1FF481FF1FD82D00006C83FF1FE081FF1F5083FF1FA883FF1F042E0000014B1868704700BFA482FF1F0E4B70B512
:402040001E460E4C0025E41AA410A54204D056F8253098470135F8E700F082FF084B094C1E46E41AA4100025A54204D056F8253098470135F8E770BD6C2F00006C2F000070
:402080006C2F0000742F000010B5431E0A44914204D011F8014B03F8014FF8E710BD03460244934202D003F8011BFAE77047000038B5124B05461C68A36BD3B9182000F0BB
:4020C0008BF843F20E33A06303804AF6CD33438041F2342383804EF26D63C3804DF6EC630381052343810B23838101220023C0E90423A36B00221D615A6138BDA482FF1F92
:40210000194B10B51C68A36BD3B9182000F064F843F20E33A06303804AF6CD33438041F2342383804EF26D63C3804DF6EC630381052343810B23838101220023C0E90423AB
:40214000A16B0A4C0B6948695C43094A02FB0040A3FB02230132034443F10003C1E9042323F0004010BD00BFA482FF1F2DF451582D7F954C0CB430B5164B0C1E9DB01D68E8
:4021800004DA8B232B604FF0FF301EE04FF40273ADF814300CBF234604F1FF33049307934FF6FF7302900690ADF81630209A21AB02A92846019300F01BF9431CBCBF8B23E6
:4021C0002B6014B1029B00221A701DB0BDE8304002B07047A482FF1F024B0146186800F04FB800BFA482FF1F38B50546002944D051F8043C0C1F002BB8BFE41800F0C1FB36
:402200001E4A1368114613B96360146030E0A3420DD92268A018834201BF18685B681218226063600C6023E0A24203D813465A68002AF9D118681918A1420BD12168014492
:4022400058188242196013D110685268014419605A600DE002D90C232B6009E021686018824201BF106852680918216062605C602846BDE8384000F085BB38BD7C83FF1F14
:4022800070B5CD1C25F0030508350C2D38BF0C25002D064601DBA94202D90C23336046E000F06FFB234B1C681A462146A1B10B685B1B0ED40B2B03D90B60CC18CD501EE0A6
:4022C0008C420BBF63684B681360636018BF0C4615E00C464968E9E7174C23681BB9304600F016FB20602946304600F011FB431C18D0C41C24F00304A0420DD1256030460A
:4023000000F040FB04F10B00231D20F00700C31A0ED05A42E25070BD211A304600F0F8FA0130EBD10C233360304600F02BFB002070BD00BF7C83FF1F7883FF1F2DE9F04708
:402340008E6882469E420C46914698463ED88A8912F4906F3AD02568096902236F1A656905EB450595FBF3F57B1C43449D4238BF1D4653050FD52946FFF782FF064698B145
:402380003A462169FFF780FEA38923F4906343F08003A38113E02A4600F0F5FA064670B921695046FFF720FF0C23CAF80030A3894FF0FF3043F04003A381BDE8F0872661AB
:4023C0003E44266046466561ED1BA560464528BF464649463246206800F0B8FAA36800209B1BA36023681E442660BDE8F08700002DE9F04F9DB003938B8980461C060D464D
:4024000016460DD50B695BB94021FFF739FF2860286118B90C23C8F80030CDE040236B610023099320238DF82930DFF89CB130238DF82A3037463C4614F8013B1BB9B7EB77
:40244000060910D003E0252BF9D02746F3E74B46324629464046FFF771FF013000F0A780099B4B4409933B78002B00F0A08000234FF0FF3204930793059206938DF85330C5
:402480001A930126052221784E4800F051FA671C049B38B14B4A3C46801A06FA00F018430490EFE7D90644BF20228DF853201A0744BF2B228DF8532022782A2A03D0079A5F
:4024C00000210A200BE0039A111D12680391002A10DA524243F00200079204900BE027463B780134303B092B03D800FB02320121F5E701B107923B782E2B1ED17B782A2B4E
:402500000AD1039B02371A1D1B680392002BB8BF4FF0FF33059310E0002319460593781C0A2407463A780130303A092A03D804FB01210123F5E703B10591032239782248D0
:4025400000F0F6F940B14023CBEB000003FA00F0049B013718430490397806221B487E1C8DF8281000F0E4F988B1194B33B9039B073323F007030833039314E003AB0093DB
:402580002A46144B04A94046AFF3008007E003AB00932A460F4B04A9404600F093F8B0F1FF3F824603D0099B5344099342E7AB895B0601D4099801E04FF0FF301DB0BDE811
:4025C000F08F00BF2A2F0000302F0000342F0000000000003D2300002DE9F04791461F460A698B6806469342B8BF1346C9F8003091F843200C46DDF8208012B10133C9F8E6
:4026000000302368990642BFD9F800300233C9F80030256815F0060510D104F1190A07E00123524639463046C04701301AD00135E368D9F800209B1A9D42F1DB94F84330F7
:402640002268003318BF012392060FD5E118302081F843005A1C94F845102244023382F8431003E04FF0FF30BDE8F08704F1430239463046C0470130F4D02268D9F800501F
:40268000E36802F00602042A08BF5D1B2269A3680CBF25EAE57500259342C4BF9B1AED184FF000091A344D4509D00123224639463046C0470130D5D009F10109F3E700200A
:4026C000BDE8F0872DE9F04317460A7E85B06E2A984606460C460C9B01F1430E00F0AE8011D8632A22D009D8002A00F0BB80582A40F0CA8081F84520834955E0642A1ED04A
:40270000692A1CD0C0E0732A00F0B08009D86F2A2ED0702A40F0B8800A6842F020020A603EE0752A24D0782A3AD0ADE01A6801F14205111D1960136884F84230A8E021684D
:402740001A6811F0800F02D0111D196008E011F0400F02F10401196002D0B2F9003000E01368002B3CDA2D225B4284F8432037E021681A6811F0800F02D0111D196007E0FF
:4027800011F0400F02F10401196001D0138800E01368227E5C496F2A14BF0A2208221BE078225A4984F845202268186812F0800F00F104051D6003D1550601D5038800E0EF
:4027C0000368D00744BF42F0200222601BB9226822F0200222601022002084F8430001E049490A226568002DA56008DB206820F0040020602BB9002D7DD175460CE0002BCB
:4028000079D07546B3FBF2F002FB1033CB5C05F8013D03460028F5D1082A0BD12368DA0708D5236962689A42DEBF302305F8013C05F1FF35C5EB0E0323612EE008681A6809
:4028400010F0800F496903D0101D1860136808E010F0400F02F104001860136801D0198000E0196000232361754616E01A68111D1960156800216268284600F059F808B1EF
:40288000401B6060636804E004F1420584F8422001232361002384F84330CDF800803B4603AA21463046FFF797FE013002D14FF0FF3026E023692A4639463046C0470130FE
:4028C000F5D023689B0710D5002504F1190907E001234A4639463046C0470130E7D00135E368039A9B1A9D42F2DBE068039B9842B8BF184605E00B7804F1420584F84230A0
:402900008AE705B0BDE8F0833B2F00004C2F000038B5064C0023054608462360FEF7F4F9431C02D1236803B12B6038BD008EFF1F10B5C9B202449042034605D01C7801303C
:402940008C42F8D1184610BD002010BD884210B501EB020301D8421E0BE09842FBD28118D21AD34204D013F8014D01F8014DF8E710BD994204D011F8014B02F8014FF8E776
:4029800010BD70477047F8B5074615460E4621B91146BDE8F840FFF773BC1AB9FFF724FC2846F8BD00F015F885420ED929463846FFF766FC044650B131462A46FFF764FB7D
:4029C00031463846FFF710FC01E03046F8BD2046F8BD51F8040C0028BEBF091851F8043CC018043870470000000000000D0A0D0A3D3D3D3D3D3D3D3D3D3D3D3D2057656CF4
:402A0000636F6D6520746F20746865205265616374696F6E2047616D65203D3D3D3D3D3D3D3D3D3D3D3D0D0A7072657373206F6E65206F66207468652074776F20627574C2
:402A4000746F6E7320746F2073746172742E2E2E0D0A0D0A00000000526F756E643A2025750D0A004772656174202D20636F727265637420627574746F6E2070726573731B
:402A80006564210D0A0000005265616374696F6E2074696D6520696E206D733A2025750D0A0000004F6F7073202D2077726F6E6720627574746F6E207072657373656421E1
:402AC0000D0A000053636F72653A202575207C20546F74616C2054696D653A2025756D73207C204176672054696D653A2025756D730D0A003D3D3D3D3D3D3D3D3D3D3D3D3C
:402B00003D3D3D3D3D3D3D3D3D3D3D3D3D3D3D3D3D3D3D3D3D3D3D3D3D3D3D3D3D3D3D3D3D3D3D3D3D3D3D3D3D3D0D0A0000000047616D6520416E616C797A65720000009C
:402B4000546F6F20736C6F77210D0A00FF000000F40100FF0000F4010000FF00F401000000006400FFFFFF006400000000006400FFFFFF006400000000006400FFFFFF003F
:402B800064000000004F00400C0040510040300000000140800C000D0140000300140140000800400140000A004C0140000200500140200060520040280700480600800CD4
:402BC0000140300700488000FF00010102020202030303030303030304040404040404040404040404040404050505050505050505050505050505050505050505050505BC
:402C0000050505050505050506060606060606060606060606060606060606060606060606060606060606060606060606060606060606060606060606060606060606061C
:402C4000060606060606060607070707070707070707070707070707070707070707070707070707070707070707070707070707070707070707070707070707070707079C
:402C80000707070707070707070707070707070707070707070707070707070707070707070707070707070707070707070707070707070707070707070707070707070754
:402CC000070707070707070701000000D02C00000000000000000000020000000000000000000000FFFFFFFF00000000040000000000000000000000FFFFFFFF00000000A1
:402D0000040000000000000000000000FFFFFFFF01000000020000000800000000000000FFFFFFFF01000000020000000400000000000000FFFFFFFF000000000000000089
:402D40000000000000000000010000000000000000000000020000000000000000000000030000000000000000000000040000000000000000000000010000000200000046
:402D800003000000040000000000000001000000020000000300000004000000A08601000100000000000000000000000000000000000000000000000100000000000000D9
:402DC00000000000010000000100000001000000010000000100000080000000010000002000000002000000400000000100000002000000040000000800000000000000DC
:402E0000010000000200000001000000200000000200000040000000AD0000003D010000ED000000350100001D010000311E0000311E0000311E0000311E0000311E000075
:402E4000000000000000000000000000010000000000000000000000616C726D5F5469636B316D00616C726D5F617263616469616E000000616C726D5F7466740000000086
:402E8000616C726D5F72616E646F6D00616C726D5F74696D656F75740000000065765F627574746F6E4C65667400000065765F627574746F6E5269676874000065765F7491
:402EC000696D656F7574000065765F72616E646F6D446F6E650000007265735F726E64007265735F6F75740074736B5F696E69740000000074736B5F6261636B67726F75AC
:402F00006E64000074736B5F67616D650000000074736B5F7466740074736B5F617263616469616E000000004300232D302B2000686C4C0065666745464700303132333465
:402F40003536373839414243444546003031323334353637383961626364656600000000F8B500BFF8BC08BC9E4670474D000000850D0000F8B500BFF8BC08BC9E4670476A
:402F800029000000982F0000C880FF1FE0010000600B00000000000000000000FFFF0000088EFF1F582E0000642E0000742E0000802E00008C2E000000000000FFFFFFFF9F
:402FC000FFFFFFFFFFFFFFFFFFFFFFFFFFFFFFFFFFFFFFFFFFFFFFFFFFFFFFFFFFFFFFFFFFFFFFFFFFFFFFFFFFFFFFFFFFFFFFFF01000000020000000300000004000000F7
:40300000FFFFFFFF01000000000000000500000001000000060000000100000001000000010000000100000001000000FFFFFFFFFFFFFFFFFFFFFFFFFFFFFFFFFFFFFFFF96
:40304000FFFFFFFFFFFFFFFFFFFFFFFFFFFFFFFFFFFFFFFFFFFFFFFFFFFFFFFFFFFFFFFFFFFFFFFFFFFFFFFFFFFFFFFFFFFFFFFFFFFFFFFFFFFFFFFFFFFFFFFFFFFFFFFF90
:40308000FFFFFFFFFFFFFFFFFFFFFFFFFFFFFFFFFFFFFFFFFFFFFFFFFFFFFFFFFFFFFFFFFFFFFFFFFFFFFFFFFFFFFFFFFFFFFFFFFFFFFFFFFFFFFFFFFFFFFFFFFFFFFFFF50
:4030C000FFFFFFFF03000000030000000300000003000000030000009C2E0000AC2E0000BC2E0000C82E0000D82E0000E02E0000E82E0000F42E0000042F0000102F000083
:40310000182F0000008EFF1F00000000548BFF1F000000000000000000000000000000000000000000000000000000000000000000000000282F0000000000000000000048
:40314000000000000000000000000000000000000000000000000000000000000000000000000000000000000000000000000000000000004482FF1F00000000000000006B
:40318000000000000000000000000000000000000000000000000000000000000000000000000000000000000000000000000000000000000000000000000000000000000F
:4031C00000000000000000000000000000000000000000000000000000000000000000000000000000000000000000000000000000000000000000000000000000000000CF
:40320000000000000000000000000000000000000000000000000000000000000000000000000000000000000000000000000000000000000000000000000000000000008E
:40324000000000000000000000000000000000000000000000000000000000000000000000000000000000000000000000000000000000000000000000000000000000004E
:020000040003F7
:0200000480007A
:40000000024F004004520040046400400403014067040140430501400C070140500801404D0901406A0A0140490B0140080C01403F0D0140010F01400115014002170140C2
:400040004E1801404C1901400E1B0140024001400A410140074201400643014006440140044501400146014002480140024901400F4C01400E4D0140065001400151014090
:4000800001300A3600400180083909AA843889728A0F8C0F86018B048D04E01805060604071809040B1A0E040F0110701512170C18191A201B011E022428265328202A4B15
:4000C0002D0A2F1430783404351E3603370138023B203E103F40403041054721483049FF4AFF4BFF4DA04F0450185418580459045A045B045D215F01604062C0644065409C
:4001000066C068C06AC06CC06EC087018A0492019302950896019B049F01A202A604A908B002B102B301B404B504B601B708B980BF40C010C106C501C620C809C9FFCAFF60
:40014000CBFFCDA0CF04D018D280D804D904DA04DB04DC11DD11DF01E040E2C0E440E540E6C0E8C0EAC0ECC0EEC00140031007040A410B040EA0100413081480150818044A
:400180001A411C081E821F0221B02420274629802F08302435263740388039203B043F084304474048024F285002510457105A0260046180750283108A108CD09304960174
:4001C000980499849B08A404A601AA01AC04B004B180B308C045C23BC436CA28CCF6CE4ED012D228D601D80CE204E640EA28EC0181208A0196029D20A420A940AB02B30A53
:40020000B520E601E820EE04080110011801240132013B203E0440434102450E460C470B481549FF4AFF4BFF4EF04F44500C5280580459045A045B045C205D125F0166C005
:400240006A406B0280028110820D8472853C860887C289088C108DFF8E6090CD93E3944D95189680988D99809A409C019E329F04A144A280A4CDA5C0A812A9E7AA64AB18F9
:40028000ACCDAD1CAFE1B00FB338B480B51FB670B7C0BA82BB20BE10D602D711D804D904DB04DC20DD20DF0100080182052009110A020B200C010F84110812811310142063
:4002C000170419821B101E10200423262704280129202A063008326234083704382439803B014414450846804D045788580459045A106958701872047301774083408B0229
:40030000920293329484955C962099049A159B119CB09DA09E809F20A004A115A282A401A620A748A910AC02AD04B308B620C04DC25FC42FCA0FCC0FCE0FD0E0D604E22088
:40034000ECC0000202110501080109010A0E0D0118072404261128073101320736183E40406441034202440146EC480C49FF4AFF4BFF4C624DA04EF04F41500C5401580451
:4003800059045A045B045C225D225F016640670269106A306B106D106E106F12811085098620871088208D308E088F0C922093039401952C960E97119820A001A216A540DB
:4003C000A603A914AA1CAC1CAD1CAE03AF22B00FB21AB360B420B71FB820B908BA0AC030C106C510C620C80AC9FFCAFFCBFFCDA0CF04D018D280D804D904DA04DB04DC228C
:40040000DD11DF01E040E2C0E440E540E6C0E8C0EAC0ECC0EEC0001202040484052006020B040E100F881110122014111688171018111D141E101F012101220227112C1160
:400440002F093504370139583B043E8A402941014408472849204F2250105140571058825A205B04774078207B0480108B018D408F409202933095049A119B049D809E2055
:40048000A004A115A280AF08B310B404B501C0EAC272C4F6CA70CCC0CEDED04FD224D60FE290E610EC01EE80050135013F105602572459045B045F010018018009510B1089
:4004C000102812021302181419401A4020CA218122032318270429802A092B08302031803301388039023B103D044044480149044A804B105048521059055A405B20614095
:4005000066206C206DAA6E806F097601770288408A408B108C408D018E088F209410C007C20FC40FCA0FCC0DCE4DD005D20CD60FD828E008E6208C10EE02A820EA01000AC5
:400540000204040306040C030E0C16051C031E0420102A083410360F3A803E1058045C025F01800181088210831084028503880389038E239023920C942F971498049902D7
:400580009B019C0F9E209F10A008A101A302A40CA51CA623A80CAD1CB010B110B30CB40FB503B62CB808B908BAA0BE04BF05C006C604C9FFCA07CBFFCC40CD20CEF0CF0565
:4005C000D008D440D804D904DA04DB04DC22DD02DF01E040E1A8E240E3200002022604020544080809010A050C400D0810081305171119201A811B481D401F202101222874
:4006000029442A823040310832203380380239183B02408041014A08504051086290632069416B287014710173028010812187208D0191189204930794809680980899042A
:400640009A149B119C809D209E82A008A282A390A401A508A620A740AA10ABA0B540B704C0BFC2AFC45ECA0BCC0ECE07D204D80EE006872088018A029E02A320A401AD01CA
:40068000AF08B302B404B540B708E408E8083340CC10070209015C0262088D019F40C080C210D680D84053088E089B029F40A608B002D4201B08A708AB40B302C610EE80F8
:4006C000700476208C04DC01DE04E008522086209E20D404AA206410D880AC10EE405080562059015B405E015F4060086610808086108E20D407D607D803E40210407508EA
:4007000085088840AE01B340B408B501B740C408DE04E201E80EEC0200070A070C070E0110051C05000300009084000040000000003300445600090001C1003804820000C7
:40074000841800020A00100080180402049C8003841A0000841A0000600200180718380008137F0F80E002E0080000A8000051006504200000DEFC0B1FFFFFFF2200F00863
:40078000040000000900000004040404000000010000C00040011011C0010011400140010000000000000000000000000000000018C0C000C0000000800040BCBC00B40061
:4007C00000000000000404000000000000FFFF00FF000000003131000100000000383800080000000000000000000000000000000000000000000000000000000000000019
:4008000000000000000000000000000000000000000000000000000000000000000000000000000000000000000000000000000000000000000000000000000000000000B8
:400840000000000000000000000000000000000000000000000000000000000000000000000000000000000000000000000000000000000000000000000000000000000078
:400880000000000000000000000000000000000000000000000000000000000000000000000000000000000000000000000000000000000000000000000000000000000038
:4008C00000000000000000000000000000000000000000000000000000000000000000000000000000000000000000000000000000000000000000000000000000000000F8
:0200000490006A
:0400000000004007B5
:0200000490105A
:04000000BC90ACAF55
:0200000490303A
:020000002F9C33
:0200000490402A
:4000000000000000000000000000000000000000000000000000000000000000000000000000000000000000000000000000000000000000000000000000000000000000C0
:400040000000000000000000000000000000000000000000000000000000000000000000000000000000000000000000000000000000000000000000000000000000000080
:400080000000000000000000000000000000000000000000000000000000000000000000000000000000000000000000000000000000000000000000000000000000000040
:4000C0000000000000000000000000000000000000000000000000000000000000000000000000000000000000000000000000000000000000000000000000000000000000
:0200000490501A
:0C00000000012E16106900012E2A400598
:00000001FF