:4000000000800020110000002D0F00002D0F000008B5044B1A6803F53F5302331A6000F0A5FF00BFFA46004010B5054C237833B9044B13B10448AFF300800123237010BD5B
:400040007882FF1F00000000CC2B0000084B10B51BB108490848AFF300800848036803B910BD074B002BFBD0BDE81040184700BF000000007C82FF1FCC2B0000C880FF1FB2
:400080000000000008B562B645F6BF52054B1A60054A136843F002031360002001F088FDFBE700BF14E000E010E000E008B500F0EFF900F0E7FF00F07DFBFF2000F0BAFA6F
:4000C00001F0DAFD064A136843F005031360032001F042F8012001F03FF801F0AFFD08BD10E000E000BFFDE708B5002001F078FA08BD00BF684620F007018D4619B572B600
:40010000EFF311841E4B1B68DBB20F2B10D9103B23F0030202F1604202F564421168DB0003F01803E0229A400A4022FA03F306E00F2B03D1134B1B681B0E00E0002383F306
:400140001188114A136801331360012B01D101F035FF62B6FFF7C8FF72B684F3118801F039FC094A1368013B13601BB901F02FFF01F0F3FE62B6BDE819408546704700BF6A
:4001800004ED00E020ED00E0F483FF1F10B58EB000230D933D4800F08FFF3D4800F086FD0B2001F043FB0DA9032001F09FFA0D9801F06EFA374B1B78DBB2012B02D0022BA3
:4001C00017D0EDE702F09CF8334B83FB0032C317C3EBE2134FF4FA6202FB130303F57A739BB22E4A138001221146002001F07AF8D6E7002001F024F80D9B13F0010F11D0A1
:40020000274800F059FF01F07DFD5B2807D1254800F052FF1F4A93680133936002E0224800F04AFF0D9B13F0020F0ED001F06AFD062807D11B4800F03FFF164A936801336B
:40024000936002E0184800F037FF0D9B13F0080F02D0164800F030FF00F024F90D4C01232370134800F028FFE3680A2B98D10022E260A2680F49684602F07CF8684600F022
:400280001BFF0B4800F018FF8AE700BFD02B0000102C0000CC80FF1FD34D62109482FF1F202C0000282C00004C2C00006C2C0000782C0000B42C000010B51D4B1B889BB2E2
:4002C000FBB11B4A13889BB2013B9BB2138013889BB2B3B9002000F0B3FF164800F0ECFE154C0223237000F09FF8E3680133E3604FF47A720E4B5A8001221146002000F04D
:40030000F1FF0B4B5B889BB27BB1094A53889BB2013B9BB2538053889BB233B9002000F08FFF0821032001F001FA01F087FC10BD9482FF1FC02C0000CC80FF1F08B501F0E1
:40034000C7FC012804D10121032001F0EFF908BD01F0B6FC012803D10221032001F0E6F908BD00BF684620F007018D4619B572B6EFF311841E4B1B68DBB20F2B10D9103BB2
:4003800023F0030202F1604202F564421168DB0003F01803E0229A400A4022FA03F306E00F2B03D1134B1B681B0E00E0002383F31188114A136801331360012B01D101F0DD
:4003C000FDFD62B6FFF7BAFF72B684F3118801F001FB094A1368013B13601BB901F0F7FD01F0BBFD62B6BDE819408546704700BF04ED00E020ED00E0F483FF1F10B504467F
:40040000013000F059FE064800F056FE04F1110000F052FE034800F04FFE002010BD00BFDC2C0000482C000010B501F069FF104B184003D5013860F0010001300130C0B2B5
:40044000012803D0022803D0802402E0062400E05B24002001F044FC204601F04DFC012001F03EFC204601F047FC002010BD00BF0100008008B5FF22044B1A5401F030FCB8
:40048000002001F039FC002008BD00BFDC80FF1F08B50020FFF7EEFF0120FFF7EBFF002008BD00BF08B5094BFF221A705A70002001F016FC002001F01FFC012001F010FC80
:4004C000002001F019FC002008BD00BFDC80FF1F38B5134B988908B319461C89631C9BB2104AA2FB03525209642505FB12330B810138888101EB44018B7B13B1012B04D083
:4005000006E0002001F076FC02E0012001F072FC034B03EB4404E07B01F020FC38BD00BFB482FF1F1F85EB5130B5ABB01B4B9B89632B17D92AAD032305F8A83D184B186812
:40054000CDF80100174C0FCCCDF81100CDF81510CDF81920CDF81D302846FFF74FFF6FF0070019E00D4D6C89621C92B205EB4404A073E1730C49A1FB02014909642000FB21
:4005800011226A8101339BB2AB81012B03D1FFF79FFF002000E000202BB030BDB482FF1F383200003C3200001F85EB512DE9F04180460E4617461D462A210020FFF7B4FFB3
:4005C00000210120FFF7B0FF194C94F8D6104144C9B20120FFF7A8FF00210120FFF7A4FF94F8D6103944C9B20120FFF79DFF2B210020FFF799FF00210120FFF795FF94F835
:40060000D7103144C9B20120FFF78EFF00210120FFF78AFF94F8D7102944C9B20120FFF783FF2C210020FFF77FFFBDE8F08100BFB482FF1F08B5642800D9642001F00CFCE1
:4006400008BD00BF10B5044636210020FFF76CFF04F003002A4B83F8D80003284ED8DFE800F00215283BC2210120FFF75DFF244BA022A3F8DA208022DA8093F8DC2083F8B4
:40068000D62093F8DD2083F8D72010BDA2210120FFF74AFF1A4BA022DA808022A3F8DA2093F8DC2083F8D72093F8DD2083F8D62010BD08210120FFF737FF114BA022A3F8B4
:4006C000DA208022DA8093F8DC2083F8D62093F8DD2083F8D72010BD62210120FFF724FF074BA022DA808022A3F8DA2093F8DC2083F8D72093F8DD2083F8D62010BD00BF65
:40070000B482FF1F2DE9F0411F46BDF818501F4BB3F90630834236DD90461C4AB2F8DA20914230DA00EB0804013C9C4202DB1B1A0FFA83F87B18013B9A4201DC571A3FB229
:40074000C0B2C9B2CB19013B00EB0802013ADBB2D2B2FFF72BFF2E0AEDB2012001F04AFB0FE031460220FFF7DFFE29460220FFF7DBFE013C24B200E04446002CF1DC013F6C
:400780003FB2002FF8DCBDE8F08100BFB482FF1F00B583B0064AB2F9DA30B2F90620009000210846FFF7AEFF03B05DF804FB00BFB482FF1FF8B5364B8022DA80A022A3F81B
:4007C000DA20002483F8D840A3F8DE40A3F8E04001251D714FF6FF72A3F8E220A3F8E4405D711C6083F8DD4083F8DC4083F8D64083F8D7401C815C819C8101F0EDFA284695
:4008000001F004FB642000F079FC204601F0FEFA642000F073FC284601F0F8FA142000F06DFC29462046FFF77FFE322000F066FC11212046FFF778FE782000F05FFC0F22CB
:40084000144D14E02C4614F8021B0020FFF76CFE6A78254606E06E1C29780120FFF764FE22463546531EDCB2002AF4D13A46531EDFB2002AE6D10220FFF7E4FE0020FFF7ED
:4008800087FF01F02FFB642001F0E6FAF8BD00BFB482FF1FE12C0000002821DB114BB3F9063098421CDA00291ADB0E4BB3F8DA30994215DA10B51446C0B2C9B24B1C421C74
:4008C000DBB2D2B2FFF772FE012001F093FA210A0220FFF729FEE1B20220FFF725FE10BD704700BFB482FF1FF8B51E46164BB3F90630834226DD1546134BB3F8DA309942AE
:4009000020DA0A44013A934201DC5D1A2DB2C0B2C9B24B19013BDBB20246FFF747FE370AF6B2012001F066FA08E039460220FFF7FBFD31460220FFF7F7FD25466A1E14B281
:40094000002DF2D1F8BD00BFB482FF1F2DE9F04F8BB00290039115460493BDF850709DF854A07F4B1A68002A40F09080B3F906300146834240F3F180794BB3F8DA300398BD
:40098000984280F2EA800AEB4A0253000B44012B00F1E38000EBCA03012B00F1DE804FF00008894683460595049E4EE0059B03EB830343446B4A134493F8585000243EE086
:4009C00015F0010F1BD0BAF1010F09D104EB0B0108EB0900324609B200B2FFF75DFF2BE01FFA8AF00FFA8AF204FB00B108FB00900096134609B200B2FFF784FE1CE0BE42FE
:400A00001AD0BAF1010F09D104EB0B0108EB09003A4609B200B2FFF73FFF0DE01FFA8AF00FFA8AF204FB00B108FB00900097134609B200B2FFF766FE013464B26D08072C2D
:400A4000BEDD08F101084FFA88F8B8F1040FADDD049BBB4200F08180BAF1010F08D1029805303B460822039900B2FFF73DFF74E01FFA8AF303EB8300029A10440097DB00F2
:400A80005246039900B2FFF73DFE66E0137AEB1ADBB2506800EBC301D2F800B030F8337091F80280CB78079391F90530089391F906200992BAF1010F04D91BB2059313B2BF
:400AC000069302E000230693059300231C46994640E05E1CF6B213F0070F03D17B1C1BF807409FB214F0800F27D0BAF1010F0DD1099B039A99184944089B029A9818284455
:400B0000049A09B200B2FFF7C7FE16E0059B58191FFA8AF3069A02EB09010FFA8AFE039A01FB0321029A00FB0320049B00937246734609B200B2FFF7E5FD6400E4B201359B
:400B4000EDB2334600E000254545C2D309F101095FFA89F9079A9145F5D30BB0BDE8F08FB482FF1FE02C000070B582B04E4B1B68002B43D10A280BD14B4B0022A3F8DE20CB
:400B80001979B3F8E02002EBC102A3F8E02088E00D2800F08680444B5B79ABB1424A117901EB41046300B2F8DE402344B2F90620934209DD3C4B0022A3F8DE20B3F8E02009
:400BC00002EBC101A3F8E010374CB4F8E230B4F9E010B4F9DE5022790192B4F8E420009202462846FFF7B2FE237903EB43035A00B4F8DE301344A4F8DE3052E00A280CD110
:400C0000294A0021A2F8DE10997A1079B2F8E03000FB0133A2F8E03043E00D2841D01A7A90423ED3597A88423BD8821A5C6804EBC204A278E1785AB351B394F905501A49FB
:400C40004979A9B118490E792A44B1F8DE5002FB0652B1F906108A420ADD134A0021A2F8DE109B7AB2F8E01006FB0316A2F8E0600D4AB2F8E230B2F9E010B2F9DE501679A4
:400C80000196B2F8E420009202462846FFF75EFE2179054B1879B3F8DE2000FB0122A3F8DE2002B070BD00BFB482FF1F10B5044602E00134FFF758FF20780028F9D110BDBE
:400CC000FEE700BFF0B40022174611E050F82760F3B226F0FF0608E001EB420511F812406D78A5550132013BDBB2002BF4D101371F2FEBD9F0BC7047064B1B78DBB203F05B
:400D00000701054A11701B09013213704422034B1A707047CF0100496E5800407658004008B50A46002101F0E2FA08BD38B50024284B1C80582202331A70192502331D80B6
:400D40001823254A137041F2BF2102321180023213700222214B1A7008224FF040231A70032103F5007319701D4B1B78DBB21D490B701D4B1A8041F25122023B1A800CE05B
:400D80001A4B1B7803F0010343EA440404F003044FF4F07001F0C4F8013D0DB1032CEFD115B90320FFF78CFF114B4FF480721A8007221A7000220F490A7048200231087042
:400DC0001A700222033B1A700B4A137843F00703137038BD80400040864000400043004008010049A146004022420040254200400440004006400040A243004008B501F0BE
:400E00006BFA08BD38B572B600240CE0354D630019194A0011462A44084691882858FFF77FFF0134E4B2082CF0D900240CE02D48A20011194B000344B3F84020D96B986BE5
:400E4000FFF7DCFF0134E4B2012CF0D926494FF09040FFF737FF254A137843F0020313701032137843F002031370214C237843F040032370A2F58632513A137843F010033D
:400E8000137008221B491C48FFF7B8FF0A221B491B48FFF7B3FF08221A491B48FFF7AEFF08221A491A48FFF7A9FF082219491A48FFF7A4FF194A137843F008031370184DBA
:400EC00061232B70FFF732FF81232B700122154B1A70FFF711FF0E2221461348FFF78EFF38BD00BF4C3200008000004803500140A0430040080700480251004010070048EB
:400F0000C05100401C0700481251004024070048225100402C07004832510040224300400048004004000840B043004008B501F0A7F903680C2B00D1FEE7FEE708B5094BA6
:400F40001A681044084BC31A802B02DC054B186005E001F095F90C2303604FF0FF32104608BD00BFE080FF1FC099FF1F08B5104E104D16E029686B68AC68002204E051F8B0
:400F8000040B43F8040B0432A242F8D1E868002203E0002143F8041B04328242F9D11035013E002EE6D101F071F9FFF76BF8FEE7010000003435000008B5104A104B1A6009
:400FC000104A136843F40073136000230AE0032B03D80D4A52F8231000E00C490C4A42F8231001332F2BF2D90A4B1A780A4B1A70074A0A4B1A60FFF705FF08BD0004FA051C
:401000000CED00E014ED00E0000000002D0F00000080FF1FBC760040C080FF1F08ED00E07222084B1A702022A3F580731A7006225F3B1A70472210331A70002203F25113B2
:401040001A7070478865004010B500F071FF04460B4A137843F020031370A2F58072137843F01003137002F58172137843F01003137000F033F8204600F05EFF10BD00BF65
:401080009865004008B5054B1B7823B9FFF7C8FF0122024B1A70FFF7D7FF08BD9A83FF1F034B1B7813F0040FFAD1024B187070476A6500404965004038B5074B1B782BB9F3
:4010C00038BDFFF7EDFF0134A4B201E005460024285D0028F5D138BD9A83FF1F054A137843F0020313701032137843F002031370704700BFA243004001BE704710B504465E
:4011000005E0084B186800F00BFFA4F50044B4F5004FF6D8034B586800FB04F000F000FF10BD00BFE480FF1F38B504460D46072902D90020FFF7E0FF1F2C02D90020FFF79A
:40114000DBFF04F01F0000F1604000F564406D01EDB2057038BD00BF38B5EFF3108572B603284ED82D4B53F82030002B4BD02B4A013B42F820302A4B53F82030032B07D19B
:401180000222274B43F820200022264B43F8202000F090FC244B1B68002B36D1234B1C6800F066FCB0F1FF3F31D0214B53F82020204B1B689A422CD9B4F1FF3F03D00221AD
:4011C000174A42F824101C4A52F820201343194A13600022124B43F8202000F005FC174B53F820304BB10024144B43F8204040F0004000F0F5FE20460CE000F0F1FE00205E
:4012000008E0032006E0042004E0002002E0002000E0002085F3108838BD00BF3081FF1FD481FF1FBC83FF1FF483FF1FC081FF1F18340000D483FF1FF83300009C83FF1F13
:40124000EFF3108272B600283CD103012249CB58002B39D010B400EB40018B001F49CC581F4B03EBC4035968884209D11A4B03EB0013D9681A4B03EBC40461600DE019467D
:40128000154B03EB0113DB689842F8D1124B03EB0014E46803EB0111CC600F4B03EB0013DC68B4F1FF3F08D00B4B03EB0011896803EB04139C682144996003010020064995
:4012C000C85005E0032000E0052082F31088704782F3108810BC70471C84FF1FB8330000F880FF1FF8B5EFF3108472B628BB00EB4005AB00184DEB5803EB4306B500174E34
:4013000075598D421BD34AB103EB43039E00134B1E44B3689A4214D3954214D3A9B103010F4DEB589BB90301EE180127EF507260013900F087F800200AE0032008E008207F
:4013400006E0082004E0082002E0082000E0072084F31088F8BD00BFB8330000CC3300001C84FF1F18B108B5C368984708BD704708B508B1406800E00020032816D80C4B7D
:4013800053F8203093B10A4A013B42F82030094B53F82030032B07D10222064B43F820200022054B43F8202000F084FB08BD00BF3081FF1FD481FF1FBC83FF1F18B10346BE
:4013C00040689B6801E00023184603281DD80F4A52F82020CAB10E4A52F82010032914D010B50C4C54F820201A4344F820200A4A52F82020134207D0012905D10222044B81
:4014000043F8202000F056FB10BD7047D8330000D481FF1FBC83FF1FAC83FF1F80B108B50378012B06D013B1032B06D008BDFFF79FFF08BDFFF7C2FF08BDFFF793FF08BD2A
:40144000704700BF30B400EB40029300214AD258214B03EBC2035C68B4F1FF3F04D11E4B03EBC20250602DE01C4B03EB04139B6899420AD2184D05EBC2025060174A02EB0D
:4014800004125B1A93601DE01C46144B03EB04139A68891ADB68B3F1FF3F05D00F4A02EB031292689142EFD2B3F1FF3F05D00B4A02EB031295686D1A9560084A02EB041485
:4014C000E0601C46054B03EB00108160C46030BC704700BFB8330000F880FF1F1C84FF1F38B5394A02EBC0035C6852F83030013342F8303000EB40018A0034498A58934210
:4015000003D90022304B43F83020B4F1FF3F59D02F4B03EB04139B68002B4ED1214600E019462B4B03EB0113DB68B3F1FF3F05D0274A02EB03129268002AF1D0244A02EB04
:4015400001114FF0FF32CA601F4A02EBC0004360B3F1FF3F07D01E4A02EB03139A68013A9A6000E02C4604EB44029300194A13441B7A7BB904EB44029300164A13445A68CD
:40158000154B53F8223003EB83039A0013481044FFF744FF0E4B03EB0413DD68596821B101392046FFF74EFF03E024010022084B1A51B5F1FF3FD5D138BD054A02EB041464
:4015C000013BA36038BD00BFF880FF1FCC3300001C84FF1FB8330000C8330000A433000038B5EFF3108572B6002838D1FFF778FF204B1B68002B34D11F4B1C6800F038FA90
:40160000B0F1FF3F2FD01D4B53F820201C4B1B689A422AD9B4F1FF3F03D00221194A42F82410194A52F820201343154A13600022144B43F8202000F0D7F9144B53F820309B
:401640004BB10024114B43F8204040F0004000F0C7FC20460AE000F0C3FC002006E0032004E0002002E0002000E0002085F3108838BD00BFF483FF1FC081FF1F18340000FE
:40168000D483FF1FD481FF1FF83300009C83FF1FEFF3108372B6114A1168114A126882B9B1F1FF3F0FD00F4A52F821206AB110B40D4C54F8212022EA000044F82100002068
:4016C00007E0022002E0022000E0012083F31088704783F3108810BC704700BFC081FF1FF483FF1FD8330000BC83FF1F03280FD80B4B53F820306BB10A4B53F82030032B2E
:401700000AD059B1084B53F820300B60002070470320704701207047072070470E207047D8330000D481FF1FBC83FF1F38B5EFF3108472B6032853D8324B53F82030002B21
:4017400050D0314B53F82030032B4DD02F4D55F820200A4345F820202D4A52F82020114244D0012B44D10222274B43F8202000F0A1F9284B1B68002B3CD1274B1D6800F0BB
:4017800077F9B0F1FF3F37D0244B53F82020244B1B689A4232D9B5F1FF3F03D002211A4A42F825101F4A52F8202013431C4A13600022154B43F8202000F016F91A4B53F885
:4017C00020304BB10025184B43F8205040F0004000F006FC284612E000F002FC00200EE003200CE001200AE0072008E0002006E0002004E0002002E0002000E0002084F3E0
:40180000108838BDD8330000D481FF1FBC83FF1FAC83FF1FF483FF1FC081FF1F18340000D483FF1FF83300009C83FF1F38B5EFF3108472B6364B1D68364B1B68002B5DD1E8
:40184000B5F1FF3F5CD0344B53F82530002B59D0324B53F82530034256D1314B43F825000122304B43F825202F4B53F825002F490B6823EA00030B602D4B43F825202D4BA2
:4018800053F82520224B1A6000F0F2F8B0F1FF3F06D0294B53F82020244B1B689A420DD81B4B1868B0F1FF3F03D000221D4B43F8202040F0004000F093FB1AE00021194A67
:4018C00042F82010184A52F820201343174A136000F08AF8164B53F8203043B10022144B43F8202040F0004000F07AFB01E000F077FB00200A4B43F8250006E0022004E031
:40190000022002E0012000E0002084F3108838BDC081FF1FF483FF1FD8330000BC83FF1FAC83FF1FD481FF1FF8330000D483FF1F9C83FF1FC481FF1F1834000008B500F029
:4019400053F8084B53F8203043B10022054B43F8202040F00040044B186008BD024B186008BD00BF9C83FF1FF883FF1F10B500F07FF8124B1B68B0F1FF3F1AD0104A52F8B9
:401980002010104A1268914213D9B3F1FF3F03D002240D4941F8234000210B4B43F820100A4B53F820301A43064B1A60FFF7C6FF10BD43F00043064A136010BDC081FF1FB0
:4019C00018340000D483FF1FD481FF1FF8330000F883FF1F034B1B6813B10022014B1A60704700BFE883FF1FF0B4184B19880B0A174AD356B3F1FF3F01D1535601E00833B3
:401A00005BB2144D55F82320134850F82200134E56F8224045F82340114D2F6846F822702A60B4F1FF3F09D10E4A42F82340012202FA03F321EA0301044B19800A4B19684F
:401A40000A4A42F820101860F0BC7047D083FF1F983200008081FF1FFC83FF1F1081FF1FCC83FF1F4081FF1FC081FF1FC481FF1F0C4B1A88130A0C49CB56B3F1FF3F01D1D9
:401A80008B5601E008335BB2B3F1FF3F06D0074A52F82320064B53F8220070474FF0FF30704700BFD083FF1F983200008081FF1FFC83FF1F30B4144B53F82020134C23687E
:401AC000134951F823502560124C44F823004FF0FF3441F82340104951F82210A1420AD10E4951F820400E480188214301800D4941F8223002E0064840F82130064941F806
:401B0000223030BC704700BF2081FF1FCC83FF1F1081FF1FFC83FF1F4081FF1F18340000D083FF1F8081FF1F10B150F8210070474FF0FF30704700BF0122014B1A60FEE72B
:401B4000F083FF1F70B50546124B53F8306000241CE0104B03EBC50321465868FFF7E4FF0D4A52F82030013B42F820300B4B53F82030032B07D10222084B43F82020002239
:401B8000074B43F82020FFF795FF0134B442E0D370BD00BF983300003081FF1FD481FF1FBC83FF1F18B908B5FFF7CCFF08BD7047194B1A4ADA621A4A9A631A4ADA63EFF3E7
:401BC000108272B6184B1B6813BB10B5044600F053F8164B1C600122134B1A602046FFF7E1FFFFF745FFB0F1FF3F0ED0104B53F82030104A11680B43136000220E4B43F8E2
:401C00002020FFF7F1FE00F0EBF962B6FFF794FF82F31088072070470080FF1FA11F0000651F0000F5000000F083FF1F2C84FF1FF8330000D483FF1FD481FF1F08B5EFF337
:401C4000108272B6094B1968094B1B6833B94FF0FF30084B43F82100002000E0022010B9084600F016FA82F3108808BDC081FF1FF483FF1F0081FF1F38B50D4B1D68EFF3AB
:401C8000108472B600F05CF90A4A136843F07F431360094B2B6407210020FFF745FA074A136843F00103136084F3108838BD00BF08ED00E020ED00E06503000000E100E068
:401CC000024B1878C0F30010704700BF01510040024B1878C0F3C000704700BF01510040044A137803F0DF03400100F0200018431070704730510040014B1870704700BF48
:401D00007A640040014B1878704700BF7A64004008B500F00DF90A4A137843F020031370043A137843F0100313700132137843F01003137000F000F900F0E2F808BD00BF5A
:401D40009D640040014B1878704700BF69640040014B1878704700BF6A640040034B1B7813F0040FFAD0024B18707047696400404D64004008B501E00A4B1B780A4B1B78AA
:401D800013F0200FF8D100F0D3F8084B1A7842F001021A701A7802F0FE021A7000F0CCF808BD00BF5D6400406A6400409D64004008B50F22064B1A70FFF7DCFFFFF7C2FFE2
:401DC000FFF7C6FF0023034A13700132137008BD8D6400408964004008B5054B1B7823B9FFF7E6FF0122024B1A70FFF791FF08BDDC83FF1F044A137803F0F703C00000F0CD
:401E00000800184310707047C0510040044A137803F0EF03000100F0100018431070704730510040084A137843F0010313701032137843F00103137002F64D32137843F052
:401E400001031370704700BFA3430040014B1880704700BF044F0040014B1880704700BF064F0040014B1870704700BF034F004008B5194A137843F0020313700232137862
:401E800003F08F0343F010031370144B1A7802F0CF021A701A7842F030021A701A7802F0F0021A701A7842F00F021A706420FFF7CDFF0020FFF7D0FF0020FFF7D3FF084A52
:401EC000137843F00103137002F65E32137843F00103137008BD00BF004F00400B4F0040A343004008B5054B1B7823B9FFF7C0FF0122024B1A70FFF795FF08BDDD83FF1F05
:401F0000054A137843F0010313701032137843F001031370704700BFA2430040000000000230800803D000BF01380046FCD17047EFF3108072B6704780F31088704700BFCA
:401F400018484FF47F0102680A43026016486FF07F4102680A400260704714484FF080510160704772B611484FF000610160FFF7FDFC0F48006800F0C3F858B10C480068B7
:401F80004FF080730B4A0C490FB40FB46FF00600004700BF6FF0060062B6004762B600DF08B0704720ED00E01CED00E004ED00E0F883FF1FE11F00009D1F0000EFF30880C4
:401FC000054908600548006880F3088870470248006880F3088870471082FF1F0482FF1F411C8900154A11440968154A136899421AD0F0B444464D4656465F46F0B400B5F7
:40200000104C9B002344EFF308851D60116089002144096881F3088802BC8E46F0BCA046A946B246BB46F0BC002806DB00B500F05BF802BC8E46FFF7D3BF7047483400007C
:40204000D883FF1F0882FF1FF0B444464D4656465F46F0B400B5EFF3038308B48000174901440968164A0244EFF30883136088471448804704BC4FF08070024382F303887E
:4020800001BC8646F0BCA046A946B246BB46F0BC704780000A4901440A6882F3088804BC4FF08070024382F3038808BC9E46F0BCA046A946B246BB46F0BC70472834000016
:4020C0000C84FF1FC920000008B572B6014B1868FFF7DFFFC081FF1F08B5024B1868FFF7B3FF08BDC081FF1F08B562B6FFF7F4FF72B600F041F8014B186808BDF883FF1FD6
:4021000000280BDA20F000400130054B53F82000044B1B68181A18BF012070470120704748340000D883FF1F054B53F82020054B53F820309A4201D10120704700207047B3
:402140003081FF1FE833000008B5FFF74DFC084B53F8203043B10022054B43F8202040F00040044B186008BD024B186008BD00BF9C83FF1FF883FF1F38B5364B1C6800227B
:40218000354B1A60354A52F82430013342F82430334B53F824502046FFF7C6FF012801D0A54204D103222F4B43F8242003E002222C4B43F824202C4B53F824102B4A136831
:4021C00023EA010313602A4B53F82440214B1C60B5F1FF3F0FD0234B53F82530032B07D10222204B43F825200022224B43F825202846FFF75FFCFFF73BFCB0F1FF3F0BD1B3
:40220000B4F1FF3F03D00022164B43F8242044F00044194B1C6038BD184B53F82020134B1B689A4208D800220E4B43F8242044F00044114B1C6038BD00210A4A42F82010F0
:40224000094A52F820201343084A1360FFF77CFF38BD00BFC081FF1FE883FF1F3081FF1F0081FF1FD481FF1FF8330000D483FF1FC481FF1FBC83FF1FF883FF1F1834000033
:40228000014B1868704700BF7482FF1F0E4B70B51E460E4C0025E41AA410A54204D056F8253098470135F8E701F032F9084B094C1E46E41AA4100025A54204D056F8253006
:4022C00098470135F8E770BD1C3500001C3500001C3500002435000010B5431E0A44914204D011F8014B03F8014FF8E710BD03460244934202D003F8011BFAE77047000025
:40230000194B10B51C68A36BD3B9182000F056F843F20E33A06303804AF6CD33438041F2342383804EF26D63C3804DF6EC630381052343810B23838101220023C0E90423B7
:40234000A16B0A4C0B6948695C43094A02FB0040A3FB02230132034443F10003C1E9042323F0004010BD00BF7482FF1F2DF451582D7F954C0EB400B54FF402719CB0ADF8FA
:4023800014106FF00041049107914FF6FF711DAB02900690084853F8042BADF81610006802A9019300F016F9029B00221A701CB05DF804EB03B070477482FF1F024B0146E1
:4023C000186800F04FB800BF7482FF1F38B50546002944D051F8043C0C1F002BB8BFE41800F0C1FB1E4A1368114613B96360146030E0A3420DD92268A018834201BF1868C1
:402400005B681218226063600C6023E0A24203D813465A68002AF9D118681918A1420BD12168014458188242196013D110685268014419605A600DE002D90C232B6009E049
:4024400021686018824201BF106852680918216062605C602846BDE8384000F085BB38BDE483FF1F70B5CD1C25F0030508350C2D38BF0C25002D064601DBA94202D90C233D
:40248000336046E000F06FFB234B1C681A462146A1B10B685B1B0ED40B2B03D90B60CC18CD501EE08C420BBF63684B681360636018BF0C4615E00C464968E9E7174C23688C
:4024C0001BB9304600F016FB20602946304600F011FB431C18D0C41C24F00304A0420DD12560304600F040FB04F10B00231D20F00700C31A0ED05A42E25070BD211A30464A
:4025000000F0F8FA0130EBD10C233360304600F02BFB002070BD00BFE483FF1FE083FF1F2DE9F0478E6882469E420C46914698463ED88A8912F4906F3AD02568096902231E
:402540006F1A656905EB450595FBF3F57B1C43449D4238BF1D4653050FD52946FFF782FF064698B13A462169FFF7B6FEA38923F4906343F08003A38113E02A4600F0F5FA3E
:40258000064670B921695046FFF720FF0C23CAF80030A3894FF0FF3043F04003A381BDE8F08726613E44266046466561ED1BA560464528BF464649463246206800F0B8FAE3
:4025C000A36800209B1BA36023681E442660BDE8F08700002DE9F04F9DB003938B8980461C060D4616460DD50B695BB94021FFF739FF2860286118B90C23C8F80030CDE0DE
:4026000040236B610023099320238DF82930DFF89CB130238DF82A3037463C4614F8013B1BB9B7EB060910D003E0252BF9D02746F3E74B46324629464046FFF771FF0130B1
:4026400000F0A780099B4B4409933B78002B00F0A08000234FF0FF3204930793059206938DF853301A930126052221784E4800F051FA671C049B38B14B4A3C46801A06FA69
:4026800000F018430490EFE7D90644BF20228DF853201A0744BF2B228DF8532022782A2A03D0079A00210A200BE0039A111D12680391002A10DA524243F002000792049065
:4026C0000BE027463B780134303B092B03D800FB02320121F5E701B107923B782E2B1ED17B782A2B0AD1039B02371A1D1B680392002BB8BF4FF0FF33059310E00023194647
:402700000593781C0A2407463A780130303A092A03D804FB01210123F5E703B1059103223978224800F0F6F940B14023CBEB000003FA00F0049B0137184304903978062277
:402740001B487E1C8DF8281000F0E4F988B1194B33B9039B073323F007030833039314E003AB00932A46144B04A94046AFF3008007E003AB00932A460F4B04A9404600F015
:4027800093F8B0F1FF3F824603D0099B5344099342E7AB895B0601D4099801E04FF0FF301DB0BDE8F08F00BFDA340000E0340000E434000000000000212500002DE9F0473D
:4027C00091461F460A698B6806469342B8BF1346C9F8003091F843200C46DDF8208012B10133C9F800302368990642BFD9F800300233C9F80030256815F0060510D104F1F5
:40280000190A07E00123524639463046C04701301AD00135E368D9F800209B1A9D42F1DB94F843302268003318BF012392060FD5E118302081F843005A1C94F845102244F4
:40284000023382F8431003E04FF0FF30BDE8F08704F1430239463046C0470130F4D02268D9F80050E36802F00602042A08BF5D1B2269A3680CBF25EAE57500259342C4BF1A
:402880009B1AED184FF000091A344D4509D00123224639463046C0470130D5D009F10109F3E70020BDE8F0872DE9F04317460A7E85B06E2A984606460C460C9B01F1430E84
:4028C00000F0AE8011D8632A22D009D8002A00F0BB80582A40F0CA8081F84520834955E0642A1ED0692A1CD0C0E0732A00F0B08009D86F2A2ED0702A40F0B8800A6842F0CB
:4029000020020A603EE0752A24D0782A3AD0ADE01A6801F14205111D1960136884F84230A8E021681A6811F0800F02D0111D196008E011F0400F02F10401196002D0B2F994
:40294000003000E01368002B3CDA2D225B4284F8432037E021681A6811F0800F02D0111D196007E011F0400F02F10401196001D0138800E01368227E5C496F2A14BF0A2249
:4029800008221BE078225A4984F845202268186812F0800F00F104051D6003D1550601D5038800E00368D00744BF42F0200222601BB9226822F0200222601022002084F855
:4029C000430001E049490A226568002DA56008DB206820F0040020602BB9002D7DD175460CE0002B79D07546B3FBF2F002FB1033CB5C05F8013D03460028F5D1082A0BD14B
:402A00002368DA0708D5236962689A42DEBF302305F8013C05F1FF35C5EB0E0323612EE008681A6810F0800F496903D0101D1860136808E010F0400F02F10400186013682D
:402A400001D0198000E0196000232361754616E01A68111D1960156800216268284600F059F808B1401B6060636804E004F1420584F8422001232361002384F84330CDF8DF
:402A800000803B4603AA21463046FFF797FE013002D14FF0FF3026E023692A4639463046C0470130F5D023689B0710D5002504F1190907E001234A4639463046C047013084
:402AC000E7D00135E368039A9B1A9D42F2DBE068039B9842B8BF184605E00B7804F1420584F842308AE705B0BDE8F083EB340000FC34000038B5064C00230546084623606E
:402B0000FEF71CFA431C02D1236803B12B6038BDB899FF1F10B5C9B202449042034605D01C7801308C42F8D1184610BD002010BD884210B501EB020301D8421E0BE09842C2
:402B4000FBD28118D21AD34204D013F8014D01F8014DF8E710BD994204D011F8014B02F8014FF8E710BD70477047F8B5074615460E4621B91146BDE8F840FFF773BC1AB9B7
:402B8000FFF724FC2846F8BD00F015F885420ED929463846FFF766FC044650B131462A46FFF79AFB31463846FFF710FC01E03046F8BD2046F8BD51F8040C0028BEBF0918F2
:402BC00051F8043CC018043870470000000000000D0A0D0A3D3D3D3D3D3D3D3D3D3D3D3D2057656C636F6D6520746F20746865205265616374696F6E2047616D65203D3D9E
:402C00003D3D3D3D3D3D3D3D3D3D0D0A000000005265616374696F6E2047616D650A0000425554540D0A00004772656174202D20636F727265637420627574746F6E20704E
:402C4000726573736564210D0A0000004F6F7073202D2077726F6E6720627574746F6E2070726573736564210D0A0000546F6F20736C6F77210D0A003D3D3D3D3D3D3D3D1A
:402C80003D3D3D3D3D3D3D3D3D3D3D3D3D3D3D3D3D3D3D3D3D3D3D3D3D3D3D3D3D3D3D3D3D3D3D3D3D3D3D3D3D3D3D3D3D3D0D0A0000000053636F72653A2025640D0A0011
:402CC000726E64776169740D0A00000055415254207374617274656400000000203A20000FB103053C3CB203053C3CB306053C3C053C3CB40103C003280804C101C0C202DD
:402D00000D00C3028D2AC4028DEEC5011A3601C0E0100422070A2E30252A28262E3A00010313E10F16060D2D26232727252D3B000104133A0105290000000000003E5B4F7E
:402D40005B3E3E6B4F6B3E1C3E7C3E1C183C7E3C181C577D571C1C5E7F5E1C00183C1800FFE7C3E7FF0018241800FFE7DBE7FF30483A060E2629792926407F050507407F8B
:402D800005253F5A3CE73C5A7F3E1C1C08081C1C3E7F14227F22145F5F005F5F06097F017F006689956A606060606094A2FFA29408047E040810207E201008082A1C080815
:402DC0001C2A08081E101010100C1E0C1E0C30383E3830060E3E0E06000000000000005F00000007000700147F147F14242A7F2A1223130864623649562050000807030040
:402E0000001C2241000041221C002A1C7F1C2A08083E080800807030000808080808000060600020100804023E5149453E00427F400072494949462141494D331814127F0E
:402E40001027454545393C4A49493141211109073649494936464949291E0000140000004034000000081422411414141414004122140802015909063E415D594E7C12116A
:402E8000127C7F494949363E414141227F4141413E7F494949417F090909013E414151737F0808087F00417F41002040413F017F081422417F404040407F021C027F7F0481
:402EC00008107F3E4141413E7F090909063E4151215E7F09192946264949493203017F01033F4040403F1F2040201F3F4038403F631408146303047804036159494D430002
:402F00007F4141410204081020004141417F04020102044040404040000307080020545478407F284444383844444428384444287F385454541800087E090218A4A49C78A5
:402F40007F0804047800447D40002040403D007F1028440000417F40007C047804787C080404783844444438FC1824241818242418FC7C08040408485454542404043F444E
:402F8000243C4040207C1C2040201C3C4030403C44281028444C9090907C4464544C4400083641000000770000004136080002010204023C2623263C1EA1A161123A4040D5
:402FC000207A385454555921555579412254547842215554784020545579400C1E5272123955555559395454545939555454580000457C410002457D420001457C407D1256
:4030000011127DF0282528F07C545545002054547C547C0A097F4932494949323A4444443A324A4848303A4141217A3A42402078009DA0A07D3D4242423D3D4040403D3CCC
:4030400024FF2424487E4943662B2FFC2F2BFF0929F620C0887E090320545479410000447D413048484A32384040227A007A0A0A727D0D19317D2629292F28262929292669
:4030800030484D4020380808080808080808382F10C8ACBA2F102834FA00007B000008142A142222142A14085500550055AA55AA55AAFF55FF55FF000000FF00101010FF4A
:4030C00000141414FF001010FF00FF1010F010F0141414FC001414F700FF0000FF00FF1414F404FC141417101F10101F101F1414141F00101010F0000000001F1010101041
:403100001F10101010F010000000FF101010101010101010FF10000000FF140000FF00FF00001F10170000FC04F414141710171414F404F40000FF00F7141414141414144B
:40314000F700F7141414171410101F101F141414F4141010F010F000001F101F0000001F14000000FC140000F010F01010FF10FF141414FF141010101F00000000F010FFEC
:40318000FFFFFFFFF0F0F0F0F0FFFFFF0000000000FFFF0F0F0F0F0F3844443844FC4A4A4A347E02020606027E027E0263554941633844443C04407E201E2006027E0202F8
:4031C00099A5E7A5991C2A492A1C4C7201724C304A4D4D303048784830BC625A463D3E494949007E0101017E2A2A2A2A2A44445F444440514A444040444A51400000FF015C
:4032000003E080FF000008086B6B083612362436060F090F06000018180000001010003040FF0101001F01011E00191D1712003C3C3C3C0000000000544654004275666673
:403240006572206F766572666C6F7700004F00400C00405100403000F0510040100000000140800C000D0140000300140140000800400140000A004C014000020050014090
:403280002000000060520040800600480600800C0140880600488000FF0001010202020203030303030303030404040404040404040404040404040405050505050505057C
:4032C0000505050505050505050505050505050505050505050505050606060606060606060606060606060606060606060606060606060606060606060606060606060666
:4033000006060606060606060606060606060606060606060606060607070707070707070707070707070707070707070707070707070707070707070707070707070707E5
:40334000070707070707070707070707070707070707070707070707070707070707070707070707070707070707070707070707070707070707070707070707070707078D
:4033800007070707070707070707070707070707070707070707070701000000A03300000000000000000000020000000000000000000000FFFFFFFF000000000000000093
:4033C000000000000000000000000000A08601000100000000000000000000000000000000000000010000000100000001000000010000000100000080000000010000001F
:4034000040000000200000000100000002000000040000000800000001000000010000004000000020000000AD000000E5000000B90200008D010000D9200000D9200000EE
:40344000D9200000D92000000000000000000000000000000000000001000000616C726D5F5469636B316D0065765F627574746F6E4C65667400000065765F627574746F5C
:403480006E5269676874000065765F72616E646F6D446F6E6500000065765F74696D656F7574000074736B5F696E69740000000074736B5F6261636B67726F756E640000E8
:4034C00074736B5F74696D657200000074736B5F67616D65000000004300232D302B2000686C4C006566674546470030313233343536373839414243444546003031323315
:4035000034353637383961626364656600000000F8B500BFF8BC08BC9E4670474D000000B90F0000F8B500BFF8BC08BC9E4670472900000048350000C880FF1FB00100001F
:4035400048170000000000000000000001000000000000000000000000000000FFFF0000C099FF1F0000E02EC05D00001800000000366E015C34000000000000FFFFFFFF02
:40358000FFFFFFFFFFFFFFFFFFFFFFFFFFFFFFFF010000000200000003000000FFFFFFFF00000000000000000600000005000000010000000100000001000000010000000A
:4035C000FFFFFFFFFFFFFFFFFFFFFFFFFFFFFFFFFFFFFFFFFFFFFFFFFFFFFFFFFFFFFFFFFFFFFFFFFFFFFFFFFFFFFFFFFFFFFFFFFFFFFFFFFFFFFFFFFFFFFFFFFFFFFFFF0B
:40360000FFFFFFFFFFFFFFFFFFFFFFFFFFFFFFFFFFFFFFFFFFFFFFFFFFFFFFFFFFFFFFFFFFFFFFFFFFFFFFFFFFFFFFFFFFFFFFFFFFFFFFFFFFFFFFFFFFFFFFFFFFFFFFFFCA
:40364000FFFFFFFFFFFFFFFFFFFFFFFFFFFFFFFFFFFFFFFF0300000003000000030000000300000068340000783400008834000098340000A4340000B0340000C0340000D2
:40368000CC340000B899FF1F000000009097FF1F000000000000000000000000000000000000000000000000000000000000000000000000D834000000000000000000004A
:4036C000000000000000000000000000000000000000000000000000000000000000000000000000000000000000000000000000000000001482FF1F000000000000000016
:403700000000000000000000000000000000000000000000000000000000000000000000000000000000000000000000000000000000000000000000000000000000000089
:403740000000000000000000000000000000000000000000000000000000000000000000000000000000000000000000000000000000000000000000000000000000000049
:403780000000000000000000000000000000000000000000000000000000000000000000000000000000000000000000000000000000000000000000000000000000000009
:4037C00000000000000000000000000000000000000000000000000000000000000000000000000000000000000000000000000000000000000000000000000000000000C9
:020000040003F7
:0200000480007A
:40000000024F0040025200400264004002650040010301400105014001070140550801404E090140410A0140430B01400E0C0140340D014004160140021701404A180140F3
:400040004C1901405A1A0140461B0140024001400741014004420140054301400444014003450140034601400C47014004480140164C0140074D0140055001400151014049
:4000800001200A36083C09AA88388D0F88728A0FE204E840E8020008040608020C080D01100612011406160118011A061E0120072408250129012C042D0130073101360869
:4000C0003A023E403F015418580459045B045C015D105F0184148580871389718B068C108E40900C927196209A039B0C9D2C9F43A0DCA171A222A30EA409A6D0A810AAACB4
:40010000AF08B0E0B330B41FB5C0B70FB928BA02BB80BF04C003C540C9FFCA07CBFFCC40CD20CEF0CF05D008D409D804D904DA04DB04DC11DD01DF01E040E1A8E240E32092
:40014000008002100302044005020608072009080A440C140D400E80111012A016A2188019011A441D801E801F012008210422E0260129012A202B0A2C152F153260382882
:4001800039103D803E804104484050045108582059045A025B805C02618065A087049040920A938495809604982099149B889C149E8A9F20A001A309A648A980AE02B01001
:4001C000B102B422B540C0F5C2FEC4BECA79CC0CCE16D002D68FD838E002EC0100300410051D0814091D0A280C0E0D1D0E111010110D1220131014391501160217021840B9
:4002000019021B0D1C301D1D231024102620282029022A102B082C242D022F043040323833103407350F3A203B203E013F045440580459045B045F018001810191029201AE
:4002400095029B01A401AA01AB01B101B302B601B880B908BF05D804D904DC01DF0100400120036006800A640B010E80102811401201141419301A281B0A1F40210822206E
:40028000279029122B012F083220334935103606388039283F0261286280681269016B087182722073048620890190C09128924293019580960899069A019B419C149D10BB
:4002C0009E8A9F30A029A120A284A321A648A70AB604C01FC21FC467CA2DCCEFCE8ED80EE008E84000070406080210061201140718011A061E012C04360758045C015F010E
:4003000000400368068807200A480B010C140D400E8010281201160218401B211C022004210822012BA931183341388039144044430849164A805120520153806208682860
:40034000693C6A406B417040730183108508A702AF02C07FC2FBC487CA0FCC0FCE0ED007D204D802E002E808B880BE40D804DF011A02860102330301044C05040623080359
:400380000C080D04107F13021473160C18041E402002230224412680280C29042C4F2E102F013104327C3301340F350236803A283B803F1456025713580459045B045C11B7
:4003C0005D105F0185028602870D88018D058E038F0A9503970C99099A039B06B30FB403BB08C023C104C6BEC70CC81CC9FFCAFFCBFFCEF0CF44D00CD804D904DA04DD0191
:40040000DF01E6C0EA40EB02004403080504060207440A080B300C200E810F1014211501172018041D041E011F14210422082544266227402D102F423110330835223620BE
:40044000386039283C023D423E0441184240521453805E026D706E0C7420760A772079807A028C0490C892489382942095809728980199109C029DA09E1A9F20A005A10858
:40048000A281A309A540A608AB08B102B204C0F7C2F2C4F0CAB0CC86CEDAD007D680E8040608070209020D021003113812041403150C160C17101F02200A21012204260530
:4004C0002702280329102A042B242D142F28313C320F3301370239023A083F445401580459045B045C015D105F0181218318857089708D0393039703980399139B64A002D5
:40050000A142A201A318A503A803AC01AE02AF03B10CB303B570B603BF01C065C103C204C401C5E0C7C0C822C9FFCAFFCBFFCC62CDA0CEF0CF41D00CD804D904DA04DC1159
:40054000DD01DF01E640E702E910EA30EB10ED10EE10EF1200080A600E08110412841511160218201A201F4021022244241026102744281029112A042B812D012F513102D7
:40058000328033083504361238A839043DB03E064501461047404D024E024F105702581059015A8880128540861088208A029088924493329420950199149A049C229D029B
:4005C0009F04A004A151A286A389A702B584C004C24CC4DECADFCCEBCEFED0D0D230D60F3310CC100510090883109F10C080C210E2205308A108B510D4201B08A708AD0886
:40060000C610E84072807620DC01DE0486809E80AE2087028B08E401840893109A109B08A101A208A302A901B210B310B608EC0767208710D880E640521053025408550130
:4006400059015F08620867108E20931099019A109B08A008A101A208A302A901D407D607D803E4021040722088409A20C408DC01E20100030C030E0310031C03000300009C
:4006800080140000400000004A00000018846000038034041184680048040280000100007C5603094A840000006000004804020002074838020A00100F80007F708000009C
:4006C00000082200000000114603200000DEFBC02FFFFFFF2200F008040000000000022804040404000000010000C00040011011C0010011400140010000000000000000C2
:40070000000000000000000018C0C00000000000800040BCBC00B4000000000000FFFF00FF00000000010100000000000038380008000000000000000000000000000000BE
:400740000000000000000000000000000000000000000000000000000000000000000000000000000000000000000000000000000000000000000000000000000000000079
:400780000000000000000000000000000000000000000000000000000000000000000000000000000000000000000000000000000000000000000000000000000000000039
:4007C00000000000000000000000000000000000000000000000000000000000000000000000000000000000000000000000000000000000000000000000000000000000F9
:4008000000000000000000000000000000000000000000000000000000000000000000000000000000000000000000000000000000000000000000000000000000000000B8
:0200000490006A
:0400000000004007B5
:0200000490105A
:04000000BC90ACAF55
:0200000490303A
:02000000D80422
:0200000490402A
:4000000000000000000000000000000000000000000000000000000000000000000000000000000000000000000000000000000000000000000000000000000000000000C0
:400040000000000000000000000000000000000000000000000000000000000000000000000000000000000000000000000000000000000000000000000000000000000080
:400080000000000000000000000000000000000000000000000000000000000000000000000000000000000000000000000000000000000000000000000000000000000040
:4000C0000000000000000000000000000000000000000000000000000000000000000000000000000000000000000000000000000000000000000000000000000000000000
:0200000490501A
:0C00000000012E16106900012E2BE86D87
:00000001FF