:400000000080002011000000990C0000990C000008B5044B1A6803F53F5302331A6000F05BFE00BFFA46004010B5054C237833B9044B13B10448AFF300800123237010BDD4
:40004000B082FF1F00000000D02A0000084B10B51BB108490848AFF300800848036803B910BD074B002BFBD0BDE81040184700BF00000000B482FF1FD02A0000C880FF1F3C
:400080000000000008B562B645F6BF52054B1A60054A136843F002031360002001F014FCFBE700BF14E000E010E000E008B500F0F7FB00F0BFFE00F067FC00F0F3F801F00F
:4000C00071FC094A136843F00503136001220221104600F077FF022000F000FF012000F0FDFE01F037FC08BD10E000E000B583B000230193084800F0B7FE0F2001F006FA8B
:4001000001A9022001F062F9019801F031F9019800F082FAF1E700BFD42A000008B50121084600F01FFB0221012000F043FB01F011FC08BD08B501F00DFC08BD00BFFDE7CE
:4001400008B5002001F0BCF808BD00BF684620F007018D4619B572B6EFF311841E4B1B68DBB20F2B10D9103B23F0030202F1604202F564421168DB0003F01803E0229A4004
:400180000A4022FA03F306E00F2B03D1134B1B681B0E00E0002383F31188114A136801331360012B01D101F025FE62B6FFF7C8FF72B684F3118801F099FA094A1368013BA9
:4001C00013601BB901F01FFE01F0E3FD62B6BDE819408546704700BF04ED00E020ED00E0B083FF1F08B5002000F086FB20B10121022001F00BF908BD012000F07DFB18B104
:400200000221084601F002F908BD00BF684620F007018D4619B572B6EFF311841E4B1B68DBB20F2B10D9103B23F0030202F1604202F564421168DB0003F01803E0229A4068
:400240000A4022FA03F306E00F2B03D1134B1B681B0E00E0002383F31188114A136801331360012B01D101F0C5FD62B6FFF7BAFF72B684F3118801F039FA094A1368013BB7
:4002800013601BB901F0BFFD01F083FD62B6BDE819408546704700BF04ED00E020ED00E0B083FF1F10B50024084B1C60084AD36843F08073D360074B5C601A6842F0010210
:4002C0001A6000F00DFB204610BD00BFCC82FF1FF0ED00E0001000E020B370B4044623B3012903D0032901D0042900D102B3187808B3052922D809B1022900D10AB314487B
:400300000579092D20D86E1C067100EB8500846000206060217160712360A060E0602061626113E06FF0010070476FF001000DE06FF001000AE06FF0130007E06FF0130006
:4003400004E06FF0130001E06FF0070070BC7047CC82FF1F08B310B504464379012B1FD00379032B03D0012B01D0042B03D16369CBB1012098472279931EDBB2012B03D84B
:400380000A4B1B68A36004E0012A02D8084B5B68A36001236371002010BD6FF0010070476FF0090010BD6FF0010010BDCC82FF1F001000E0C3688268934204D301699B1AC6
:4003C0000B44036103E001699B1A0B4403610020704700BF40B338B503464279013AD2B2012A24D801798A1ED2B2012A03D8134A1268C26004E0012902D8114A5268C26071
:400400001C461846FFF7D6FF05462379032B03D0012B01D0042B03D163695BB10020984703236371284638BD6FF0010070476FF0160038BD6FF0010038BD00BFCC82FF1F14
:40044000001000E003690248A0FB0330400A7047F119760500B583B001A9002001F0E8F8019801F099FE01F0BFFE0C4B83FB0032C317C3EBE2134FF4FA6202FB130303F502
:400480007A739BB2064A53805188002289B2032000F098FD002003B05DF804FBD34D6210FC82FF1F10B586B000F0C6F90D4CE3899BB201339BB2E3814FF47A73A380A1888F
:4004C000002289B2042000F07DFDE3899BB2064A142101A801F0C2FE01A800F0C5FC002006B010BDFC82FF1F402B000030B591B001F09EFA5B2820D1134800F0B5FC134DF6
:400500002846FFF79FFF0346114A3C2101A801F0A5FE01A800F0A8FC0E4C237C0133DBB22374A3899BB201339BB2A3812846FFF789FFA3681844A06002E0074800F094FCCB
:40054000002011B030BD00BF4C2B00008C83FF1F702B0000FC82FF1F8C2B000030B591B001F066FA062820D1134800F07DFC134D2846FFF767FF0346114A3C2101A801F03D
:400580006DFE01A800F070FC0E4C237C0133DBB22374A3899BB201339BB2A3812846FFF751FFA3681844A06002E0074800F05CFC002011B030BD00BF4C2B00008C83FF1F97
:4005C000702B0000FC82FF1F8C2B000030B595B00E4C0025E581A368227CD2B2B3FBF2F2A389A168019200919BB2094A462102A801F034FE02A800F037FC064800F034FCD7
:40060000A389DBB26374284615B030BDFC82FF1FAC2B0000DC2B000010B504462A4BDB899BB22BB9294B002211462948FFF754FE254B1B78DBB2012B0CD013B1022B15D063
:400640003FE014F0030F3CD0FFF704FF01221E4B1A7036E014F0080F33D0FFF723FF0222194B1A701A48FFF775FE2AE014F0010F04D01748FFF7AEFEFFF738FF14F0020FCC
:4006800004D01348FFF7A6FEFFF768FF14F0040F05D00F48FFF79EFE0E4800F0E5FB00220B4B1A6100F006F90B4800F0DDFB064BDB899BB20A2B01D1FFF788FF0022024B27
:4006C0001A70002010BD00BFFC82FF1F182C00008C83FF1F282C0000DC2B0000024610B119B1012302E0012300E000237BB1B1FBF2F101B90121074B186801301860B0FB9F
:40070000F1F301FB1300B0FA80F0400970470120704700BF1083FF1F10B4114B5B68DCB21B0A012B05D013B1022B06D009E0047009E0E34303700C7005E0E3430B701470A1
:4007400001E0E4431470064A536801335360B3F5806F02D30022024B5A60002010BC70471083FF1F10B582B0034600B9D9B11846FFF7B4FFD0B100248DF807408DF806404C
:4007800002AA02F8034D0DF106010DF10700FFF7C3FF9DF805209DF806109DF8070000F027F9204603E06FF0130000E0002002B010BD00BF10B54FF47A7303FB01F11A4B2D
:4007C0009A6802EB42046300184C23449B8803FB01F1174BA3FB0131C90AB1FBF0F0154B186008B9012119600F49CB680133CB60104909688B4207D30B4B0021D960013280
:400800009A60082A00D99960074B9B68074C5A00D0184100084621448A784978205C00F0D3F8002010BD00BF1083FF1F342C00002D34A9F9CC80FF1F10B501F0D5FC104BD6
:40084000184003D5013860F0010001300130C0B2012803D0022803D0802402E0062400E05B24002001F0D2F8204601F0DBF8012001F0CCF8204601F0D5F8002010BD00BF37
:400880000100008008B5FF22044B1A5401F0BEF8002001F0C7F8002008BD00BFD080FF1F08B50020FFF7EEFF0120FFF7EBFF002008BD00BF08B5094BFF221A705A70002088
:4008C00001F0A4F8002001F0ADF8012001F09EF8002001F0A7F8002008BD00BFD080FF1F08B5002000F052FA002000F05BFA002000F064FA08BD00BF08B510B1012806D05E
:400900000BE001F07BF8012809D0002008BD01F06DF8012805D0002008BD002008BD012008BD012008BD00BF38B504460D46032824D8DFE800F00209101E084600F026FAD9
:40094000104B1D55002038BD084600F02BFA0D4B1D55002038BD084600F030FA094B1D55002038BD29462046FFF7DEFF0134E4B200E00024022CF5D9002038BD6FF0130016
:4009800038BD00BF2083FF1F38B50024254609E000210C4B19552046FFF7C6FF00B105460134E4B2022CF3D901F07CF801F0BCF801F0FCF801F0C0F901F07CF901F038F974
:4009C000284638BD2083FF1F70B50E461546074C14F8100001F00CF914F8160001F04AF914F8150001F088F9002070BD6C2C000038B50D461446C0B201F034F8E8B201F018
:400A000073F8E0B201F0B2F8002038BDFEE700BFF0B40022174611E050F82760F3B226F0FF0608E001EB420511F812406D78A5550132013BDBB2002BF4D10137222FEBD934
:400A4000F0BC7047064B1B78DBB203F00701054A11701B09013213704422034B1A707047CF0100496E5800407658004008B50A46002101F088FB08BD38B500242C4B1C8050
:400A8000582202331A70022202331A80182329490B7002310A8002310B70192502310D8002310B7041F2BF200231088002310B70214B1A7008224FF040231A70032103F5E8
:400AC000007319701D4B1B78DBB21D490B701D4B1A8041F25122023B1A800CE01A4B1B7803F0010343EA440404F003044FF4F07001F032F9013D0DB1032CEFD115B903202C
:400B0000FFF784FF114B4FF480721A8007221A7000220F490A704820023108701A700222033B1A700B4A137843F01F03137038BD8040004086400040004300400801004959
:400B4000A146004022420040254200400440004006400040A243004008B501F009FB08BD38B572B600240CE0374D630019194A0011462A44084691882858FFF777FF013488
:400B8000E4B2072CF0D900240BE02F48A20011194B0003441A8F596B186BFFF7DDFF0134E4B2012CF1D929494FF09040FFF730FF274A137843F0020313701032137843F0DE
:400BC00002031370234C237843F040032370A2F58632513A137843F01003137008221E491E48FFF7B9FF0A221D491E48FFF7B4FF08221D491D48FFF7AFFF08221C491D4859
:400C0000FFF7AAFF08221C491C48FFF7A5FF08221B491C48FFF7A0FF1B4A137843F0080313701A4D61232B70FFF726FF81232B700122174B1A70FFF705FF0E222146154873
:400C4000FFF78AFF38BD00BF6C2E00008C00004803500140A0430040E409004802510040EC090048C0510040F8090048F2510040000A004812510040080A004822510040F8
:400C8000100A004832510040224300400048004004000840B043004008B501F03DFA03680C2B00D1FEE7FEE708B5094B1A681044084BC31A802B02DC054B186005E001F003
:400CC0002BFA0C2303604FF0FF32104608BD00BFD480FF1F108EFF1F08B5104E104D16E029686B68AC68002204E051F8040B43F8040B0432A242F8D1E868002203E00021DE
:400D000043F8041B04328242F9D11035013E002EE6D101F007FAFFF7B5F9FEE7010000006C32000008B5104A104B1A60104A136843F40073136000230AE0032B03D80D4AC7
:400D400052F8231000E00C490C4A42F8231001332F2BF2D90A4B1A780A4B1A70074A0A4B1A60FFF7FDFE08BD0004FA050CED00E014ED00E000000000990C00000080FF1F09
:400D8000BC760040C080FF1F08ED00E0044A137803F0BF03800100F0400018431070704700510040044A137803F0FE0300F0010018431070704700BF20510040044A137893
:400DC00003F07F03C001C0B218431070704700BF005100407222084B1A702022A3F580731A700622673B1A70472210331A70002250331A70704700BF8865004010B500F090
:400E0000B3FF04460A4A137843F020031370A2F58072137843F010031370073A137843F01003137000F032F8204600F0A1FF10BD9865004008B5054B1B7823B9FFF7CAFF37
:400E40000122024B1A70FFF7D9FF08BD2383FF1F034B1B7813F0040FFAD1024B18707047616400404064004038B5074B1B782BB938BDFFF7EDFF0134A4B201E00546002482
:400E8000285D0028F5D138BD2383FF1F054A137843F0080313701032137843F008031370704700BFA243004001BE704738B504460D46072902D90020FFF7F6FF1F2C02D906
:400EC0000020FFF7F1FF04F01F0000F1604000F564406D01EDB2057038BD00BF38B5EFF3108572B604284ED82D4B53F82030002B4BD02B4A013B42F820302A4B53F82030F7
:400F0000032B07D10222274B43F820200022264B43F8202000F05AFC244B1B68002B36D1234B1C6800F030FCB0F1FF3F31D0214B53F82020204B1B689A422CD9B4F1FF3F8B
:400F400003D00221174A42F824101C4A52F820201343194A13600022124B43F8202000F0CFFB174B53F820304BB10024144B43F8204040F0004000F04FFF20460CE000F0D5
:400F80004BFF002008E0032006E0042004E0002002E0002000E0002085F3108838BD00BF4C81FF1FF881FF1F5883FF1FB083FF1FE081FF1FEC3000007483FF1FC03000007C
:400FC0003083FF1FF8B5EFF3108472B6042825D800EB4005AB00184DEB5803EB4306B500164E75598D421BD34AB103EB43039E00124B1E44B3689A4214D3954214D3A9B1CC
:4010000003010F4DEB589BB90301EE180127EF507260013900F086F800200AE0032008E0082006E0082004E0082002E0082000E0072084F31088F8BD20300000843000009E
:40104000B08BFF1F18B108B5C368984708BD704708B508B1406800E00020042816D80C4B53F8203093B10A4A013B42F82030094B53F82030032B07D10222064B43F820209E
:401080000022054B43F8202000F0A0FB08BD00BF4C81FF1FF881FF1F5883FF1F18B1034640689B6801E00023184604281DD80F4A52F82020CAB10E4A52F82010032914D039
:4010C00010B50C4C54F820201A4344F820200A4A52F82020134207D0012905D10222044B43F8202000F072FB10BD704798300000F881FF1F5883FF1F4483FF1F80B108B56A
:401100000378012B06D013B1032B06D008BDFFF79FFF08BDFFF7C2FF08BDFFF793FF08BD704700BF30B400EB40029300214AD258214B03EBC2035C68B4F1FF3F04D11E4BD0
:4011400003EBC20250602DE01C4B03EB04139B6899420AD2184D05EBC2025060174A02EB04125B1A93601DE01C46144B03EB04139A68891ADB68B3F1FF3F05D00F4A02EB9D
:40118000031292689142EFD2B3F1FF3F05D00B4A02EB031295686D1A9560084A02EB0414E0601C46054B03EB00108160C46030BC704700BF20300000EC80FF1FB08BFF1F24
:4011C00038B5394A02EBC0035C6852F83030013342F8303000EB40018A0034498A58934203D90022304B43F83020B4F1FF3F59D02F4B03EB04139B68002B4ED1214600E086
:4012000019462B4B03EB0113DB68B3F1FF3F05D0274A02EB03129268002AF1D0244A02EB01114FF0FF32CA601F4A02EBC0004360B3F1FF3F07D01E4A02EB03139A68013A64
:401240009A6000E02C4604EB44029300194A13441B7A7BB904EB44029300164A13445A68154B53F8223003EB83039A0013481044FFF744FF0E4B03EB0413DD68596821B16D
:4012800001392046FFF74EFF03E024010022084B1A51B5F1FF3FD5D138BD054A02EB0414013BA36038BD00BFEC80FF1F84300000B08BFF1F2030000070300000BC2F00002B
:4012C00038B5EFF3108572B6002838D1FFF778FF204B1B68002B34D11F4B1C6800F054FAB0F1FF3F2FD01D4B53F820201C4B1B689A422AD9B4F1FF3F03D00221194A42F86A
:401300002410194A52F820201343154A13600022144B43F8202000F0F3F9144B53F820304BB10024114B43F8204040F0004000F073FD20460AE000F06FFD002006E00320D6
:4013400004E0002002E0002000E0002085F3108838BD00BFB083FF1FE081FF1FEC3000007483FF1FF881FF1FC03000003083FF1FEFF3108372B6114A1168114A126882B9C9
:40138000B1F1FF3F0FD00F4A52F821206AB110B40D4C54F8212022EA000044F82100002007E0022002E0022000E0012083F31088704783F3108810BC704700BFE081FF1F9A
:4013C000B083FF1F983000005883FF1F04280FD80B4B53F820306BB10A4B53F82030032B0AD059B1084B53F820300B60002070470320704701207047072070470E20704714
:4014000098300000F881FF1F5883FF1F38B5EFF3108472B6042853D8324B53F82030002B50D0314B53F82030032B4DD02F4D55F820200A4345F820202D4A52F82020114286
:4014400044D0012B44D10222274B43F8202000F0BDF9284B1B68002B3CD1274B1D6800F093F9B0F1FF3F37D0244B53F82020244B1B689A4232D9B5F1FF3F03D002211A4AC8
:4014800042F825101F4A52F8202013431C4A13600022154B43F8202000F032F91A4B53F820304BB10025184B43F8205040F0004000F0B2FC284612E000F0AEFC00200EE03E
:4014C00003200CE001200AE0072008E0002006E0002004E0002002E0002000E0002084F3108838BD98300000F881FF1F5883FF1F4483FF1FB083FF1FE081FF1FEC3000006A
:401500007483FF1FC03000003083FF1F38B5EFF3108472B63A4B1D683A4B1B68002B63D1B5F1FF3F62D0384B53F82530B3F1FF3F5ED1364B53F82530002B5BD0344B53F84E
:401540002530034258D1334B43F825000122324B43F82520314B53F8250031490B6823EA00030B602F4B43F825202F4B53F82520234B1A6000F008F9B0F1FF3F06D02B4B4E
:4015800053F82020264B1B689A420DD81C4B1868B0F1FF3F03D000221F4B43F8202040F0004000F039FC1AE000211B4A42F820101A4A52F820201343194A136000F0A0F82A
:4015C000184B53F8203043B10022164B43F8202040F0004000F020FC01E000F01DFC00200C4B43F8250008E0022006E0022004E0062002E0012000E0002084F3108838BD9B
:40160000E081FF1FB083FF1FFC80FF1F983000005883FF1F4483FF1FF881FF1FC03000007483FF1F3083FF1FE481FF1FEC300000EFF3108372B629B130B9054A52F8302045
:401640000A6002E00E2000E0032083F310887047EC80FF1F08B500F053F8084B53F8203043B10022054B43F8202040F00040044B186008BD024B186008BD00BF3083FF1FC1
:40168000B483FF1F10B500F07FF8124B1B68B0F1FF3F1AD0104A52F82010104A1268914213D9B3F1FF3F03D002240D4941F8234000210B4B43F820100A4B53F820301A439D
:4016C000064B1A60FFF7C6FF10BD43F00043064A136010BDE081FF1FEC3000007483FF1FF881FF1FC0300000B483FF1F034B1B6813B10022014B1A60704700BFA483FF1FCD
:40170000F0B4184B19880B0A174AD356B3F1FF3F01D1535601E008335BB2144D55F82320134850F82200134E56F8224045F82340114D2F6846F822702A60B4F1FF3F09D169
:401740000E4A42F82340012202FA03F321EA0301044B19800A4B19680A4A42F820101860F0BC70477083FF1FB02E0000A081FF1F888BFF1F2481FF1F6C83FF1F6081FF1FCB
:40178000E081FF1FE481FF1F0C4B1A88130A0C49CB56B3F1FF3F01D18B5601E008335BB2B3F1FF3F06D0074A52F82320064B53F8220070474FF0FF30704700BF7083FF1FDD
:4017C000B02E0000A081FF1F888BFF1F30B4144B53F82020134C2368134951F823502560124C44F823004FF0FF3441F82340104951F82210A1420AD10E4951F820400E4893
:401800000188214301800D4941F8223002E0064840F82130064941F8223030BC704700BF3881FF1F6C83FF1F2481FF1F888BFF1F6081FF1FEC3000007083FF1FA081FF1F21
:4018400010B150F8210070474FF0FF30704700BF0122014B1A60FEE7AC83FF1F70B50546124B53F8306000241CE0104B03EBC50321465868FFF7E4FF0D4A52F82030013B82
:4018800042F820300B4B53F82030032B07D10222084B43F820200022074B43F82020FFF795FF0134B442E0D370BD00BFB02F00004C81FF1FF881FF1F5883FF1F18B908B58A
:4018C000FFF7CCFF08BD7047194B1A4ADA621A4A9A631A4ADA63EFF3108272B6184B1B6813BB10B5044600F05DF8164B1C600122134B1A602046FFF7E1FFFFF745FFB0F112
:40190000FF3F0ED0104B53F82030104A11680B43136000220E4B43F82020FFF7F1FE00F07BFA62B6FFF794FF82F31088072070470080FF1FD91D00009D1D00004D01000099
:40194000AC83FF1F088CFF1FC03000007483FF1FF881FF1F08B5EFF3108272B60D4B19680D4B1B6863B90D4B53F82130B3F1FF3F08D14FF0FF300A4B43F82100002002E0D3
:40198000022000E0062010B9084600F09EFA82F3108808BDE081FF1FB083FF1FFC80FF1F1081FF1F38B50D4B1D68EFF3108472B600F0E2F90A4A136843F07F431360094BB7
:4019C0002B6407210020FFF771FA074A136843F00103136084F3108838BD00BF08ED00E020ED00E00D02000000E100E0024B1878C0F30010704700BF01510040024B18785F
:401A0000C0F3C000704700BF01510040044A137803F0DF03400100F0200018431070704730510040014B1870704700BF79650040014B1878704700BF79650040024A13782A
:401A400043F080031370704773640040014B1870704700BF03640040014B1870704700BF43640040014B1870704700BF2364004008B50B4A137803F0C00343F00903137017
:401A80002032137843F001031370FF20FFF7DEFFFF20FFF7E1FF0020FFF7E4FF08BD00BF7364004008B5054B1B7823B9FFF7E0FF0122024B1A70FFF7C1FF08BD7C83FF1F31
:401AC000024A137843F080031370704772640040014B1870704700BF02640040014B1870704700BF42640040014B1870704700BF2264004008B50B4A137803F0C00343F053
:401B0000090313702032137843F001031370FF20FFF7DEFFFF20FFF7E1FF0020FFF7E4FF08BD00BF7264004008B5054B1B7823B9FFF7E0FF0122024B1A70FFF7C1FF08BD3F
:401B40007D83FF1F024A137843F080031370704770640040014B1870704700BF0E640040014B1870704700BF4E640040014B1870704700BF2E64004008B50B4A137803F088
:401B8000C00343F0090313702E32137843F001031370FF20FFF7DEFFFF20FFF7E1FF0020FFF7E4FF08BD00BF7064004008B5054B1B7823B9FFF7E0FF0122024B1A70FFF742
:401BC000C1FF08BD7E83FF1F024A137843F08003137070477A640040014B1870704700BF0A640040014B1870704700BF4A640040014B1870704700BF2A64004008B50B4A02
:401C0000137803F0C00343F0090313702032137843F001031370FF20FFF7DEFFFF20FFF7E1FF0020FFF7E4FF08BD00BF7A64004008B5054B1B7823B9FFF7E0FF0122024BC7
:401C40001A70FFF7C1FF08BD7F83FF1F024A137843F080031370704779640040014B1870704700BF0B640040014B1870704700BF4B640040014B1870704700BF2B64004010
:401C800008B50B4A137803F0C00343F0090313702232137843F001031370FF20FFF7DEFFFF20FFF7E1FF0020FFF7E4FF08BD00BF7964004008B5054B1B7823B9FFF7E0FFA4
:401CC0000122024B1A70FFF7C1FF08BD8083FF1F024A137843F080031370704775640040014B1870704700BF05640040014B1870704700BF45640040014B1870704700BFFE
:401D00002564004008B50B4A137803F0C00343F0090313702032137843F001031370FF20FFF7DEFFFF20FFF7E1FF0020FFF7E4FF08BD00BF7564004008B5054B1B7823B935
:401D4000FFF7E0FF0122024B1A70FFF7C1FF08BD8183FF1F000000000230800803D000BF01380046FCD17047EFF3108072B6704780F31088704700BF18484FF47F01026849
:401D80000A43026016486FF07F4102680A400260704714484FF080510160704772B611484FF000610160FFF76DFC0F48006800F0F3F858B10C4800684FF080730B4A0C498A
:401DC0000FB40FB46FF00600004700BF6FF0060062B6004762B600DF08B0704720ED00E01CED00E004ED00E0B483FF1F191E0000D51D0000EFF308800549086005480068CE
:401E000080F3088870470248006880F3088870474482FF1F3882FF1F411C8900154A11440968154A136899421AD0F0B444464D4656465F46F0B400B5104C9B002344EFF37B
:401E400008851D60116089002144096881F3088802BC8E46F0BCA046A946B246BB46F0BC002806DB00B500F08BF802BC8E46FFF7D3BF7047283100007883FF1F3C82FF1F7C
:401E8000F0B444464D4656465F46F0B400B5EFF3038308B48000174901440968164A0244EFF30883136088471448804704BC4FF08070024382F3038801BC8646F0BCA04646
:401EC000A946B246BB46F0BC704780000A4901440A6882F3088804BC4FF08070024382F3038808BC9E46F0BCA046A946B246BB46F0BC7047003100009C8BFF1F011F0000B9
:401F000010B572B6034B1C68204600F00DF82046FFF7DBFFE081FF1F08B5024B1868FFF7AFFF08BDE081FF1F10B4104B53F820304FF0FF310BE00E4A52F823200B4941F8DA
:401F4000202000240B4941F8234019461346B3F1FF3FF0D1B1F1FF3F04D0074B53F82120064B1A60084610BC704700BFFC80FF1FF480FF1F2883FF1F008CFF1F7483FF1F11
:401F800008B562B6FFF7C8FF72B600F041F8014B186808BDB483FF1F00280BDA20F000400130054B53F82000044B1B68181A18BF0120704701207047283100007883FF1F12
:401FC000054B53F82020054B53F820309A4201D101207047002070474C81FF1FAC30000008B5FFF78DFB084B53F8203043B10022054B43F8202040F00040044B186008BDF1
:40200000024B186008BD00BF3083FF1FB483FF1F38B5364B1C680022354B1A60354A52F82430013342F82430334B53F824502046FFF7C6FF012801D0A54204D103222F4B91
:4020400043F8242003E002222C4B43F824202C4B53F824102B4A136823EA010313602A4B53F82440214B1C60B5F1FF3F0FD0234B53F82530032B07D10222204B43F8252088
:402080000022224B43F825202846FFF79FFBFFF77BFBB0F1FF3F0BD1B4F1FF3F03D00022164B43F8242044F00044194B1C6038BD184B53F82020134B1B689A4208D800223A
:4020C0000E4B43F8242044F00044114B1C6038BD00210A4A42F82010094A52F820201343084A1360FFF77CFF38BD00BFE081FF1FA483FF1F4C81FF1F1081FF1FF881FF1FD2
:40210000C03000007483FF1FE481FF1F5883FF1FB483FF1FEC300000014B1868704700BFA882FF1F0E4B70B51E460E4C0025E41AA410A54204D056F8253098470135F8E7BE
:4021400001F082F8084B094C1E46E41AA4100025A54204D056F8253098470135F8E770BD5432000054320000543200005C32000010B5431E0A44914204D011F8014B03F807
:40218000014FF8E710BD03460244934202D003F8011BFAE77047000038B5124B05461C68A36BD3B9182000F08BF843F20E33A06303804AF6CD33438041F2342383804EF214
:4021C0006D63C3804DF6EC630381052343810B23838101220023C0E90423A36B00221D615A6138BDA882FF1F194B10B51C68A36BD3B9182000F064F843F20E33A063038015
:402200004AF6CD33438041F2342383804EF26D63C3804DF6EC630381052343810B23838101220023C0E90423A16B0A4C0B6948695C43094A02FB0040A3FB0223013203447E
:4022400043F10003C1E9042323F0004010BD00BFA882FF1F2DF451582D7F954C0CB430B5164B0C1E9DB01D6804DA8B232B604FF0FF301EE04FF40273ADF814300CBF23467E
:4022800004F1FF33049307934FF6FF7302900690ADF81630209A21AB02A92846019300F01BF9431CBCBF8B232B6014B1029B00221A701DB0BDE8304002B07047A882FF1F11
:4022C000024B0146186800F04FB800BFA882FF1F38B50546002944D051F8043C0C1F002BB8BFE41800F0C1FB1E4A1368114613B96360146030E0A3420DD92268A01883423A
:4023000001BF18685B681218226063600C6023E0A24203D813465A68002AF9D118681918A1420BD12168014458188242196013D110685268014419605A600DE002D90C237E
:402340002B6009E021686018824201BF106852680918216062605C602846BDE8384000F085BB38BD8883FF1F70B5CD1C25F0030508350C2D38BF0C25002D064601DBA94230
:4023800002D90C23336046E000F06FFB234B1C681A462146A1B10B685B1B0ED40B2B03D90B60CC18CD501EE08C420BBF63684B681360636018BF0C4615E00C464968E9E771
:4023C000174C23681BB9304600F016FB20602946304600F011FB431C18D0C41C24F00304A0420DD12560304600F040FB04F10B00231D20F00700C31A0ED05A42E25070BD0E
:40240000211A304600F0F8FA0130EBD10C233360304600F02BFB002070BD00BF8883FF1F8483FF1F2DE9F0478E6882469E420C46914698463ED88A8912F4906F3AD02568BD
:40244000096902236F1A656905EB450595FBF3F57B1C43449D4238BF1D4653050FD52946FFF782FF064698B13A462169FFF780FEA38923F4906343F08003A38113E02A46BD
:4024800000F0F5FA064670B921695046FFF720FF0C23CAF80030A3894FF0FF3043F04003A381BDE8F08726613E44266046466561ED1BA560464528BF4646494632462068A7
:4024C00000F0B8FAA36800209B1BA36023681E442660BDE8F08700002DE9F04F9DB003938B8980461C060D4616460DD50B695BB94021FFF739FF2860286118B90C23C8F81A
:402500000030CDE040236B610023099320238DF82930DFF89CB130238DF82A3037463C4614F8013B1BB9B7EB060910D003E0252BF9D02746F3E74B46324629464046FFF776
:4025400071FF013000F0A780099B4B4409933B78002B00F0A08000234FF0FF3204930793059206938DF853301A930126052221784E4800F051FA671C049B38B14B4A3C4663
:40258000801A06FA00F018430490EFE7D90644BF20228DF853201A0744BF2B228DF8532022782A2A03D0079A00210A200BE0039A111D12680391002A10DA524243F00200F9
:4025C000079204900BE027463B780134303B092B03D800FB02320121F5E701B107923B782E2B1ED17B782A2B0AD1039B02371A1D1B680392002BB8BF4FF0FF33059310E09D
:40260000002319460593781C0A2407463A780130303A092A03D804FB01210123F5E703B1059103223978224800F0F6F940B14023CBEB000003FA00F0049B013718430490CF
:40264000397806221B487E1C8DF8281000F0E4F988B1194B33B9039B073323F007030833039314E003AB00932A46144B04A94046AFF3008007E003AB00932A460F4B04A9B3
:40268000404600F093F8B0F1FF3F824603D0099B5344099342E7AB895B0601D4099801E04FF0FF301DB0BDE8F08F00BF12320000183200001C320000000000002524000070
:4026C0002DE9F04791461F460A698B6806469342B8BF1346C9F8003091F843200C46DDF8208012B10133C9F800302368990642BFD9F800300233C9F80030256815F006057F
:4027000010D104F1190A07E00123524639463046C04701301AD00135E368D9F800209B1A9D42F1DB94F843302268003318BF012392060FD5E118302081F843005A1C94F8DA
:4027400045102244023382F8431003E04FF0FF30BDE8F08704F1430239463046C0470130F4D02268D9F80050E36802F00602042A08BF5D1B2269A3680CBF25EAE5750025B8
:402780009342C4BF9B1AED184FF000091A344D4509D00123224639463046C0470130D5D009F10109F3E70020BDE8F0872DE9F04317460A7E85B06E2A984606460C460C9B70
:4027C00001F1430E00F0AE8011D8632A22D009D8002A00F0BB80582A40F0CA8081F84520834955E0642A1ED0692A1CD0C0E0732A00F0B08009D86F2A2ED0702A40F0B8802D
:402800000A6842F020020A603EE0752A24D0782A3AD0ADE01A6801F14205111D1960136884F84230A8E021681A6811F0800F02D0111D196008E011F0400F02F1040119606E
:4028400002D0B2F9003000E01368002B3CDA2D225B4284F8432037E021681A6811F0800F02D0111D196007E011F0400F02F10401196001D0138800E01368227E5C496F2ACC
:4028800014BF0A2208221BE078225A4984F845202268186812F0800F00F104051D6003D1550601D5038800E00368D00744BF42F0200222601BB9226822F0200222601022F3
:4028C000002084F8430001E049490A226568002DA56008DB206820F0040020602BB9002D7DD175460CE0002B79D07546B3FBF2F002FB1033CB5C05F8013D03460028F5D1BE
:40290000082A0BD12368DA0708D5236962689A42DEBF302305F8013C05F1FF35C5EB0E0323612EE008681A6810F0800F496903D0101D1860136808E010F0400F02F1040013
:402940001860136801D0198000E0196000232361754616E01A68111D1960156800216268284600F059F808B1401B6060636804E004F1420584F8422001232361002384F825
:402980004330CDF800803B4603AA21463046FFF797FE013002D14FF0FF3026E023692A4639463046C0470130F5D023689B0710D5002504F1190907E001234A463946304685
:4029C000C0470130E7D00135E368039A9B1A9D42F2DBE068039B9842B8BF184605E00B7804F1420584F842308AE705B0BDE8F083233200003432000038B5064C002305469C
:402A000008462360FEF750F9431C02D1236803B12B6038BD0C8EFF1F10B5C9B202449042034605D01C7801308C42F8D1184610BD002010BD884210B501EB020301D8421E3B
:402A40000BE09842FBD28118D21AD34204D013F8014D01F8014DF8E710BD994204D011F8014B02F8014FF8E710BD70477047F8B5074615460E4621B91146BDE8F840FFF7F5
:402A800073BC1AB9FFF724FC2846F8BD00F015F885420ED929463846FFF766FC044650B131462A46FFF764FB31463846FFF710FC01E03046F8BD2046F8BD51F8040C0028C5
:402AC000BEBF091851F8043CC018043870470000000000000D0A0D0A3D3D3D3D3D3D3D3D3D3D3D3D2057656C636F6D6520746F20746865205265616374696F6E2047616D00
:402B000065203D3D3D3D3D3D3D3D3D3D3D3D0D0A7072657373206F6E65206F66207468652074776F20627574746F6E7320746F2073746172742E2E2E0D0A0D0A0000000086
:402B4000526F756E643A2025750D0A004772656174202D20636F727265637420627574746F6E2070726573736564210D0A0000005265616374696F6E2074696D6520696EEB
:402B8000206D733A2025750D0A0000004F6F7073202D2077726F6E6720627574746F6E2070726573736564210D0A000053636F72653A202575207C20546F74616C20546938
:402BC0006D653A2025756D73207C204176672054696D653A2025756D730D0A003D3D3D3D3D3D3D3D3D3D3D3D3D3D3D3D3D3D3D3D3D3D3D3D3D3D3D3D3D3D3D3D3D3D3D3D27
:402C00003D3D3D3D3D3D3D3D3D3D3D3D3D3D3D3D3D3D0D0A0000000047616D6520416E616C797A6572000000546F6F20736C6F77210D0A00FF000000F40100FF0000F4011C
:402C40000000FF00F401000000006400FFFFFF006400000000006400FFFFFF006400000000006400FFFFFF0064000000000001000100010001000100010001000100020007
:402C800002000200020002000200020002000200020002000200030003000300030003000300030004000400040004000400040005000500050005000500060006000600A6
:402CC0000600070007000700080008000800090009000A000A000A000B000B000C000C000D000D000E000F000F00100011001100120013001400150016001700180019001F
:402D00001A001B001C001D001F0020002100230024002600280029002B002D002F0031003400360038003B003D0040004300460049004C004F00530057005B005F006300C1
:402D400067006C00700075007B00800086008C00920098009F00A600AD00B500BD00C500CE00D700E100EB00F50000010B011701240130013E014C015B016A017A018B0100
:402D80009C01AF01C201D601EA01000217022E02470261027C029802B502D402F402160339035D038303AB03D50300042D045D048E04C204F80430056B05A805E8052B0694
:402DC0007106BA0606075607A90700085B08B9081C098309EF09600AD50A500BD10B560CE20C740D0D0EAC0E520F0010B510731138120713DF13C014AB15A116A117AD18AF
:402E0000C419E91A1A1C581DA51E00206B21E52271240E26BD278029562B412D422F5A318933D1353338B03A493D0040D542CB45E2481C4C7A4FFF52AC56825A845EB362CB
:402E40001267A26B66706075927A0080AA85958BC3913798F59EFEA558AD04B508BD66C524CE44D7CCE0C0EA25F5FFFF004F00400C0040510040300000000140800E000F4A
:402E80000140000100140140000800400140000A004C01400002005001402000605200405C0900480600800E0140640900488000FF000101020202020303030303030303DE
:402EC0000404040404040404040404040404040405050505050505050505050505050505050505050505050505050505050505050606060606060606060606060606060692
:402F00000606060606060606060606060606060606060606060606060606060606060606060606060606060606060606060606060707070707070707070707070707070701
:402F40000707070707070707070707070707070707070707070707070707070707070707070707070707070707070707070707070707070707070707070707070707070791
:402F800007070707070707070707070707070707070707070707070707070707070707070707070707070707070707070707070701000000B82F00000000000000000000D9
:402FC000020000000000000000000000FFFFFFFF00000000040000000000000000000000FFFFFFFF00000000040000000000000000000000FFFFFFFF0100000002000000D0
:403000000800000000000000FFFFFFFF01000000020000000400000000000000FFFFFFFF000000000000000000000000000000000100000000000000000000000200000086
:403040000000000000000000030000000000000000000000040000000000000000000000010000000200000003000000040000000000000001000000020000000300000039
:4030800004000000A08601000100000000000000000000000000000000000000000000000100000000000000000000000100000001000000010000000100000001000000DE
:4030C00080000000010000002000000002000000100000000100000002000000040000000800000000000000010000000200000001000000200000000200000010000000D8
:40310000AD0000003D010000ED000000350100001D010000191F0000191F0000191F0000191F0000191F00000000000000000000000000000100000000000000000000004A
:40314000616C726D5F5469636B316D00616C726D5F617263616469616E000000616C726D5F74667400000000616C726D5F72616E646F6D00616C726D5F74696D656F7574E6
:403180000000000065765F627574746F6E4C65667400000065765F627574746F6E5269676874000065765F74696D656F7574000065765F72616E646F6D446F6E6500000058
:4031C0007265735F726E64007265735F6F75740074736B5F696E69740000000074736B5F6261636B67726F756E64000074736B5F67616D650000000074736B5F7466740061
:4032000074736B5F617263616469616E000000004300232D302B2000686C4C0065666745464700303132333435363738394142434445460030313233343536373839616206
:403240006364656600000000F8B500BFF8BC08BC9E4670474D000000250D0000F8B500BFF8BC08BC9E4670472900000080320000C880FF1FE8010000600B000000000000AA
:403280000000000001000000FFFF0000108EFF1F403100004C3100005C310000683100007431000000000000FFFFFFFFFFFFFFFFFFFFFFFFFFFFFFFFFFFFFFFFFFFFFFFFB2
:4032C000FFFFFFFFFFFFFFFFFFFFFFFFFFFFFFFFFFFFFFFFFFFFFFFFFFFFFFFF01000000020000000300000004000000FFFFFFFF01000000000000000500000001000000DD
:40330000040000000100000001000000010000000100000001000000FFFFFFFFFFFFFFFFFFFFFFFFFFFFFFFFFFFFFFFFFFFFFFFFFFFFFFFFFFFFFFFFFFFFFFFFFFFFFFFFAC
:40334000FFFFFFFFFFFFFFFFFFFFFFFFFFFFFFFFFFFFFFFFFFFFFFFFFFFFFFFFFFFFFFFFFFFFFFFFFFFFFFFFFFFFFFFFFFFFFFFFFFFFFFFFFFFFFFFFFFFFFFFFFFFFFFFF8D
:40338000FFFFFFFFFFFFFFFFFFFFFFFFFFFFFFFFFFFFFFFFFFFFFFFFFFFFFFFFFFFFFFFFFFFFFFFFFFFFFFFFFFFFFFFFFFFFFFFF0300000003000000030000000300000031
:4033C000030000008431000094310000A4310000B0310000C0310000C8310000D0310000DC310000EC310000F8310000003200000C8EFF1F00000000608BFF1F0000000069
:40340000000000000000000000000000000000000000000000000000000000000000000010320000000000000000000000000000000000000000000000000000000000004A
:4034400000000000000000000000000000000000000000000000000000000000000000004882FF1F0000000000000000000000000000000000000000000000000000000064
:40348000000000000000000000000000000000000000000000000000000000000000000000000000000000000000000000000000000000000000000000000000000000000C
:4034C00000000000000000000000000000000000000000000000000000000000000000000000000000000000000000000000000000000000000000000000000000000000CC
:40350000000000000000000000000000000000000000000000000000000000000000000000000000000000000000000000000000000000000000000000000000000000008B
:40354000000000000000000000000000000000000000000000000000000000000000000000000000000000000000000000000000000000000000000000000000000000004B
:020000040003F7
:0200000480007A
:40000000024F00400652004003640040016500405600014032010140670201404E0301405504014048050140040601400D0701404B08014040090140630A0140490B0140DA
:40004000160D0140220E01402F0F014002170140311801403C1901400C1B0140024001400E4101400642014009430140044401400845014004460140034801400F4C014057
:400080000F4D0140075001400151014001400A2700400140083909AC10111131810F840F88388872000608070C020E04140215011702180219041A051C041D0420062106F1
:4000C00023012402260428042A022C012E02320735073B2040614103450C46E047B0482949FF4AFF4BFF4EF04F44500C5280580459045A045B045D235F0166C06A406B02D6
:4001000084068601870289028A069202960399019E01A302A605A702A902B207B301B702BA08BF44C002C640C9FFCA07CBFFCC40CD20CEF0CF05D008D401D804D904DA041B
:40014000DB04DC03DD33DF01E040E1A8E240E320001003410518084009200A200D020E100F0210201110120113011620181019041E10212026442A012D082E123040312488
:4001800036203E203F144212471049204A104B1452225510560257015C025EA873408440C06BC2B7C42FCAE1CC2ECE60D02AD204D6F0E608030107040903140119032202A9
:4001C000240125022B043202330334013504382039083E103F044030410645014620480949FF4AFF4BFF4DA04F0450185280580459045A045B045C225D225F01604062C0E4
:400200006440654066C068C06AC06CC06EC0820C840C86038702881089018C108F04920393019401960E981099019D01A302A401A606A708AA08AD01B010B101B20FB308ED
:40024000B504B702BA08BE01BF01C030C106C510C702C812C9FFCAFFCBFFCDA0CF04D018D280D804D904DA04DB04DC23DD22DF01E040E2C0E440E540E6C0E8C0EAC0ECC0C4
:40028000EEC000100108028109210A100F101010112016A019081A401D081F242080211523022610271029412A042D082F043020334134103520372039183B403D023E1032
:4002C0003F0A4104450849014A084F2852085710710276808102820485108610870290109210934495109620970199049A039D389F51A130A202A301A420A912AA01B00229
:40030000B120B220B410C00FC22EC436CA6BCC2DCEEED042D224E002E408EA04EE02041C05020622070D09D00DD00E03104011D0142C1520161117D0180919291A101B86F3
:400340001DD02125234A24302513260C272C28102C142DD0301F33F03460350F38203B2856025724580459045B045C035F018503870489038B0492019503970C9A019B086E
:40038000A202A305A50AA704B002B30FB401BB08C040C106C501C620C809C9FFCAFFCBFFCDA0CF04D018D280D804D904DA04DB04DC31DD11DF01E040E2C0E440E540E6C090
:4003C000E8C0EAC0ECC0EEC0004001080A140B800D020F08112812021680184019101A041D021F102004210825042604272029442A012D082E022F403128334135103604CA
:40040000380439903E103F0445024F2857106004682069106B417140730176808E1092109304951096209701990C9A039D509F61A130A202A420A910AAC0AF30B040B101FF
:40044000B220C005C25EC417CACBCC6FCE6ED080D220D804E804EC8039083F0459045F0127208320871090409320AD40AF01B110B420B540B740E802EC0800060209041002
:4004800008100B800F801144120113311406156718071A081C0F1D011F0E20102402280929672A062C042D222F51301031603208338034073518370738083F1440644103CC
:4004C0004205440246CE480C49FF4AFF4BFF4C624DA04EF04F41500C5418580459045A045B045C335D335F016640670269106A306B106D106E106F1283018C01B301B60171
:40050000BE40D280D804D904DB04DC10DD10DF01014004280525080109020C080D420E0815101602170918011C101D1223102510268A2DA0300432083480350436823842B3
:400540003B403C103F80451247044D104E044F4057505E0264046540700181408304971099409D10A710AA04AB01AC41AF04B020B108B530B688B702C071C2F0C4F0CA3074
:40058000CCD0CE31D0E0D230D680D830E890EC100405060A0702080E0B020F011C031E041F012304240426093102320F3301370438084010410346014702481449FF4AFFB4
:4005C0004BFF4DA04F0450185280580459045A045B045C105D115F01604062C06440654066C068C06AC06CC06EC08004840485048A028C048D018F06920495079602990172
:400600009A049B069C049F03A104A201A601A704A801A904AD04B001B404B602B707BB80BE51C060C105C612C80CC9FFCAFFCBFFCDA0CF04D018D440D804D904DA04DB04D0
:40064000DD01DF01E040E2C0E440E540E6C0E8C0EAC0ECC0EEC00010031005180680070208800C410E080F2813081480171818101C401D401F10202121812540268027016A
:4006800029012C402D282E8031803480371838883A103D803F04400141044C044F905040510456105740662067227101841085018E80944098809A209B189C619D089E8882
:4006C0009F01A304A510A980B002B380C0F6C2F1C474CAF1CC78CE5ED00AD230D870E008E240E402E820EC208508944098809A209B189C639D889E889F81A304A518A81090
:40070000AA04AB10AD80B104B308B480B520E408E810EC85060307010A0217011C012603320337014030410246204701481849FF4AFF4BFF4DA04F045018580459045A0412
:400740005C205D025F01604062C06440654066C068C06AC06CC06EC0001003100520071108800C410D040E0813081420168A18101E08218027102C012D282F803108344012
:40078000371938083D203E084118448047984D0450045110562257845C425D045E20658086108780C0E6C2F1C4F4CAF0CCF2CE62D0F6D6F0D810A840EC04001F011002205B
:4007C000040205080833097F0A0C0C080D1C0F6112231363143F151C1762181C19401A231C011D601E402003230424042518280C29672B182D24302C3160320F331F34102B
:4008000036403A0A3B283E1056025712580459045B045C335D305F01DB04DF0104100501061207100C010E29148017281C101D011E441F442510261527042D882F44348152
:40084000360437103D203E4A5E04680169056A106C146F01700171107220730174087508760A77287C107E0483019428960898819A109D819E029F0DA408A605A940B21242
:40088000B441B510C0F0C2F0C470CAF0CCF0CEF0D640E00189808A0196019D80A910AA10AD05B001B220B401E809EC063380CC1007080B105A02641084109202A780AE01AE
:4008C000C080C210D640D880E640EE405308AF88B310D420E810EE101B086B8083808620A708C610DC20E280E64070047D40DC01DE045602620867408602A804A940D604D5
:40090000D803860887409740A6085220A220D4205001512057205E015F806008630166088380A008B408D407D607D803EC08110174088901A008A801AB01AE09B008B120E6
:40094000B720C408DE04E601E803EC01000F080D0A0B0C0B0E0510081C080003A084000040000000000000000A0A1000070838020400000004080000560C09030101000838
:40098000040A0000040200000002040804030004600800020000000F7F000000200000080000000023041000000EFCBD3DFFFFFF2200F0080400000009000000040404047B
:4009C000000000010000C00040011011C0010011400140010000000000000000000000000000000018C0C000C0000000800040BCBC00B40000000000000404000400000030
:400A000000FFFF00FF0000000031310031000000003838000800000000000000000000000000000000000000000000000000000000000000000000000000000000000000AE
:400A40000000000000000000000000000000000000000000000000000000000000000000000000000000000000000000000000000000000000000000000000000000000076
:400A80000000000000000000000000000000000000000000000000000000000000000000000000000000000000000000000000000000000000000000000000000000000036
:400AC00000000000000000000000000000000000000000000000000000000000000000000000000000000000000000000000000000000000000000000000000000000000F6
:400B000000000000000000000000000000000000000000000000000000000000000000000000000000000000000000000000000000000000000000000000000000000000B5
:0200000490006A
:0400000000004007B5
:0200000490105A
:04000000BC90ACAF55
:0200000490303A
:0200000085F287
:0200000490402A
:4000000000000000000000000000000000000000000000000000000000000000000000000000000000000000000000000000000000000000000000000000000000000000C0
:400040000000000000000000000000000000000000000000000000000000000000000000000000000000000000000000000000000000000000000000000000000000000080
:400080000000000000000000000000000000000000000000000000000000000000000000000000000000000000000000000000000000000000000000000000000000000040
:4000C0000000000000000000000000000000000000000000000000000000000000000000000000000000000000000000000000000000000000000000000000000000000000
:0200000490501A
:0C00000000012E16106900012E2B965BEB
:00000001FF