:4000000000800020110000005D1600005D16000008B5044B1A6803F53F5302331A6001F03DFB00BFFA46004010B5054C237833B9044B13B10448AFF300800123237010BD58
:40004000B882FF1F0000000080350000084B10B51BB108490848AFF300800848036803B910BD074B002BFBD0BDE81040184700BF00000000BC82FF1F80350000C880FF1FB6
:400080000000000008B562B645F6BF52054B1A60054A136843F002031360002002F00AF9FBE700BF14E000E010E000E008B500F093FC01F09FFB00F003FFFF2000F024FE9C
:4000C00000F02EFD00F0EEFA00F0F8F802F060F90A4A136843F00503136001220221104601F066FC022001F0EFFB032001F0ECFB012001F0E9FB02F023F908BD10E000E0E5
:4001000000B583B000230193084801F08DFB0F2001F0F2FE01A9022001F04EFE019801F01DFE019800F0CCFAF1E700BF8435000008B50221012000F0BBFB0321012000F01E
:40014000DFFB02F0FDF808BD08B500F01FFB02F0F7F808BD00BFFDE708B5002001F0A6FD08BD00BF684620F007018D4619B572B6EFF311841E4B1B68DBB20F2B10D9103B07
:4001800023F0030202F1604202F564421168DB0003F01803E0229A400A4022FA03F306E00F2B03D1134B1B681B0E00E0002383F31188114A136801331360012B01D102F0DE
:4001C00071FB62B6FFF7C8FF72B684F3118801F083FF094A1368013B13601BB902F06BFB02F02FFB62B6BDE819408546704700BF04ED00E020ED00E09C84FF1F08B500201E
:4002000000F016FC20B10121022001F0F5FD08BD012000F00DFC18B10221084601F0ECFD08BD00BF684620F007018D4619B572B6EFF311841E4B1B68DBB20F2B10D9103B60
:4002400023F0030202F1604202F564421168DB0003F01803E0229A400A4022FA03F306E00F2B03D1134B1B681B0E00E0002383F31188114A136801331360012B01D102F01D
:4002800011FB62B6FFF7BAFF72B684F3118801F023FF094A1368013B13601BB902F00BFB02F0CFFA62B6BDE819408546704700BF04ED00E020ED00E09C84FF1F10B50024E0
:4002C000084B1C60084AD36843F08073D360074B5C601A6842F001021A6000F09DFB204610BD00BFD482FF1FF0ED00E0001000E020B370B4044623B3012903D0032901D05E
:40030000042900D102B3187808B3052922D809B1022900D10AB314480579092D20D86E1C067100EB8500846000206060217160712360A060E0602061626113E06FF001002A
:4003400070476FF001000DE06FF001000AE06FF0130007E06FF0130004E06FF0130001E06FF0070070BC7047D482FF1F08B310B504464379012B1FD00379032B03D0012B26
:4003800001D0042B03D16369CBB1012098472279931EDBB2012B03D80A4B1B68A36004E0012A02D8084B5B68A36001236371002010BD6FF0010070476FF0090010BD6FF0D4
:4003C000010010BDD482FF1F001000E078B330B40546002307E0194A02EB83029268954207D00133DBB2154A1479A342F3D3002200E0012252B91DE0591C104A02EB810127
:40040000896802EB830291600133DBB2621E9342F2D30A4B03EB820200209060013C1C7128606860A860E8602861686104E06FF0010070476FF0130030BC7047D482FF1F76
:40044000C3688268934204D301699B1A0B44036103E001699B1A0B4403610020704700BF40B338B503464279013AD2B2012A24D801798A1ED2B2012A03D8134A1268C2602F
:4004800004E0012902D8114A5268C2601C461846FFF7D6FF05462379032B03D0012B01D0042B03D163695BB10020984703236371284638BD6FF0010070476FF0160038BDF5
:4004C0006FF0010038BD00BFD482FF1F001000E003690248A0FB0330400A7047F119760500B583B001A9002001F098FD019802F0ABFB02F0D1FB0C4B83FB0032C317C3EBC4
:40050000E2134FF4FA6202FB130303F57A739BB2064A53805188002289B2032001F048FA002003B05DF804FBD34D62100483FF1F10B586B000F01CFA0D4CE3899BB201338E
:400540009BB2E3814FF47A73A380A188002289B2042001F02DFAE3899BB2064A142101A802F0D4FB01A801F05FF9002006B010BD0483FF1FF035000030B595B00E4C002505
:40058000E581A368227CD2B2B3FBF2F2A389A168019200919BB2094A462102A802F0B6FB02A801F041F9064801F03EF9A389DBB26374284615B030BD0483FF1FFC35000098
:4005C0002C36000030B591B001F028FF5B2820D1134801F029F9134D2846FFF779FF0346114A3C2101A802F091FB01A801F01CF90E4C237C0133DBB22374A3899BB2013368
:400600009BB2A3812846FFF763FFA3681844A06002E0074801F008F9002011B030BD00BF683600007884FF1F8C3600000483FF1FA836000030B591B001F0F0FE062820D14B
:40064000134801F0F1F8134D2846FFF741FF0346114A3C2101A802F059FB01A801F0E4F80E4C237C0133DBB22374A3899BB201339BB2A3812846FFF72BFFA3681844A06077
:4006800002E0074801F0D0F8002011B030BD00BF683600007884FF1F8C3600000483FF1FA8360000054B00221A705A809A809A609A81DA811A745A74704700BF0483FF1FEF
:4006C00010B504462C4BDB899BB22BB92B4B002211462B48FFF70CFE274B1B78DBB2012B0CD013B1022B15D043E014F0030F40D0FFF7F6FE0122204B1A703AE014F0080F8D
:4007000037D0FFF715FF02221B4B1A701C48FFF72DFE2EE01A48FFF7A3FE14F0010F01D0FFF750FF14F0020F01D0FFF783FF14F0040F02D0134801F077F80023104A1361EB
:400740000D4C237000F052F90F4801F06DF8E3899BB20A2B0DD1FFF70FFF002222706280A280A260A281E281227462740448FFF72DFE002010BD00BF0483FF1FC83600006D
:400780007884FF1FD83600002C36000008B500F009FC3C21112000F01FFB022000F030FB1F2000F021FB084800F00CFE5021282000F012FB4FF4784000F016FB034800F0A6
:4007C00001FE002008BD00BFE4360000F0360000024610B119B1012302E0012300E000237BB1B1FBF2F101B90121074B186801301860B0FBF1F301FB1300B0FA80F0400903
:4008000070470120704700BF1883FF1F10B4114B5B68DCB21B0A012B05D013B1022B06D009E0047009E0E34303700C7005E0E3430B70147001E0E4431470064A5368013323
:400840005360B3F5806F02D30022024B5A60002010BC70471883FF1F30B4124B9C6804EB44056B00104D2B449B8800FB03F00F4BA3FB0030C00AB0FBF2F202B9012209485F
:40088000C3680133C3609A4207D80023C3600134B4FBF1F301FB13448460024B986830BC704700BF1883FF1FF83600002D34A9F910B582B0034600B9D9B11846FFF788FFBF
:4008C000D0B100248DF807408DF8064002AA02F8034D0DF106010DF10700FFF797FF9DF805209DF806109DF8070000F04DF9204603E06FF0130000E0002002B010BD00BF00
:40090000C0B10246C9B138B5084609214FF47A7303FB00F0FFF7A0FF094D420011184B0019462B440C469A785978285D00F01EF9002038BD6FF0130070476FF0130070476A
:40094000F836000010B50446013000F06DFF064800F06AFF04F1110000F066FF034800F063FF002010BD00BF403700008836000010B502F091F9104B184003D5013860F0D8
:40098000010001300130C0B2012803D0022803D0802402E0062400E05B24002001F02CFD204601F035FD012001F026FD204601F02FFD002010BD00BF0100008008B5FF22D4
:4009C000044B1A5401F018FD002001F021FD002008BD00BFCC80FF1F08B50020FFF7EEFF0120FFF7EBFF002008BD00BF08B5094BFF221A705A70002001F0FEFC002001F0F0
:400A000007FD012001F0F8FC002001F001FD002008BD00BFCC80FF1F08B5002000F098FE002000F0A1FE002000F0AAFE08BD00BF08B510B1012806D00BE001F0D5FC0128EE
:400A400009D0002008BD01F0C7FC012805D0002008BD002008BD012008BD012008BD00BF38B504460D46032824D8DFE800F00209101E084600F06CFE104B1D55002038BD86
:400A8000084600F071FE0D4B1D55002038BD084600F076FE094B1D55002038BD29462046FFF7DEFF0134E4B200E00024022CF5D9002038BD6FF0130038BD00BF2883FF1FA6
:400AC00038B504460D46032824D8DFE800F00209101E084600F03CFE104B1D55002038BD084600F041FE0D4B1D55002038BD084600F046FE094B1D55002038BD294620466D
:400B0000FFF7AEFF0134E4B200E00024022CF5D9002038BD6FF0130038BD00BF2883FF1F38B50024254609E000210F4B19552046FFF796FF00B105460134E4B2022CF3D943
:400B400001F0ACFD01F0ECFD01F02CFE002407E000212046FFF7B4FF00B105460134E4B2022CF5D9284638BD2883FF1F38B50D46144601F025FE284601F02EFE204601F02C
:400B800037FE002038BD00BF38B50D461446C0B201F064FDE8B201F0A3FDE0B201F0E2FD002038BD38B5134B988908B319461C89631C9BB2104AA2FB03525209642505FB05
:400BC00012330B810138888101EB44018B7B13B1012B04D006E0002001F098FC02E0012001F094FC034B03EB4404E07B01F042FC38BD00BF2C83FF1F1F85EB5130B5ABB029
:400C00001B4B9B89632B17D92AAD032305F8A83D184B1868CDF80100174C0FCCCDF81100CDF81510CDF81920CDF81D302846FFF789FE6FF0070019E00D4D6C89621C92B2BB
:400C400005EB4404A073E1730C49A1FB02014909642000FB11226A8101339BB2AB81012B03D1FFF79FFF002000E000202BB030BD2C83FF1F9C3C0000A03C00001F85EB5168
:400C80002DE9F04180460E4617461D462A210020FFF7B4FF00210120FFF7B0FF194C94F8D6104144C9B20120FFF7A8FF00210120FFF7A4FF94F8D6103944C9B20120FFF727
:400CC0009DFF2B210020FFF799FF00210120FFF795FF94F8D7103144C9B20120FFF78EFF00210120FFF78AFF94F8D7102944C9B20120FFF783FF2C210020FFF77FFFBDE850
:400D0000F08100BF2C83FF1F08B5642800D9642001F02EFC08BD00BF10B5044636210020FFF76CFF04F003002A4B83F8D80003284ED8DFE800F00215283BC2210120FFF74F
:400D40005DFF244BA022A3F8DA208022DA8093F8DC2083F8D62093F8DD2083F8D72010BDA2210120FFF74AFF1A4BA022DA808022A3F8DA2093F8DC2083F8D72093F8DD203A
:400D800083F8D62010BD08210120FFF737FF114BA022A3F8DA208022DA8093F8DC2083F8D62093F8DD2083F8D72010BD62210120FFF724FF074BA022DA808022A3F8DA20AF
:400DC00093F8DC2083F8D72093F8DD2083F8D62010BD00BF2C83FF1F024BA3F8DE00A3F8E01070472C83FF1F014BA3F8E20070472C83FF1F014BB3F8E40070472C83FF1F27
:400E000008B90120FFE7014B187170472C83FF1F2DE9F0411F46BDF818501F4BB3F90630834236DD90461C4AB2F8DA20914230DA00EB0804013C9C4202DB1B1A0FFA83F83F
:400E40007B18013B9A4201DC571A3FB2C0B2C9B2CB19013B00EB0802013ADBB2D2B2FFF70FFF2E0AEDB2012001F050FB0FE031460220FFF7C3FE29460220FFF7BFFE013C42
:400E800024B200E04446002CF1DC013F3FB2002FF8DCBDE8F08100BF2C83FF1F00B583B0064AB2F9DA30B2F90620009000210846FFF7AEFF03B05DF804FB00BF2C83FF1F30
:400EC000F8B5364B8022DA80A022A3F8DA20002483F8D840A3F8DE40A3F8E04001251D714FF6FF72A3F8E220A3F8E4405D711C6083F8DD4083F8DC4083F8D64083F8D740E4
:400F00001C815C819C8101F0F3FA284601F00AFB642000F0ABFC204601F004FB642000F0A5FC284601F0FEFA142000F09FFC29462046FFF763FE322000F098FC11212046A2
:400F4000FFF75CFE782000F091FC0F22144D14E02C4614F8021B0020FFF750FE6A78254606E06E1C29780120FFF748FE22463546531EDCB2002AF4D13A46531EDFB2002A4F
:400F8000E6D10220FFF7C8FE0020FFF787FF01F035FB642001F0ECFAF8BD00BF2C83FF1F4537000008B5FFF725FFFFF777FF08BD002821DB114BB3F9063098421CDA002964
:400FC0001ADB0E4BB3F8DA30994215DA10B51446C0B2C9B24B1C421CDBB2D2B2FFF750FE012001F093FA210A0220FFF707FEE1B20220FFF703FE10BD704700BF2C83FF1F5B
:40100000F8B51E46164BB3F90630834226DD1546134BB3F8DA30994220DA0A44013A934201DC5D1A2DB2C0B2C9B24B19013BDBB20246FFF725FE370AF6B2012001F066FAEA
:4010400008E039460220FFF7D9FD31460220FFF7D5FD25466A1E14B2002DF2D1F8BD00BF2C83FF1F2DE9F04F8BB00290039115460493BDF850709DF854A07F4B1A68002AB4
:4010800040F09080B3F906300146834240F3F180794BB3F8DA300398984280F2EA800AEB4A0253000B44012B00F1E38000EBCA03012B00F1DE804FF0000889468346059585
:4010C000049E4EE0059B03EB830343446B4A134493F8585000243EE015F0010F1BD0BAF1010F09D104EB0B0108EB0900324609B200B2FFF75DFF2BE01FFA8AF00FFA8AF21E
:4011000004FB00B108FB00900096134609B200B2FFF77EFE1CE0BE421AD0BAF1010F09D104EB0B0108EB09003A4609B200B2FFF73FFF0DE01FFA8AF00FFA8AF204FB00B156
:4011400008FB00900097134609B200B2FFF760FE013464B26D08072CBEDD08F101084FFA88F8B8F1040FADDD049BBB4200F08180BAF1010F08D1029805303B460822039955
:4011800000B2FFF73DFF74E01FFA8AF303EB8300029A10440097DB005246039900B2FFF737FE66E0137AEB1ADBB2506800EBC301D2F800B030F8337091F80280CB78079384
:4011C00091F90530089391F906200992BAF1010F04D91BB2059313B2069302E000230693059300231C46994640E05E1CF6B213F0070F03D17B1C1BF807409FB214F0800F51
:4012000027D0BAF1010F0DD1099B039A99184944089B029A98182844049A09B200B2FFF7C7FE16E0059B58191FFA8AF3069A02EB09010FFA8AFE039A01FB0321029A00FB65
:401240000320049B00937246734609B200B2FFF7DFFD6400E4B20135EDB2334600E000254545C2D309F101095FFA89F9079A9145F5D30BB0BDE8F08F2C83FF1F44370000B8
:4012800070B582B04E4B1B68002B43D10A280BD14B4B0022A3F8DE201979B3F8E02002EBC102A3F8E02088E00D2800F08680444B5B79ABB1424A117901EB41046300B2F8EF
:4012C000DE402344B2F90620934209DD3C4B0022A3F8DE20B3F8E02002EBC101A3F8E010374CB4F8E230B4F9E010B4F9DE5022790192B4F8E420009202462846FFF7B2FE31
:40130000237903EB43035A00B4F8DE301344A4F8DE3052E00A280CD1294A0021A2F8DE10997A1079B2F8E03000FB0133A2F8E03043E00D2841D01A7A90423ED3597A8842BF
:401340003BD8821A5C6804EBC204A278E1785AB351B394F905501A494979A9B118490E792A44B1F8DE5002FB0652B1F906108A420ADD134A0021A2F8DE109B7AB2F8E010B6
:4013800006FB0316A2F8E0600D4AB2F8E230B2F9E010B2F9DE5016790196B2F8E420009202462846FFF75EFE2179054B1879B3F8DE2000FB0122A3F8DE2002B070BD00BFCB
:4013C0002C83FF1F10B5044602E00134FFF758FF20780028F9D110BDFEE700BFF0B40022174611E050F82760F3B226F0FF0608E001EB420511F812406D78A5550132013B4B
:40140000DBB2002BF4D101371F2FEBD9F0BC7047064B1B78DBB203F00701054A11701B09013213704422034B1A707047CF0100496E5800407658004008B50A46002101F02B
:40144000FAFB08BD38B500242A4B1C80582202331A70022202331A80182327490B70192502310D8002310B7041F2BF200231088002310B70214B1A7008224FF040231A70CB
:40148000032103F5007319701D4B1B78DBB21D490B701D4B1A8041F25122023B1A800CE01A4B1B7803F0010343EA440404F003044FF4F07001F0A8F9013D0DB1032CEFD1C1
:4014C00015B90320FFF788FF114B4FF480721A8007221A7000220F490A704820023108701A700222033B1A700B4A137843F00F03137038BD804000408640004000430040FD
:4015000008010049A146004022420040254200400440004006400040A243004008B501F07FFB08BD38B572B600240CE0374D630019194A0011462A44084691882858FFF7A1
:401540007BFF0134E4B2072CF0D900240BE02F48A20011194B0003441A8F596B186BFFF7DDFF0134E4B2012CF1D929494FF09040FFF734FF274A137843F00203137010321F
:40158000137843F002031370234C237843F040032370A2F58632513A137843F01003137008221E491E48FFF7B9FF0A221D491E48FFF7B4FF08221D491D48FFF7AFFF08229B
:4015C0001C491D48FFF7AAFF08221C491C48FFF7A5FF08221B491C48FFF7A0FF1B4A137843F0080313701A4D61232B70FFF72AFF81232B700122174B1A70FFF709FF0E229C
:4016000021461548FFF78AFF38BD00BFB03C00008000004803500140A0430040B007004802510040B8070048C0510040C4070048F2510040CC07004812510040D4070048E7
:4016400022510040DC07004832510040224300400048004004000840B043004008B501F0B3FA03680C2B00D1FEE7FEE708B5094B1A681044084BC31A802B02DC054B18601D
:4016800005E001F0A1FA0C2303604FF0FF32104608BD00BFD080FF1F008FFF1F08B5104E104D16E029686B68AC68002204E051F8040B43F8040B0432A242F8D1E8680022DF
:4016C00003E0002143F8041B04328242F9D11035013E002EE6D101F07DFAFEF7D3FCFEE701000000B040000008B5104A104B1A60104A136843F40073136000230AE0032B44
:4017000003D80D4A52F8231000E00C490C4A42F8231001332F2BF2D90A4B1A780A4B1A70074A0A4B1A60FFF7FDFE08BD0004FA050CED00E014ED00E0000000005D160000DD
:401740000080FF1FBC760040C080FF1F08ED00E0044A137803F0BF03800100F0400018431070704700510040044A137803F0FE0300F0010018431070704700BF2051004004
:40178000044A137803F07F03C001C0B218431070704700BF005100407222074B1A702022053B1A700622A5331A70472210331A700022AF3B1A7070478964004010B501F05A
:4017C0002BF804460A4A137843F020031370053A137843F0100313700632137843F01003137000F033F8204601F01AF810BD00BF9964004008B5054B1B7823B9FFF7CCFF1B
:401800000122024B1A70FFF7D9FF08BD1284FF1F034B1B7813F0040FFAD1024B187070476A6400404864004038B5074B1B782BB938BDFFF7EDFF0134A4B201E005460024B7
:40184000285D0028F5D138BD1284FF1F054A137843F0040313701032137843F004031370704700BFA243004001BE704710B5044605E0084B186800F0C7FFA4F50044B4F517
:40188000004FF6D8034B586800FB04F000F0BCFF10BD00BFD480FF1F38B504460D46072902D90020FFF7E0FF1F2C02D90020FFF7DBFF04F01F0000F1604000F564406D011A
:4018C000EDB2057038BD00BF38B5EFF3108572B604284ED82D4B53F82030002B4BD02B4A013B42F820302A4B53F82030032B07D10222274B43F820200022264B43F8202079
:4019000000F05AFC244B1B68002B36D1234B1C6800F030FCB0F1FF3F31D0214B53F82020204B1B689A422CD9B4F1FF3F03D00221174A42F824101C4A52F820201343194A38
:4019400013600022124B43F8202000F0CFFB174B53F820304BB10024144B43F8204040F0004000F0B1FF20460CE000F0ADFF002008E0032006E0042004E0002002E00020F0
:4019800000E0002085F3108838BD00BF5881FF1F0482FF1F4484FF1F9C84FF1FEC81FF1F303F00006084FF1F043F00001C84FF1FF8B5EFF3108472B6042825D800EB400503
:4019C000AB00184DEB5803EB4306B500164E75598D421BD34AB103EB43039E00124B1E44B3689A4214D3954214D3A9B103010F4DEB589BB90301EE180127EF5072600139C3
:401A000000F086F800200AE0032008E0082006E0082004E0082002E0082000E0072084F31088F8BD643E0000C83E00009C8CFF1F18B108B5C368984708BD704708B508B19C
:401A4000406800E00020042816D80C4B53F8203093B10A4A013B42F82030094B53F82030032B07D10222064B43F820200022054B43F8202000F0A0FB08BD00BF5881FF1F7C
:401A80000482FF1F4484FF1F18B1034640689B6801E00023184604281DD80F4A52F82020CAB10E4A52F82010032914D010B50C4C54F820201A4344F820200A4A52F82020BC
:401AC000134207D0012905D10222044B43F8202000F072FB10BD7047DC3E00000482FF1F4484FF1F3084FF1F80B108B50378012B06D013B1032B06D008BDFFF79FFF08BD24
:401B0000FFF7C2FF08BDFFF793FF08BD704700BF30B400EB40029300214AD258214B03EBC2035C68B4F1FF3F04D11E4B03EBC20250602DE01C4B03EB04139B6899420AD294
:401B4000184D05EBC2025060174A02EB04125B1A93601DE01C46144B03EB04139A68891ADB68B3F1FF3F05D00F4A02EB031292689142EFD2B3F1FF3F05D00B4A02EB031277
:401B800095686D1A9560084A02EB0414E0601C46054B03EB00108160C46030BC704700BF643E0000F880FF1F9C8CFF1F38B5394A02EBC0035C6852F83030013342F8303024
:401BC00000EB40018A0034498A58934203D90022304B43F83020B4F1FF3F59D02F4B03EB04139B68002B4ED1214600E019462B4B03EB0113DB68B3F1FF3F05D0274A02EBA9
:401C000003129268002AF1D0244A02EB01114FF0FF32CA601F4A02EBC0004360B3F1FF3F07D01E4A02EB03139A68013A9A6000E02C4604EB44029300194A13441B7A7BB9F2
:401C400004EB44029300164A13445A68154B53F8223003EB83039A0013481044FFF744FF0E4B03EB0413DD68596821B101392046FFF74EFF03E024010022084B1A51B5F189
:401C8000FF3FD5D138BD054A02EB0414013BA36038BD00BFF880FF1FC83E00009C8CFF1F643E0000B43E0000003E000038B5EFF3108572B6002838D1FFF778FF204B1B6838
:401CC000002B34D11F4B1C6800F054FAB0F1FF3F2FD01D4B53F820201C4B1B689A422AD9B4F1FF3F03D00221194A42F82410194A52F820201343154A13600022144B43F873
:401D0000202000F0F3F9144B53F820304BB10024114B43F8204040F0004000F0D5FD20460AE000F0D1FD002006E0032004E0002002E0002000E0002085F3108838BD00BF43
:401D40009C84FF1FEC81FF1F303F00006084FF1F0482FF1F043F00001C84FF1FEFF3108372B6114A1168114A126882B9B1F1FF3F0FD00F4A52F821206AB110B40D4C54F8DC
:401D8000212022EA000044F82100002007E0022002E0022000E0012083F31088704783F3108810BC704700BFEC81FF1F9C84FF1FDC3E00004484FF1F04280FD80B4B53F8B9
:401DC00020306BB10A4B53F82030032B0AD059B1084B53F820300B60002070470320704701207047072070470E207047DC3E00000482FF1F4484FF1F38B5EFF3108472B6A1
:401E0000042853D8324B53F82030002B50D0314B53F82030032B4DD02F4D55F820200A4345F820202D4A52F82020114244D0012B44D10222274B43F8202000F0BDF9284BE0
:401E40001B68002B3CD1274B1D6800F093F9B0F1FF3F37D0244B53F82020244B1B689A4232D9B5F1FF3F03D002211A4A42F825101F4A52F8202013431C4A13600022154B2A
:401E800043F8202000F032F91A4B53F820304BB10025184B43F8205040F0004000F014FD284612E000F010FD00200EE003200CE001200AE0072008E0002006E0002004E04E
:401EC000002002E0002000E0002084F3108838BDDC3E00000482FF1F4484FF1F3084FF1F9C84FF1FEC81FF1F303F00006084FF1F043F00001C84FF1F38B5EFF3108472B680
:401F00003A4B1D683A4B1B68002B63D1B5F1FF3F62D0384B53F82530B3F1FF3F5ED1364B53F82530002B5BD0344B53F82530034258D1334B43F825000122324B43F82520E4
:401F4000314B53F8250031490B6823EA00030B602F4B43F825202F4B53F82520234B1A6000F008F9B0F1FF3F06D02B4B53F82020264B1B689A420DD81C4B1868B0F1FF3FFF
:401F800003D000221F4B43F8202040F0004000F09BFC1AE000211B4A42F820101A4A52F820201343194A136000F0A0F8184B53F8203043B10022164B43F8202040F0004064
:401FC00000F082FC01E000F07FFC00200C4B43F8250008E0022006E0022004E0062002E0012000E0002084F3108838BDEC81FF1F9C84FF1F0881FF1FDC3E00004484FF1FBD
:402000003084FF1F0482FF1F043F00006084FF1F1C84FF1FF081FF1F303F0000EFF3108372B629B130B9054A52F830200A6002E00E2000E0032083F310887047F880FF1F08
:4020400008B500F053F8084B53F8203043B10022054B43F8202040F00040044B186008BD024B186008BD00BF1C84FF1FA084FF1F10B500F07FF8124B1B68B0F1FF3F1AD07F
:40208000104A52F82010104A1268914213D9B3F1FF3F03D002240D4941F8234000210B4B43F820100A4B53F820301A43064B1A60FFF7C6FF10BD43F00043064A136010BD64
:4020C000EC81FF1F303F00006084FF1F0482FF1F043F0000A084FF1F034B1B6813B10022014B1A60704700BF9084FF1FF0B4184B19880B0A174AD356B3F1FF3F01D15356F2
:4021000001E008335BB2144D55F82320134850F82200134E56F8224045F82340114D2F6846F822702A60B4F1FF3F09D10E4A42F82340012202FA03F321EA0301044B198002
:402140000A4B19680A4A42F820101860F0BC70475C84FF1FF43C0000AC81FF1F748CFF1F3081FF1F5884FF1F6C81FF1FEC81FF1FF081FF1F0C4B1A88130A0C49CB56B3F13B
:40218000FF3F01D18B5601E008335BB2B3F1FF3F06D0074A52F82320064B53F8220070474FF0FF30704700BF5C84FF1FF43C0000AC81FF1F748CFF1F30B4144B53F82020B1
:4021C000134C2368134951F823502560124C44F823004FF0FF3441F82340104951F82210A1420AD10E4951F820400E480188214301800D4941F8223002E0064840F821309D
:40220000064941F8223030BC704700BF4481FF1F5884FF1F3081FF1F748CFF1F6C81FF1F303F00005C84FF1FAC81FF1F10B150F8210070474FF0FF30704700BF0122014BA1
:402240001A60FEE79884FF1F70B50546124B53F8306000241CE0104B03EBC50321465868FFF7E4FF0D4A52F82030013B42F820300B4B53F82030032B07D10222084B43F88C
:4022800020200022074B43F82020FFF795FF0134B442E0D370BD00BFF43D00005881FF1F0482FF1F4484FF1F18B908B5FFF7CCFF08BD7047194B1A4ADA621A4A9A631A4A55
:4022C000DA63EFF3108272B6184B1B6813BB10B5044600F05DF8164B1C600122134B1A602046FFF7E1FFFFF745FFB0F1FF3F0ED0104B53F82030104A11680B431360002246
:402300000E4B43F82020FFF7F1FE00F0DDFA62B6FFF794FF82F31088072070470080FF1F892800004D280000650100009884FF1FF48CFF1F043F00006084FF1F0482FF1FA6
:4023400008B5EFF3108272B60D4B19680D4B1B6863B90D4B53F82130B3F1FF3F08D14FF0FF300A4B43F82100002002E0022000E0062010B9084600F000FB82F3108808BD68
:40238000EC81FF1F9C84FF1F0881FF1F1C81FF1F38B50D4B1D68EFF3108472B600F044FA0A4A136843F07F431360094B2B6407210020FFF771FA074A136843F00103136023
:4023C00084F3108838BD00BF08ED00E020ED00E02502000000E100E0024B1878C0F30010704700BF01510040024B1878C0F3C000704700BF01510040044A137803F0DF03C2
:40240000400100F0200018431070704730510040014B1870704700BF79650040014B1878704700BF7965004008B500F0F5F90A4A137843F0200313700132137843F01003C9
:402440001370FC32137843F01003137000F0E8F900F0E2F808BD00BF9C640040014B1878704700BF6D640040014B1878704700BF69650040034B1B7813F0040FFAD0024B27
:40248000187070476D6400404D64004008B501E00A4B1B780A4B1B7813F0200FF8D100F0BBF9084B1A7842F001021A701A7802F0FE021A7000F0B4F908BD00BF5D640040FA
:4024C000696500409D64004008B50F22064B1A70FFF7DCFFFFF7C2FFFFF7C6FF0023034A1370FC32137008BD8C6400408D64004008B5054B1B7823B9FFF7E6FF0122024BF0
:402500001A70FFF791FF08BD6884FF1F044A137803F0F703C00000F00800184310707047C0510040044A137803F0EF03000100F0100018431070704730510040084A13786C
:4025400043F0010313701032137843F00103137002F64D32137843F001031370704700BFA3430040014B1880704700BF044F0040014B1880704700BF064F0040014B187012
:40258000704700BF034F004008B5194A137843F0020313700232137803F08F0343F010031370144B1A7802F0CF021A701A7842F030021A701A7802F0F0021A701A7842F01E
:4025C0000F021A706420FFF7CDFF0020FFF7D0FF0020FFF7D3FF084A137843F00103137002F65E32137843F00103137008BD00BF004F00400B4F0040A343004008B5054BE9
:402600001B7823B9FFF7C0FF0122024B1A70FFF795FF08BD6984FF1F054A137843F0010313701032137843F001031370704700BFA2430040024A137843F0800313707047A5
:4026400078640040014B1870704700BF04640040014B1870704700BF44640040014B1870704700BF2464004008B50B4A137803F0C00343F0090313701C32137843F00103E3
:402680001370FF20FFF7DEFFFF20FFF7E1FF0020FFF7E4FF08BD00BF7864004008B5054B1B7823B9FFF7E0FF0122024B1A70FFF7C1FF08BD6A84FF1F024A137843F08003B8
:4026C000137070477B640040014B1870704700BF0B640040014B1870704700BF4B640040014B1870704700BF2B64004008B50B4A137803F0C00343F0090313702032137844
:4027000043F001031370FF20FFF7DEFFFF20FFF7E1FF0020FFF7E4FF08BD00BF7B64004008B5054B1B7823B9FFF7E0FF0122024B1A70FFF7C1FF08BD6B84FF1F024A1378B2
:4027400043F080031370704775640040014B1870704700BF05640040014B1870704700BF45640040014B1870704700BF2564004008B50B4A137803F0C00343F00903137002
:402780002032137843F001031370FF20FFF7DEFFFF20FFF7E1FF0020FFF7E4FF08BD00BF7564004008B5054B1B7823B9FFF7E0FF0122024B1A70FFF7C1FF08BD6C84FF1F31
:4027C000044A137803F0DF03400100F0200018431070704720510040044A137803F0EF03000100F0100018431070704720510040044A137803F0FB03800000F004001843FC
:4028000010707047F05100400230800803D000BF01380046FCD17047EFF3108072B6704780F31088704700BF18484FF47F0102680A43026016486FF07F4102680A400260F0
:40284000704714484FF080510160704772B611484FF000610160FFF70BFC0F48006800F0F3F858B10C4800684FF080730B4A0C490FB40FB46FF00600004700BF6FF006000D
:4028800062B6004762B600DF08B0704720ED00E01CED00E004ED00E0A084FF1FC928000085280000EFF30880054908600548006880F3088870470248006880F308887047D1
:4028C0005082FF1F4482FF1F411C8900154A11440968154A136899421AD0F0B444464D4656465F46F0B400B5104C9B002344EFF308851D60116089002144096881F30888E1
:4029000002BC8E46F0BCA046A946B246BB46F0BC002806DB00B500F08BF802BC8E46FFF7D3BF70476C3F00006484FF1F4882FF1FF0B444464D4656465F46F0B400B5EFF307
:40294000038308B48000174901440968164A0244EFF30883136088471448804704BC4FF08070024382F3038801BC8646F0BCA046A946B246BB46F0BC704780000A49014455
:402980000A6882F3088804BC4FF08070024382F3038808BC9E46F0BCA046A946B246BB46F0BC7047443F0000888CFF1FB129000010B572B6034B1C68204600F00DF82046D8
:4029C000FFF7DBFFEC81FF1F08B5024B1868FFF7AFFF08BDEC81FF1F10B4104B53F820304FF0FF310BE00E4A52F823200B4941F8202000240B4941F8234019461346B3F1C8
:402A0000FF3FF0D1B1F1FF3F04D0074B53F82120064B1A60084610BC704700BF0881FF1F0081FF1F1484FF1FEC8CFF1F6084FF1F08B562B6FFF7C8FF72B600F041F8014BE7
:402A4000186808BDA084FF1F00280BDA20F000400130054B53F82000044B1B68181A18BF01207047012070476C3F00006484FF1F054B53F82020054B53F820309A4201D1D6
:402A800001207047002070475881FF1FF03E000008B5FFF72BFB084B53F8203043B10022054B43F8202040F00040044B186008BD024B186008BD00BF1C84FF1FA084FF1F55
:402AC00038B5364B1C680022354B1A60354A52F82430013342F82430334B53F824502046FFF7C6FF012801D0A54204D103222F4B43F8242003E002222C4B43F824202C4B43
:402B000053F824102B4A136823EA010313602A4B53F82440214B1C60B5F1FF3F0FD0234B53F82530032B07D10222204B43F825200022224B43F825202846FFF73DFBFFF70F
:402B400019FBB0F1FF3F0BD1B4F1FF3F03D00022164B43F8242044F00044194B1C6038BD184B53F82020134B1B689A4208D800220E4B43F8242044F00044114B1C6038BDB7
:402B800000210A4A42F82010094A52F820201343084A1360FFF77CFF38BD00BFEC81FF1F9084FF1F5881FF1F1C81FF1F0482FF1F043F00006084FF1FF081FF1F4484FF1F4C
:402BC000A084FF1F303F0000014B1868704700BFB482FF1F0E4B70B51E460E4C0025E41AA410A54204D056F8253098470135F8E701F04CFA084B094C1E46E41AA41000250F
:402C0000A54204D056F8253098470135F8E770BD984000009840000098400000A040000010B5431E0A44914204D011F8014B03F8014FF8E710BD03460244934202D003F815
:402C4000011BFAE77047000038B5124B05461C68A36BD3B9182000F08BF843F20E33A06303804AF6CD33438041F2342383804EF26D63C3804DF6EC630381052343810B2333
:402C8000838101220023C0E90423A36B00221D615A6138BDB482FF1F194B10B51C68A36BD3B9182000F064F843F20E33A06303804AF6CD33438041F2342383804EF26D63E1
:402CC000C3804DF6EC630381052343810B23838101220023C0E90423A16B0A4C0B6948695C43094A02FB0040A3FB02230132034443F10003C1E9042323F0004010BD00BF6D
:402D0000B482FF1F2DF451582D7F954C0CB430B5164B0C1E9DB01D6804DA8B232B604FF0FF301EE04FF40273ADF814300CBF234604F1FF33049307934FF6FF730290069057
:402D4000ADF81630209A21AB02A92846019300F01BF9431CBCBF8B232B6014B1029B00221A701DB0BDE8304002B07047B482FF1F024B0146186800F04FB800BFB482FF1F53
:402D800038B50546002944D051F8043C0C1F002BB8BFE41800F0C1FB1E4A1368114613B96360146030E0A3420DD92268A018834201BF18685B681218226063600C6023E0A0
:402DC000A24203D813465A68002AF9D118681918A1420BD12168014458188242196013D110685268014419605A600DE002D90C232B6009E021686018824201BF106852686A
:402E00000918216062605C602846BDE8384000F085BB38BD7484FF1F70B5CD1C25F0030508350C2D38BF0C25002D064601DBA94202D90C23336046E000F06FFB234B1C6894
:402E40001A462146A1B10B685B1B0ED40B2B03D90B60CC18CD501EE08C420BBF63684B681360636018BF0C4615E00C464968E9E7174C23681BB9304600F016FB206029468D
:402E8000304600F011FB431C18D0C41C24F00304A0420DD12560304600F040FB04F10B00231D20F00700C31A0ED05A42E25070BD211A304600F0F8FA0130EBD10C23336029
:402EC000304600F02BFB002070BD00BF7484FF1F7084FF1F2DE9F0478E6882469E420C46914698463ED88A8912F4906F3AD02568096902236F1A656905EB450595FBF3F5BB
:402F00007B1C43449D4238BF1D4653050FD52946FFF782FF064698B13A462169FFF780FEA38923F4906343F08003A38113E02A4600F0F5FA064670B921695046FFF720FF09
:402F40000C23CAF80030A3894FF0FF3043F04003A381BDE8F08726613E44266046466561ED1BA560464528BF464649463246206800F0B8FAA36800209B1BA36023681E44F2
:402F80002660BDE8F08700002DE9F04F9DB003938B8980461C060D4616460DD50B695BB94021FFF739FF2860286118B90C23C8F80030CDE040236B610023099320238DF82F
:402FC0002930DFF89CB130238DF82A3037463C4614F8013B1BB9B7EB060910D003E0252BF9D02746F3E74B46324629464046FFF771FF013000F0A780099B4B4409933B7805
:40300000002B00F0A08000234FF0FF3204930793059206938DF853301A930126052221784E4800F051FA671C049B38B14B4A3C46801A06FA00F018430490EFE7D90644BFA1
:4030400020228DF853201A0744BF2B228DF8532022782A2A03D0079A00210A200BE0039A111D12680391002A10DA524243F00200079204900BE027463B780134303B092B53
:4030800003D800FB02320121F5E701B107923B782E2B1ED17B782A2B0AD1039B02371A1D1B680392002BB8BF4FF0FF33059310E0002319460593781C0A2407463A780130D2
:4030C000303A092A03D804FB01210123F5E703B1059103223978224800F0F6F940B14023CBEB000003FA00F0049B013718430490397806221B487E1C8DF8281000F0E4F9B1
:4031000088B1194B33B9039B073323F007030833039314E003AB00932A46144B04A94046AFF3008007E003AB00932A460F4B04A9404600F093F8B0F1FF3F824603D0099B29
:403140005344099342E7AB895B0601D4099801E04FF0FF301DB0BDE8F08F00BF564000005C4000006040000000000000D52E00002DE9F04791461F460A698B680646934204
:40318000B8BF1346C9F8003091F843200C46DDF8208012B10133C9F800302368990642BFD9F800300233C9F80030256815F0060510D104F1190A07E0012352463946304633
:4031C000C04701301AD00135E368D9F800209B1A9D42F1DB94F843302268003318BF012392060FD5E118302081F843005A1C94F845102244023382F8431003E04FF0FF3093
:40320000BDE8F08704F1430239463046C0470130F4D02268D9F80050E36802F00602042A08BF5D1B2269A3680CBF25EAE57500259342C4BF9B1AED184FF000091A344D45C1
:4032400009D00123224639463046C0470130D5D009F10109F3E70020BDE8F0872DE9F04317460A7E85B06E2A984606460C460C9B01F1430E00F0AE8011D8632A22D009D835
:40328000002A00F0BB80582A40F0CA8081F84520834955E0642A1ED0692A1CD0C0E0732A00F0B08009D86F2A2ED0702A40F0B8800A6842F020020A603EE0752A24D0782A89
:4032C0003AD0ADE01A6801F14205111D1960136884F84230A8E021681A6811F0800F02D0111D196008E011F0400F02F10401196002D0B2F9003000E01368002B3CDA2D228F
:403300005B4284F8432037E021681A6811F0800F02D0111D196007E011F0400F02F10401196001D0138800E01368227E5C496F2A14BF0A2208221BE078225A4984F8452057
:403340002268186812F0800F00F104051D6003D1550601D5038800E00368D00744BF42F0200222601BB9226822F0200222601022002084F8430001E049490A226568002DF2
:40338000A56008DB206820F0040020602BB9002D7DD175460CE0002B79D07546B3FBF2F002FB1033CB5C05F8013D03460028F5D1082A0BD12368DA0708D5236962689A42E2
:4033C000DEBF302305F8013C05F1FF35C5EB0E0323612EE008681A6810F0800F496903D0101D1860136808E010F0400F02F104001860136801D0198000E019600023236175
:40340000754616E01A68111D1960156800216268284600F059F808B1401B6060636804E004F1420584F8422001232361002384F84330CDF800803B4603AA21463046FFF7FE
:4034400097FE013002D14FF0FF3026E023692A4639463046C0470130F5D023689B0710D5002504F1190907E001234A4639463046C0470130E7D00135E368039A9B1A9D42D2
:40348000F2DBE068039B9842B8BF184605E00B7804F1420584F842308AE705B0BDE8F083674000007840000038B5064C0023054608462360FEF7DAF8431C02D1236803B1C5
:4034C0002B6038BDF88EFF1F10B5C9B202449042034605D01C7801308C42F8D1184610BD002010BD884210B501EB020301D8421E0BE09842FBD28118D21AD34204D013F8FA
:40350000014D01F8014DF8E710BD994204D011F8014B02F8014FF8E710BD70477047F8B5074615460E4621B91146BDE8F840FFF773BC1AB9FFF724FC2846F8BD00F015F8FD
:4035400085420ED929463846FFF766FC044650B131462A46FFF764FB31463846FFF710FC01E03046F8BD2046F8BD51F8040C0028BEBF091851F8043CC01804387047000040
:40358000000000000D0A0D0A3D3D3D3D3D3D3D3D3D3D3D3D2057656C636F6D6520746F20746865205265616374696F6E2047616D65203D3D3D3D3D3D3D3D3D3D3D3D0D0AAF
:4035C0007072657373206F6E65206F66207468652074776F20627574746F6E7320746F2073746172742E2E2E0D0A0D0A00000000526F756E643A2025750D0A0053636F728A
:40360000653A202575207C20546F74616C2054696D653A2025756D73207C204176672054696D653A2025756D730D0A003D3D3D3D3D3D3D3D3D3D3D3D3D3D3D3D3D3D3D3DB6
:403640003D3D3D3D3D3D3D3D3D3D3D3D3D3D3D3D3D3D3D3D3D3D3D3D3D3D3D3D3D3D3D3D3D3D0D0A000000004772656174202D20636F727265637420627574746F6E20707B
:40368000726573736564210D0A0000005265616374696F6E2074696D6520696E206D733A2025750D0A0000004F6F7073202D2077726F6E6720627574746F6E207072657375
:4036C000736564210D0A000047616D6520416E616C797A6572000000546F6F20736C6F77210D0A005245414354494F4E0A00000047414D450A000000FF000000F40100FFB1
:403700000000F4010000FF00F401000000006400FFFFFF006400000000006400FFFFFF006400000000006400FFFFFF006400090055415254207374617274656400000000F5
:40374000203A20000FB103053C3CB203053C3CB306053C3C053C3CB40103C003280804C101C0C2020D00C3028D2AC4028DEEC5011A3601C0E0100422070A2E30252A2826F2
:403780002E3A00010313E10F16060D2D26232727252D3B000104133A0105290000000000003E5B4F5B3E3E6B4F6B3E1C3E7C3E1C183C7E3C181C577D571C1C5E7F5E1C0051
:4037C000183C1800FFE7C3E7FF0018241800FFE7DBE7FF30483A060E2629792926407F050507407F05253F5A3CE73C5A7F3E1C1C08081C1C3E7F14227F22145F5F005F5F8A
:4038000006097F017F006689956A606060606094A2FFA29408047E040810207E201008082A1C08081C2A08081E101010100C1E0C1E0C30383E3830060E3E0E0600000000DF
:403840000000005F00000007000700147F147F14242A7F2A12231308646236495620500008070300001C2241000041221C002A1C7F1C2A08083E080800807030000808089E
:403880000808000060600020100804023E5149453E00427F400072494949462141494D331814127F1027454545393C4A49493141211109073649494936464949291E0000B2
:4038C000140000004034000000081422411414141414004122140802015909063E415D594E7C1211127C7F494949363E414141227F4141413E7F494949417F090909013E1C
:40390000414151737F0808087F00417F41002040413F017F081422417F404040407F021C027F7F0408107F3E4141413E7F090909063E4151215E7F09192946264949493223
:4039400003017F01033F4040403F1F2040201F3F4038403F631408146303047804036159494D43007F4141410204081020004141417F04020102044040404040000307085E
:403980000020545478407F284444383844444428384444287F385454541800087E090218A4A49C787F0804047800447D40002040403D007F1028440000417F40007C047864
:4039C00004787C080404783844444438FC1824241818242418FC7C08040408485454542404043F44243C4040207C1C2040201C3C4030403C44281028444C9090907C446438
:403A0000544C4400083641000000770000004136080002010204023C2623263C1EA1A161123A4040207A385454555921555579412254547842215554784020545579400C6D
:403A40001E5272123955555559395454545939555454580000457C410002457D420001457C407D1211127DF0282528F07C545545002054547C547C0A097F4932494949327F
:403A80003A4444443A324A4848303A4141217A3A42402078009DA0A07D3D4242423D3D4040403D3C24FF2424487E4943662B2FFC2F2BFF0929F620C0887E090320545479A2
:403AC000410000447D413048484A32384040227A007A0A0A727D0D19317D2629292F28262929292630484D4020380808080808080808382F10C8ACBA2F102834FA00007BBA
:403B0000000008142A142222142A14085500550055AA55AA55AAFF55FF55FF000000FF00101010FF00141414FF001010FF00FF1010F010F0141414FC001414F700FF000052
:403B4000FF00FF1414F404FC141417101F10101F101F1414141F00101010F0000000001F101010101F10101010F010000000FF101010101010101010FF10000000FF140065
:403B800000FF00FF00001F10170000FC04F414141710171414F404F40000FF00F714141414141414F700F7141414171410101F101F141414F4141010F010F000001F101F6C
:403BC0000000001F14000000FC140000F010F01010FF10FF141414FF141010101F00000000F010FFFFFFFFFFF0F0F0F0F0FFFFFF0000000000FFFF0F0F0F0F0F38444438DD
:403C000044FC4A4A4A347E02020606027E027E0263554941633844443C04407E201E2006027E020299A5E7A5991C2A492A1C4C7201724C304A4D4D303048784830BC625A7E
:403C4000463D3E494949007E0101017E2A2A2A2A2A44445F444440514A444040444A51400000FF0103E080FF000008086B6B083612362436060F090F06000018180000001F
:403C80001010003040FF0101001F01011E00191D1712003C3C3C3C000000000054465400427566666572206F766572666C6F7700004F00400C00405100403000000001402C
:403CC000800C000D0140000300140140000800400140000A004C0140000200500140200060520040280700480600800C0140300700488000FF00010102020202030303036F
:403D0000030303030404040404040404040404040404040405050505050505050505050505050505050505050505050505050505050505050606060606060606060606064F
:403D400006060606060606060606060606060606060606060606060606060606060606060606060606060606060606060606060606060606070707070707070707070707B7
:403D80000707070707070707070707070707070707070707070707070707070707070707070707070707070707070707070707070707070707070707070707070707070743
:403DC0000707070707070707070707070707070707070707070707070707070707070707070707070707070707070707070707070707070701000000FC3D0000000000001D
:403E000000000000020000000000000000000000FFFFFFFF00000000040000000000000000000000FFFFFFFF00000000030000000000000000000000FFFFFFFF0100000084
:403E4000020000000800000000000000FFFFFFFF01000000020000000400000000000000FFFFFFFF0000000000000000000000000000000001000000000000000000000038
:403E800002000000000000000000000003000000000000000000000004000000000000000000000001000000020000000300000004000000000000000100000002000000EC
:403EC0000300000004000000A0860100010000000000000000000000000000000000000000000000010000000000000000000000010000000100000001000000010000008E
:403F00000100000080000000010000002000000002000000400000000100000002000000040000000800000000000000010000000200000001000000200000000200000068
:403F400040000000AD00000055010000010100004901000031010000C9290000C9290000C9290000C9290000C92900000000000000000000000000000100000000000000C5
:403F800000000000616C726D5F5469636B316D00616C726D5F617263616469616E000000616C726D5F74667400000000616C726D5F72616E646F6D00616C726D5F74696D55
:403FC000656F75740000000065765F627574746F6E4C65667400000065765F627574746F6E5269676874000065765F74696D656F7574000065765F72616E646F6D446F6EB2
:40400000650000007265735F726E64007265735F6F75740074736B5F696E69740000000074736B5F6261636B67726F756E64000074736B5F67616D650000000074736B5FFB
:404040007466740074736B5F617263616469616E000000004300232D302B2000686C4C0065666745464700303132333435363738394142434445460030313233343536379E
:40408000383961626364656600000000F8B500BFF8BC08BC9E4670474D000000E9160000F8B500BFF8BC08BC9E46704729000000C0400000C880FF1FF0010000480C00001C
:4040C00000000000FFFF0000008FFF1F0000E02EC05D00001800000000366E01843F0000903F0000A03F0000AC3F0000B83F000000000000FFFFFFFFFFFFFFFFFFFFFFFFE6
:40410000FFFFFFFFFFFFFFFFFFFFFFFFFFFFFFFFFFFFFFFFFFFFFFFFFFFFFFFFFFFFFFFFFFFFFFFFFFFFFFFF01000000020000000300000004000000FFFFFFFF01000000A0
:40414000000000000500000001000000060000000100000001000000010000000100000001000000FFFFFFFFFFFFFFFFFFFFFFFFFFFFFFFFFFFFFFFFFFFFFFFFFFFFFFFF4A
:40418000FFFFFFFFFFFFFFFFFFFFFFFFFFFFFFFFFFFFFFFFFFFFFFFFFFFFFFFFFFFFFFFFFFFFFFFFFFFFFFFFFFFFFFFFFFFFFFFFFFFFFFFFFFFFFFFFFFFFFFFFFFFFFFFF3F
:4041C000FFFFFFFFFFFFFFFFFFFFFFFFFFFFFFFFFFFFFFFFFFFFFFFFFFFFFFFFFFFFFFFFFFFFFFFFFFFFFFFFFFFFFFFFFFFFFFFFFFFFFFFFFFFFFFFFFFFFFFFF03000000F8
:4042000003000000030000000300000003000000C83F0000D83F0000E83F0000F43F0000044000000C4000001440000020400000304000003C40000044400000F88EFF1FA2
:40424000000000004C8CFF1F0000000000000000000000000000000000000000000000000000000000000000000000005440000000000000000000000000000000000000B4
:4042800000000000000000000000000000000000000000000000000000000000000000000000000000000000000000005482FF1F000000000000000000000000000000000A
:4042C00000000000000000000000000000000000000000000000000000000000000000000000000000000000000000000000000000000000000000000000000000000000BE
:40430000000000000000000000000000000000000000000000000000000000000000000000000000000000000000000000000000000000000000000000000000000000007D
:40434000000000000000000000000000000000000000000000000000000000000000000000000000000000000000000000000000000000000000000000000000000000003D
:4043800000000000000000000000000000000000000000000000000000000000000000000000000000000000000000000000000000000000000000000000000000000000FD
:020000040003F7
:0200000480007A
:40000000024F004004520040046400400403014067040140430501400C070140500801404D0901406A0A0140490B0140080C01403F0D0140010F01400115014002170140C2
:400040004E1801404C1901400E1B0140024001400A410140074201400643014006440140044501400146014002480140024901400F4C01400E4D0140065001400151014090
:4000800001300A3600400180083909AA843889728A0F8C0F86018B048D04E01805060604071809040B1A0E040F0110701512170C18191A201B011E022428265328202A4B15
:4000C0002D0A2F1430783404351E3603370138023B203E103F40403041054721483049FF4AFF4BFF4DA04F0450185418580459045A045B045D215F01604062C0644065409C
:4001000066C068C06AC06CC06EC087018A0492019302950896019B049F01A202A604A908B002B102B301B404B504B601B708B980BF40C010C106C501C620C809C9FFCAFF60
:40014000CBFFCDA0CF04D018D280D804D904DA04DB04DC11DD11DF01E040E2C0E440E540E6C0E8C0EAC0ECC0EEC00140031007040A410B040EA0100413081480150818044A
:400180001A411C081E821F0221B02420274629802F08302435263740388039203B043F084304474048024F285002510457105A0260046180750283108A108CD09304960174
:4001C000980499849B08A404A601AA01AC04B004B180B308C045C23BC436CA28CCF6CE4ED012D228D601D80CE204E640EA28EC0181208A0196029D20A420A940AB02B30A53
:40020000B520E601E820EE04080110011801240132013B203E0440434102450E460C470B481549FF4AFF4BFF4EF04F44500C5280580459045A045B045C205D125F0166C005
:400240006A406B0280028110820D8472853C860887C289088C108DFF8E6090CD93E3944D95189680988D99809A409C019E329F04A144A280A4CDA5C0A812A9E7AA64AB18F9
:40028000ACCDAD1CAFE1B00FB338B480B51FB670B7C0BA82BB20BE10D602D711D804D904DB04DC20DD20DF0100080182052009110A020B200C010F84110812811310142063
:4002C000170419821B101E10200423262704280129202A063008326234083704382439803B014414450846804D045788580459045A106958701872047301774083408B0229
:40030000920293329484955C962099049A159B119CB09DA09E809F20A004A115A282A401A620A748A910AC02AD04B308B620C04DC25FC42FCA0FCC0FCE0FD0E0D604E22088
:40034000ECC0000202110501080109010A0E0D0118072404261128073101320736183E40406441034202440146EC480C49FF4AFF4BFF4C624DA04EF04F41500C5401580451
:4003800059045A045B045C225D225F016640670269106A306B106D106E106F12811085098620871088208D308E088F0C922093039401952C960E97119820A001A216A540DB
:4003C000A603A914AA1CAC1CAD1CAE03AF22B00FB21AB360B420B71FB820B908BA0AC030C106C510C620C80AC9FFCAFFCBFFCDA0CF04D018D280D804D904DA04DB04DC228C
:40040000DD11DF01E040E2C0E440E540E6C0E8C0EAC0ECC0EEC0001202040484052006020B040E100F881110122014111688171018111D141E101F012101220227112C1160
:400440002F093504370139583B043E8A402941014408472849204F2250105140571058825A205B04774078207B0480108B018D408F409202933095049A119B049D809E2055
:40048000A004A115A280AF08B310B404B501C0EAC272C4F6CA70CCC0CEDED04FD224D60FE290E610EC01EE80050135013F105602572459045B045F010018018009510B1089
:4004C000102812021302181419401A4020CA218122032318270429802A092B08302031803301388039023B103D044044480149044A804B105048521059055A405B20614095
:4005000066206C206DAA6E806F097601770288408A408B108C408D018E088F209410C007C20FC40FCA0FCC0DCE4DD005D20CD60FD828E008E6208C10EE02A820EA01000AC5
:400540000204040306040C030E0C16051C031E0420102A083410360F3A803E1058045C025F01800181088210831084028503880389038E239023920C942F971498049902D7
:400580009B019C0F9E209F10A008A101A302A40CA51CA623A80CAD1CB010B110B30CB40FB503B62CB808B908BAA0BE04BF05C006C604C9FFCA07CBFFCC40CD20CEF0CF0565
:4005C000D008D440D804D904DA04DB04DC22DD02DF01E040E1A8E240E3200002022604020544080809010A050C400D0810081305171119201A811B481D401F202101222874
:4006000029442A823040310832203380380239183B02408041014A08504051086290632069416B287014710173028010812187208D0191189204930794809680980899042A
:400640009A149B119C809D209E82A008A282A390A401A508A620A740AA10ABA0B540B704C0BFC2AFC45ECA0BCC0ECE07D204D80EE006872088018A029E02A320A401AD01CA
:40068000AF08B302B404B540B708E408E8083340CC10070209015C0262088D019F40C080C210D680D84053088E089B029F40A608B002D4201B08A708AB40B302C610EE80F8
:4006C000700476208C04DC01DE04E008522086209E20D404AA206410D880AC10EE405080562059015B405E015F4060086610808086108E20D407D607D803E40210407508EA
:4007000085088840AE01B340B408B501B740C408DE04E201E80EEC0200070A070C070E0110051C05000300009084000040000000003300445600090001C1003804820000C7
:40074000841800020A00100080180402049C8003841A0000841A0000600200180718380008137F0F80E002E0080000A8000051006504200000DEFC0B1FFFFFFF2200F00863
:40078000040000000900000004040404000000010000C00040011011C0010011400140010000000000000000000000000000000018C0C000C0000000800040BCBC00B40061
:4007C00000000000000404000000000000FFFF00FF000000003131000100000000383800080000000000000000000000000000000000000000000000000000000000000019
:4008000000000000000000000000000000000000000000000000000000000000000000000000000000000000000000000000000000000000000000000000000000000000B8
:400840000000000000000000000000000000000000000000000000000000000000000000000000000000000000000000000000000000000000000000000000000000000078
:400880000000000000000000000000000000000000000000000000000000000000000000000000000000000000000000000000000000000000000000000000000000000038
:4008C00000000000000000000000000000000000000000000000000000000000000000000000000000000000000000000000000000000000000000000000000000000000F8
:0200000490006A
:0400000000004007B5
:0200000490105A
:04000000BC90ACAF55
:0200000490303A
:02000000765C2C
:0200000490402A
:4000000000000000000000000000000000000000000000000000000000000000000000000000000000000000000000000000000000000000000000000000000000000000C0
:400040000000000000000000000000000000000000000000000000000000000000000000000000000000000000000000000000000000000000000000000000000000000080
:400080000000000000000000000000000000000000000000000000000000000000000000000000000000000000000000000000000000000000000000000000000000000040
:4000C0000000000000000000000000000000000000000000000000000000000000000000000000000000000000000000000000000000000000000000000000000000000000
:0200000490501A
:0C00000000012E16106900012E3086C58C
:00000001FF